{
  "contractName": "AuctionFactory",
  "abi": [
    {
      "inputs": [
        {
          "internalType": "address",
          "name": "_erc721Contract",
          "type": "address"
        }
      ],
      "stateMutability": "nonpayable",
      "type": "constructor"
    },
    {
      "anonymous": false,
      "inputs": [
        {
          "indexed": true,
          "internalType": "address",
          "name": "auctionContract",
          "type": "address"
        },
        {
          "indexed": true,
          "internalType": "address",
          "name": "owner",
          "type": "address"
        },
        {
          "indexed": false,
          "internalType": "uint256",
          "name": "numAuctions",
          "type": "uint256"
        }
      ],
      "name": "AuctionCreated",
      "type": "event"
    },
    {
      "inputs": [
        {
          "internalType": "uint256",
          "name": "",
          "type": "uint256"
        }
      ],
      "name": "auctions",
      "outputs": [
        {
          "internalType": "address",
          "name": "",
          "type": "address"
        }
      ],
      "stateMutability": "view",
      "type": "function"
    },
    {
      "inputs": [],
      "name": "getAuctions",
      "outputs": [
        {
          "internalType": "address[]",
          "name": "",
          "type": "address[]"
        }
      ],
      "stateMutability": "view",
      "type": "function"
    },
    {
      "inputs": [
        {
          "internalType": "uint256",
          "name": "startBlock",
          "type": "uint256"
        },
        {
          "internalType": "uint256",
          "name": "endBlock",
          "type": "uint256"
        },
        {
          "internalType": "uint256",
          "name": "bidIncrement",
          "type": "uint256"
        },
        {
          "internalType": "uint256",
          "name": "tokenId",
          "type": "uint256"
        }
      ],
      "name": "createAuction",
      "outputs": [],
      "stateMutability": "nonpayable",
      "type": "function"
    },
    {
      "inputs": [],
      "name": "getCurrentBlock",
      "outputs": [
        {
          "internalType": "uint256",
          "name": "",
          "type": "uint256"
        }
      ],
      "stateMutability": "view",
      "type": "function"
    }
  ],
  "bytecode": "0x608060405234801561001057600080fd5b50604051613204380380613204833981810160405281019061003291906100dc565b80600160006101000a81548173ffffffffffffffffffffffffffffffffffffffff021916908373ffffffffffffffffffffffffffffffffffffffff16021790555050610109565b600080fd5b600073ffffffffffffffffffffffffffffffffffffffff82169050919050565b60006100a98261007e565b9050919050565b6100b98161009e565b81146100c457600080fd5b50565b6000815190506100d6816100b0565b92915050565b6000602082840312156100f2576100f1610079565b5b6000610100848285016100c7565b91505092915050565b6130ec806101186000396000f3fe60806040523480156200001157600080fd5b5060043610620000525760003560e01c8063431f21da1462000057578063571a26a01462000077578063672d5d3b14620000ad578063d7c0691914620000cf575b600080fd5b6200007560048036038101906200006f919062000356565b620000f1565b005b6200009560048036038101906200008f9190620003c8565b62000230565b604051620000a491906200043f565b60405180910390f35b620000b762000270565b604051620000c691906200046d565b60405180910390f35b620000d962000278565b604051620000e8919062000558565b60405180910390f35b600084843385600160009054906101000a900473ffffffffffffffffffffffffffffffffffffffff1686604051620001299062000308565b6200013a969594939291906200057c565b604051809103906000f08015801562000157573d6000803e3d6000fd5b5090506000819080600181540180825580915050600190039060005260206000200160009091909190916101000a81548173ffffffffffffffffffffffffffffffffffffffff021916908373ffffffffffffffffffffffffffffffffffffffff1602179055503373ffffffffffffffffffffffffffffffffffffffff168173ffffffffffffffffffffffffffffffffffffffff167f261f6e6830ed857876d5aa4eca876ccf116d09b91a6675e3e1a1920d53ef585e6000805490506040516200022191906200046d565b60405180910390a35050505050565b600081815481106200024157600080fd5b906000526020600020016000915054906101000a900473ffffffffffffffffffffffffffffffffffffffff1681565b600043905090565b60606000805480602002602001604051908101604052809291908181526020018280548015620002fe57602002820191906000526020600020905b8160009054906101000a900473ffffffffffffffffffffffffffffffffffffffff1673ffffffffffffffffffffffffffffffffffffffff1681526020019060010190808311620002b3575b5050505050905090565b612acd80620005ea83390190565b600080fd5b6000819050919050565b62000330816200031b565b81146200033c57600080fd5b50565b600081359050620003508162000325565b92915050565b6000806000806080858703121562000373576200037262000316565b5b600062000383878288016200033f565b945050602062000396878288016200033f565b9350506040620003a9878288016200033f565b9250506060620003bc878288016200033f565b91505092959194509250565b600060208284031215620003e157620003e062000316565b5b6000620003f1848285016200033f565b91505092915050565b600073ffffffffffffffffffffffffffffffffffffffff82169050919050565b60006200042782620003fa565b9050919050565b62000439816200041a565b82525050565b60006020820190506200045660008301846200042e565b92915050565b62000467816200031b565b82525050565b60006020820190506200048460008301846200045c565b92915050565b600081519050919050565b600082825260208201905092915050565b6000819050602082019050919050565b620004c1816200041a565b82525050565b6000620004d58383620004b6565b60208301905092915050565b6000602082019050919050565b6000620004fb826200048a565b62000507818562000495565b93506200051483620004a6565b8060005b838110156200054b5781516200052f8882620004c7565b97506200053c83620004e1565b92505060018101905062000518565b5085935050505092915050565b60006020820190508181036000830152620005748184620004ee565b905092915050565b600060c0820190506200059360008301896200045c565b620005a260208301886200045c565b620005b160408301876200042e565b620005c060608301866200045c565b620005cf60808301856200042e565b620005de60a08301846200045c565b97965050505050505056fe60806040523480156200001157600080fd5b5060405162002acd38038062002acd833981810160405281019062000037919062000345565b8486106200007c576040517f08c379a0000000000000000000000000000000000000000000000000000000008152600401620000739062000468565b60405180910390fd5b438611620000c1576040517f08c379a0000000000000000000000000000000000000000000000000000000008152600401620000b89062000500565b60405180910390fd5b856000819055508460018190555083600260006101000a81548173ffffffffffffffffffffffffffffffffffffffff021916908373ffffffffffffffffffffffffffffffffffffffff1602179055508260038190555081600460006101000a81548173ffffffffffffffffffffffffffffffffffffffff021916908373ffffffffffffffffffffffffffffffffffffffff16021790555080600581905550600260009054906101000a900473ffffffffffffffffffffffffffffffffffffffff1673ffffffffffffffffffffffffffffffffffffffff16600460009054906101000a900473ffffffffffffffffffffffffffffffffffffffff1673ffffffffffffffffffffffffffffffffffffffff16636352211e6005546040518263ffffffff1660e01b8152600401620001f7919062000533565b602060405180830381865afa15801562000215573d6000803e3d6000fd5b505050506040513d601f19601f820116820180604052508101906200023b919062000550565b73ffffffffffffffffffffffffffffffffffffffff161462000294576040517f08c379a00000000000000000000000000000000000000000000000000000000081526004016200028b90620005f8565b60405180910390fd5b5050505050506200061a565b600080fd5b6000819050919050565b620002ba81620002a5565b8114620002c657600080fd5b50565b600081519050620002da81620002af565b92915050565b600073ffffffffffffffffffffffffffffffffffffffff82169050919050565b60006200030d82620002e0565b9050919050565b6200031f8162000300565b81146200032b57600080fd5b50565b6000815190506200033f8162000314565b92915050565b60008060008060008060c08789031215620003655762000364620002a0565b5b60006200037589828a01620002c9565b96505060206200038889828a01620002c9565b95505060406200039b89828a016200032e565b9450506060620003ae89828a01620002c9565b9350506080620003c189828a016200032e565b92505060a0620003d489828a01620002c9565b9150509295509295509295565b600082825260208201905092915050565b7f537461727420626c6f636b206d757374206265206c657373207468616e20746860008201527f6520656e6420626c6f636b000000000000000000000000000000000000000000602082015250565b600062000450602b83620003e1565b91506200045d82620003f2565b604082019050919050565b60006020820190508181036000830152620004838162000441565b9050919050565b7f537461727420626c6f636b20206d75737420626520677265617465722074686160008201527f6e207468652063757272656e7420626c6f636b00000000000000000000000000602082015250565b6000620004e8603383620003e1565b9150620004f5826200048a565b604082019050919050565b600060208201905081810360008301526200051b81620004d9565b9050919050565b6200052d81620002a5565b82525050565b60006020820190506200054a600083018462000522565b92915050565b600060208284031215620005695762000568620002a0565b5b600062000579848285016200032e565b91505092915050565b7f41756374696f6e206f776e6572206d757374206f776e20746865204e4654207460008201527f6f6b656e00000000000000000000000000000000000000000000000000000000602082015250565b6000620005e0602483620003e1565b9150620005ed8262000582565b604082019050919050565b600060208201905081810360008301526200061381620005d1565b9050919050565b6124a3806200062a6000396000f3fe6080604052600436106100f35760003560e01c80638da5cb5b1161008a578063d7c97fb411610059578063d7c97fb4146102f8578063ea8a1af014610323578063ecfc7ecc1461033a578063f5b56c5614610344576100f3565b80638da5cb5b1461026057806391f901571461028b578063b3cc167a146102b6578063d0e30db0146102e1576100f3565b80633c130d90116100c65780633c130d90146101c85780633ccfd60b146101f35780633f9942ff1461020a57806348cd4cb114610235576100f3565b806301ffc9a7146100f8578063083c632314610135578063150b7a021461016057806317d70f7c1461019d575b600080fd5b34801561010457600080fd5b5061011f600480360381019061011a919061167b565b61036f565b60405161012c91906116c3565b60405180910390f35b34801561014157600080fd5b5061014a6103d9565b60405161015791906116f7565b60405180910390f35b34801561016c57600080fd5b50610187600480360381019061018291906118e2565b6103df565b6040516101949190611974565b60405180910390f35b3480156101a957600080fd5b506101b26103f3565b6040516101bf91906116f7565b60405180910390f35b3480156101d457600080fd5b506101dd6103f9565b6040516101ea9190611a17565b60405180910390f35b3480156101ff57600080fd5b506102086104a3565b005b34801561021657600080fd5b5061021f610a06565b60405161022c91906116c3565b60405180910390f35b34801561024157600080fd5b5061024a610a19565b60405161025791906116f7565b60405180910390f35b34801561026c57600080fd5b50610275610a1f565b6040516102829190611a48565b60405180910390f35b34801561029757600080fd5b506102a0610a45565b6040516102ad9190611a84565b60405180910390f35b3480156102c257600080fd5b506102cb610a6b565b6040516102d891906116f7565b60405180910390f35b3480156102ed57600080fd5b506102f6610a71565b005b34801561030457600080fd5b5061030d610ed7565b60405161031a9190611afe565b60405180910390f35b34801561032f57600080fd5b50610338610efd565b005b610342611135565b005b34801561035057600080fd5b506103596115f0565b60405161036691906116f7565b60405180910390f35b60007f01ffc9a7000000000000000000000000000000000000000000000000000000007bffffffffffffffffffffffffffffffffffffffffffffffffffffffff1916827bffffffffffffffffffffffffffffffffffffffffffffffffffffffff1916149050919050565b60015481565b600063150b7a0260e01b9050949350505050565b60055481565b6060600460009054906101000a900473ffffffffffffffffffffffffffffffffffffffff1673ffffffffffffffffffffffffffffffffffffffff1663c87b56dd6005546040518263ffffffff1660e01b815260040161045891906116f7565b600060405180830381865afa158015610475573d6000803e3d6000fd5b505050506040513d6000823e3d601f19601f8201168201806040525081019061049e9190611bba565b905090565b600154431180156104c15750600660009054906101000a900460ff16155b610500576040517f08c379a00000000000000000000000000000000000000000000000000000000081526004016104f790611c75565b60405180910390fd5b600080600660009054906101000a900460ff161561056257339150600760008373ffffffffffffffffffffffffffffffffffffffff1673ffffffffffffffffffffffffffffffffffffffff168152602001908152602001600020549050610871565b600260009054906101000a900473ffffffffffffffffffffffffffffffffffffffff1673ffffffffffffffffffffffffffffffffffffffff163373ffffffffffffffffffffffffffffffffffffffff16141561078457600960009054906101000a900460ff1615610608576040517f08c379a00000000000000000000000000000000000000000000000000000000081526004016105ff90611ce1565b60405180910390fd5b600660019054906101000a900473ffffffffffffffffffffffffffffffffffffffff16915060085490506000600660019054906101000a900473ffffffffffffffffffffffffffffffffffffffff1690506000600854141561068a57600260009054906101000a900473ffffffffffffffffffffffffffffffffffffffff1690505b600460009054906101000a900473ffffffffffffffffffffffffffffffffffffffff1673ffffffffffffffffffffffffffffffffffffffff166342842e0e30836005546040518463ffffffff1660e01b81526004016106eb93929190611d01565b600060405180830381600087803b15801561070557600080fd5b505af1158015610719573d6000803e3d6000fd5b505050506001600960006101000a81548160ff0219169083151502179055506008548173ffffffffffffffffffffffffffffffffffffffff167f44e2ab5a6cfe856e15b49f53aec49ff1d9d164735554befaac76ac4dec58af9360405160405180910390a350610870565b600660019054906101000a900473ffffffffffffffffffffffffffffffffffffffff1673ffffffffffffffffffffffffffffffffffffffff163373ffffffffffffffffffffffffffffffffffffffff16141561082a57600960009054906101000a900460ff16610829576040517f08c379a000000000000000000000000000000000000000000000000000000000815260040161082090611d84565b60405180910390fd5b5b339150600760003373ffffffffffffffffffffffffffffffffffffffff1673ffffffffffffffffffffffffffffffffffffffff1681526020019081526020016000205490505b5b600260009054906101000a900473ffffffffffffffffffffffffffffffffffffffff1673ffffffffffffffffffffffffffffffffffffffff163373ffffffffffffffffffffffffffffffffffffffff16146109a75760008111610909576040517f08c379a000000000000000000000000000000000000000000000000000000000815260040161090090611e16565b60405180910390fd5b8173ffffffffffffffffffffffffffffffffffffffff166108fc829081150290604051600060405180830381858888f1935050505015801561094f573d6000803e3d6000fd5b5080600760008473ffffffffffffffffffffffffffffffffffffffff1673ffffffffffffffffffffffffffffffffffffffff168152602001908152602001600020600082825461099f9190611e65565b925050819055505b808273ffffffffffffffffffffffffffffffffffffffff163373ffffffffffffffffffffffffffffffffffffffff167f0ec497a8ae5b1ba29c60470ef651def995fac3deebbdcc56c47a4e5f51a4c2bd60405160405180910390a45050565b600660009054906101000a900460ff1681565b60005481565b600260009054906101000a900473ffffffffffffffffffffffffffffffffffffffff1681565b600660019054906101000a900473ffffffffffffffffffffffffffffffffffffffff1681565b60035481565b600260009054906101000a900473ffffffffffffffffffffffffffffffffffffffff1673ffffffffffffffffffffffffffffffffffffffff163373ffffffffffffffffffffffffffffffffffffffff1614610b01576040517f08c379a0000000000000000000000000000000000000000000000000000000008152600401610af890611f0b565b60405180910390fd5b600960019054906101000a900460ff1615610b51576040517f08c379a0000000000000000000000000000000000000000000000000000000008152600401610b4890611f77565b60405180910390fd5b6001544310610b95576040517f08c379a0000000000000000000000000000000000000000000000000000000008152600401610b8c90611fe3565b60405180910390fd5b600660009054906101000a900460ff1615610be5576040517f08c379a0000000000000000000000000000000000000000000000000000000008152600401610bdc9061204f565b60405180910390fd5b3373ffffffffffffffffffffffffffffffffffffffff16600460009054906101000a900473ffffffffffffffffffffffffffffffffffffffff1673ffffffffffffffffffffffffffffffffffffffff16636352211e6005546040518263ffffffff1660e01b8152600401610c5991906116f7565b602060405180830381865afa158015610c76573d6000803e3d6000fd5b505050506040513d601f19601f82011682018060405250810190610c9a9190612084565b73ffffffffffffffffffffffffffffffffffffffff1614610cf0576040517f08c379a0000000000000000000000000000000000000000000000000000000008152600401610ce7906120fd565b60405180910390fd5b3073ffffffffffffffffffffffffffffffffffffffff16600460009054906101000a900473ffffffffffffffffffffffffffffffffffffffff1673ffffffffffffffffffffffffffffffffffffffff1663081812fc6005546040518263ffffffff1660e01b8152600401610d6491906116f7565b602060405180830381865afa158015610d81573d6000803e3d6000fd5b505050506040513d601f19601f82011682018060405250810190610da59190612084565b73ffffffffffffffffffffffffffffffffffffffff1614610dfb576040517f08c379a0000000000000000000000000000000000000000000000000000000008152600401610df29061218f565b60405180910390fd5b600460009054906101000a900473ffffffffffffffffffffffffffffffffffffffff1673ffffffffffffffffffffffffffffffffffffffff166342842e0e33306005546040518463ffffffff1660e01b8152600401610e5c93929190611d01565b600060405180830381600087803b158015610e7657600080fd5b505af1158015610e8a573d6000803e3d6000fd5b505050506001600960016101000a81548160ff0219169083151502179055507f7d028f71c44fd2783fa661fccc192a95842aca39ca316d65d210bb5fac059a4960405160405180910390a1565b600460009054906101000a900473ffffffffffffffffffffffffffffffffffffffff1681565b600260009054906101000a900473ffffffffffffffffffffffffffffffffffffffff1673ffffffffffffffffffffffffffffffffffffffff163373ffffffffffffffffffffffffffffffffffffffff1614610f8d576040517f08c379a0000000000000000000000000000000000000000000000000000000008152600401610f8490611f0b565b60405180910390fd5b600660009054906101000a900460ff1615610fdd576040517f08c379a0000000000000000000000000000000000000000000000000000000008152600401610fd49061204f565b60405180910390fd5b6001544310611021576040517f08c379a000000000000000000000000000000000000000000000000000000000815260040161101890611fe3565b60405180910390fd5b6001600660006101000a81548160ff021916908315150217905550600960019054906101000a900460ff161561110757600460009054906101000a900473ffffffffffffffffffffffffffffffffffffffff1673ffffffffffffffffffffffffffffffffffffffff166342842e0e30600260009054906101000a900473ffffffffffffffffffffffffffffffffffffffff166005546040518463ffffffff1660e01b81526004016110d493929190611d01565b600060405180830381600087803b1580156110ee57600080fd5b505af1158015611102573d6000803e3d6000fd5b505050505b7f462b6ca7f632601af1295aeb320851f50e8e630a309173f23535845ea4bfb3b960405160405180910390a1565b600260009054906101000a900473ffffffffffffffffffffffffffffffffffffffff1673ffffffffffffffffffffffffffffffffffffffff163373ffffffffffffffffffffffffffffffffffffffff1614156111c6576040517f08c379a00000000000000000000000000000000000000000000000000000000081526004016111bd90612221565b60405180910390fd5b60005443101561120b576040517f08c379a00000000000000000000000000000000000000000000000000000000081526004016112029061228d565b60405180910390fd5b600154431061124f576040517f08c379a000000000000000000000000000000000000000000000000000000000815260040161124690611fe3565b60405180910390fd5b600660009054906101000a900460ff161561129f576040517f08c379a00000000000000000000000000000000000000000000000000000000081526004016112969061204f565b60405180910390fd5b600960019054906101000a900460ff166112ee576040517f08c379a00000000000000000000000000000000000000000000000000000000081526004016112e5906122f9565b60405180910390fd5b60003411611331576040517f08c379a000000000000000000000000000000000000000000000000000000000815260040161132890612365565b60405180910390fd5b600034600760003373ffffffffffffffffffffffffffffffffffffffff1673ffffffffffffffffffffffffffffffffffffffff1681526020019081526020016000205461137e9190612385565b905060085481116113c4576040517f08c379a00000000000000000000000000000000000000000000000000000000081526004016113bb9061244d565b60405180910390fd5b34600760003373ffffffffffffffffffffffffffffffffffffffff1673ffffffffffffffffffffffffffffffffffffffff16815260200190815260200160002060008282546114139190612385565b92505081905550600060076000600660019054906101000a900473ffffffffffffffffffffffffffffffffffffffff1673ffffffffffffffffffffffffffffffffffffffff1673ffffffffffffffffffffffffffffffffffffffff168152602001908152602001600020549050818111156114aa5761149f600354836114999190612385565b826115f6565b600881905550611562565b600660019054906101000a900473ffffffffffffffffffffffffffffffffffffffff1673ffffffffffffffffffffffffffffffffffffffff163373ffffffffffffffffffffffffffffffffffffffff161461155e5733600660016101000a81548173ffffffffffffffffffffffffffffffffffffffff021916908373ffffffffffffffffffffffffffffffffffffffff16021790555061155782600354836115529190612385565b6115f6565b6008819055505b8190505b600660019054906101000a900473ffffffffffffffffffffffffffffffffffffffff1673ffffffffffffffffffffffffffffffffffffffff16823373ffffffffffffffffffffffffffffffffffffffff167f49e60d8d833f1250f6ede154509b047fe77c1eae57655e8176675b5f91af7b0a6008546040516115e491906116f7565b60405180910390a45050565b60085481565b60008183106116055781611607565b825b905092915050565b6000604051905090565b600080fd5b600080fd5b60007fffffffff0000000000000000000000000000000000000000000000000000000082169050919050565b61165881611623565b811461166357600080fd5b50565b6000813590506116758161164f565b92915050565b60006020828403121561169157611690611619565b5b600061169f84828501611666565b91505092915050565b60008115159050919050565b6116bd816116a8565b82525050565b60006020820190506116d860008301846116b4565b92915050565b6000819050919050565b6116f1816116de565b82525050565b600060208201905061170c60008301846116e8565b92915050565b600073ffffffffffffffffffffffffffffffffffffffff82169050919050565b600061173d82611712565b9050919050565b61174d81611732565b811461175857600080fd5b50565b60008135905061176a81611744565b92915050565b611779816116de565b811461178457600080fd5b50565b60008135905061179681611770565b92915050565b600080fd5b600080fd5b6000601f19601f8301169050919050565b7f4e487b7100000000000000000000000000000000000000000000000000000000600052604160045260246000fd5b6117ef826117a6565b810181811067ffffffffffffffff8211171561180e5761180d6117b7565b5b80604052505050565b600061182161160f565b905061182d82826117e6565b919050565b600067ffffffffffffffff82111561184d5761184c6117b7565b5b611856826117a6565b9050602081019050919050565b82818337600083830152505050565b600061188561188084611832565b611817565b9050828152602081018484840111156118a1576118a06117a1565b5b6118ac848285611863565b509392505050565b600082601f8301126118c9576118c861179c565b5b81356118d9848260208601611872565b91505092915050565b600080600080608085870312156118fc576118fb611619565b5b600061190a8782880161175b565b945050602061191b8782880161175b565b935050604061192c87828801611787565b925050606085013567ffffffffffffffff81111561194d5761194c61161e565b5b611959878288016118b4565b91505092959194509250565b61196e81611623565b82525050565b60006020820190506119896000830184611965565b92915050565b600081519050919050565b600082825260208201905092915050565b60005b838110156119c95780820151818401526020810190506119ae565b838111156119d8576000848401525b50505050565b60006119e98261198f565b6119f3818561199a565b9350611a038185602086016119ab565b611a0c816117a6565b840191505092915050565b60006020820190508181036000830152611a3181846119de565b905092915050565b611a4281611732565b82525050565b6000602082019050611a5d6000830184611a39565b92915050565b6000611a6e82611712565b9050919050565b611a7e81611a63565b82525050565b6000602082019050611a996000830184611a75565b92915050565b6000819050919050565b6000611ac4611abf611aba84611712565b611a9f565b611712565b9050919050565b6000611ad682611aa9565b9050919050565b6000611ae882611acb565b9050919050565b611af881611add565b82525050565b6000602082019050611b136000830184611aef565b92915050565b600067ffffffffffffffff821115611b3457611b336117b7565b5b611b3d826117a6565b9050602081019050919050565b6000611b5d611b5884611b19565b611817565b905082815260208101848484011115611b7957611b786117a1565b5b611b848482856119ab565b509392505050565b600082601f830112611ba157611ba061179c565b5b8151611bb1848260208601611b4a565b91505092915050565b600060208284031215611bd057611bcf611619565b5b600082015167ffffffffffffffff811115611bee57611bed61161e565b5b611bfa84828501611b8c565b91505092915050565b7f41756374696f6e20686173206e6f7420656e646564206f72206265656e20636160008201527f6e63656c65640000000000000000000000000000000000000000000000000000602082015250565b6000611c5f60268361199a565b9150611c6a82611c03565b604082019050919050565b60006020820190508181036000830152611c8e81611c52565b9050919050565b7f4f776e65722068617320616c72656164792077697468647261776e0000000000600082015250565b6000611ccb601b8361199a565b9150611cd682611c95565b602082019050919050565b60006020820190508181036000830152611cfa81611cbe565b9050919050565b6000606082019050611d166000830186611a39565b611d236020830185611a39565b611d3060408301846116e8565b949350505050565b7f4d757374207761697420666f72206f776e657220746f20777468647261770000600082015250565b6000611d6e601e8361199a565b9150611d7982611d38565b602082019050919050565b60006020820190508181036000830152611d9d81611d61565b9050919050565b7f5769746864726177616c20616d6f756e7420666f72207468697320616464726560008201527f7373206973203000000000000000000000000000000000000000000000000000602082015250565b6000611e0060278361199a565b9150611e0b82611da4565b604082019050919050565b60006020820190508181036000830152611e2f81611df3565b9050919050565b7f4e487b7100000000000000000000000000000000000000000000000000000000600052601160045260246000fd5b6000611e70826116de565b9150611e7b836116de565b925082821015611e8e57611e8d611e36565b5b828203905092915050565b7f4f6e6c792061756374696f6e20636f6e7472616374206f776e65722063616e2060008201527f706572666f726d207468697320616374696f6e00000000000000000000000000602082015250565b6000611ef560338361199a565b9150611f0082611e99565b604082019050919050565b60006020820190508181036000830152611f2481611ee8565b9050919050565b7f4f776e657220686173206465706f7369746564204e4654000000000000000000600082015250565b6000611f6160178361199a565b9150611f6c82611f2b565b602082019050919050565b60006020820190508181036000830152611f9081611f54565b9050919050565b7f41756374696f6e2068617320656e646564000000000000000000000000000000600082015250565b6000611fcd60118361199a565b9150611fd882611f97565b602082019050919050565b60006020820190508181036000830152611ffc81611fc0565b9050919050565b7f41756374696f6e20686173206265656e2063616e63656c656400000000000000600082015250565b600061203960198361199a565b915061204482612003565b602082019050919050565b600060208201905081810360008301526120688161202c565b9050919050565b60008151905061207e81611744565b92915050565b60006020828403121561209a57612099611619565b5b60006120a88482850161206f565b91505092915050565b7f43616c6c6572206d757374206f776e20746865204e465420746f6b656e000000600082015250565b60006120e7601d8361199a565b91506120f2826120b1565b602082019050919050565b60006020820190508181036000830152612116816120da565b9050919050565b7f4d75737420617070726f766520636f6e7472616374206173206f70657261746f60008201527f7200000000000000000000000000000000000000000000000000000000000000602082015250565b600061217960218361199a565b91506121848261211d565b604082019050919050565b600060208201905081810360008301526121a88161216c565b9050919050565b7f41756374696f6e20636f6e7472616374206f776e65722063616e6e6f7420706560008201527f72666f726d207468697320616374696f6e000000000000000000000000000000602082015250565b600061220b60318361199a565b9150612216826121af565b604082019050919050565b6000602082019050818103600083015261223a816121fe565b9050919050565b7f41756374696f6e20686173206e6f742073746172746564000000000000000000600082015250565b600061227760178361199a565b915061228282612241565b602082019050919050565b600060208201905081810360008301526122a68161226a565b9050919050565b7f4f776e657220686173206e6f74206465706f7369746564204e46540000000000600082015250565b60006122e3601b8361199a565b91506122ee826122ad565b602082019050919050565b60006020820190508181036000830152612312816122d6565b9050919050565b7f42696473206d7573742062652067726561746572207468616e20300000000000600082015250565b600061234f601b8361199a565b915061235a82612319565b602082019050919050565b6000602082019050818103600083015261237e81612342565b9050919050565b6000612390826116de565b915061239b836116de565b9250827fffffffffffffffffffffffffffffffffffffffffffffffffffffffffffffffff038211156123d0576123cf611e36565b5b828201905092915050565b7f42696473206d7573742062652061626f7665207468652068696768657374206360008201527f757272656e742062696400000000000000000000000000000000000000000000602082015250565b6000612437602a8361199a565b9150612442826123db565b604082019050919050565b600060208201905081810360008301526124668161242a565b905091905056fea2646970667358221220cb06fd59def3fe3b37c9ce4c56f376af8ce9829d987aebc5f0128729ae709c1364736f6c634300080a0033a2646970667358221220eb87119669e4bfb8747dd44f0d345d1d79c0d603ab762024a0a7e8d4b3d2b04964736f6c634300080a0033",
  "immutableReferences": {},
  "source": "// SPDX-License-Identifier: GPL-3.0\r\n\r\nimport \"@openzeppelin/contracts/utils/introspection/ERC165.sol\";\r\nimport \"@openzeppelin/contracts/token/ERC721/ERC721.sol\";\r\nimport \"@openzeppelin/contracts/token/ERC721/utils/ERC721Holder.sol\";\r\nimport \"@openzeppelin/contracts/token/ERC721/IERC721Receiver.sol\";\r\nimport \"@openzeppelin/contracts/token/ERC721/IERC721.sol\";\r\n\r\npragma solidity ^0.8.1;\r\n\r\ncontract AuctionFactory {\r\n    event AuctionCreated(address indexed auctionContract, address indexed owner, uint numAuctions); \r\n\r\n    address[] public auctions;\r\n    address erc721Contract;\r\n\r\n    constructor(address _erc721Contract) {\r\n        erc721Contract = _erc721Contract;\r\n    }\r\n\r\n    function getAuctions() public view returns(address[] memory){\r\n        return auctions;\r\n    }\r\n\r\n     function createAuction(uint startBlock, uint endBlock, uint bidIncrement, uint tokenId) public {\r\n        Auction newAuction = new Auction(startBlock, endBlock, msg.sender, bidIncrement, erc721Contract, tokenId);\r\n        auctions.push(address(newAuction));\r\n\r\n        emit AuctionCreated(address(newAuction), msg.sender, auctions.length);\r\n    }\r\n\r\n    function getCurrentBlock() public view returns(uint){\r\n        return block.number;\r\n    }\r\n}\r\n\r\ncontract Auction is IERC721Receiver, ERC165, ERC721Holder {\r\n    uint public startBlock;\r\n    uint public endBlock;\r\n    address public owner;\r\n    uint public bidIncrement;\r\n    ERC721 public erc721Contract;\r\n    uint public tokenId;\r\n\r\n    // state\r\n    bool public canceled;\r\n    address payable public highestBidder;\r\n    mapping(address => uint256) fundsByBidder;\r\n    uint public highestBindingBid;\r\n    bool ownerHasWithdrawn;\r\n    bool ownerHasDeposited;\r\n\r\n    event LogBid(address indexed bidder, uint indexed bid, address indexed highestBidder, uint highestBindingBid);\r\n    event LogWithdrawal(address indexed withdrawer, address indexed withdrawalAccount, uint indexed amount);\r\n    event LogCanceled();\r\n    event LogDeposit();\r\n    event LogTransferOut(address indexed transferTo, uint indexed amount);\r\n\r\n    constructor(uint _startBlock, uint _endBlock, address _owner, uint _bidIncrement, address _erc721Contract, uint _tokenId) {\r\n        require(_startBlock < _endBlock, \"Start block must be less than the end block\");\r\n        require(_startBlock > block.number, \"Start block  must be greater than the current block\");\r\n\r\n        startBlock = _startBlock;\r\n        endBlock = _endBlock;\r\n        owner = _owner;\r\n        bidIncrement = _bidIncrement;\r\n        erc721Contract = ERC721(_erc721Contract);\r\n        tokenId = _tokenId;\r\n\r\n        require(erc721Contract.ownerOf(tokenId) == owner, \"Auction owner must own the NFT token\");\r\n    }\r\n\r\n    modifier onlyNotOwner {\r\n        require(msg.sender != owner, \"Auction contract owner cannot perform this action\");\r\n        _;\r\n    }\r\n\r\n    modifier onlyOwner {\r\n        require(msg.sender == owner, \"Only auction contract owner can perform this action\");\r\n        _;\r\n    }\r\n\r\n    modifier onlyAfterStart {\r\n        require(block.number >= startBlock, \"Auction has not started\");\r\n        _;\r\n    }\r\n\r\n    modifier onlyBeforeEnd {\r\n        require(block.number < endBlock, \"Auction has ended\");\r\n        _;\r\n    }\r\n\r\n    modifier onlyNotCanceled  {\r\n        require(!canceled, \"Auction has been canceled\");\r\n        _;\r\n    }\r\n\r\n    modifier onlyEndedOrCanceled {\r\n        require(block.number > endBlock && !canceled, \"Auction has not ended or been canceled\");\r\n        _;\r\n    }\r\n\r\n    modifier onlyDeposited {\r\n        require(ownerHasDeposited, \"Owner has not deposited NFT\");\r\n        _;\r\n    }\r\n\r\n    modifier onlyNotDeposited {\r\n        require(!ownerHasDeposited, \"Owner has deposited NFT\");\r\n        _;\r\n    }\r\n\r\n    function min(uint256 a, uint256 b) internal pure returns (uint256) {\r\n        return a < b ? a : b;\r\n    }\r\n\r\n    function deposit() public onlyOwner onlyNotDeposited onlyBeforeEnd onlyNotCanceled {\r\n        // Transfer ownership of NFT to contract\r\n        require(erc721Contract.ownerOf(tokenId) == msg.sender, \"Caller must own the NFT token\");\r\n        require(erc721Contract.getApproved(tokenId)  == address(this), \"Must approve contract as operator\");\r\n\r\n        erc721Contract.safeTransferFrom(msg.sender, address(this), tokenId);\r\n        ownerHasDeposited = true;\r\n        emit LogDeposit();\r\n    }\r\n    \r\n\r\n    function placeBid() public payable onlyNotOwner onlyAfterStart onlyBeforeEnd onlyNotCanceled onlyDeposited{\r\n        require(msg.value > 0, \"Bids must be greater than 0\");\r\n\r\n        uint newBid = fundsByBidder[msg.sender] + msg.value;\r\n        require(newBid > highestBindingBid, \"Bids must be above the highest current bid\");\r\n\r\n        // Increment the senders bid \r\n        fundsByBidder[msg.sender] += msg.value;\r\n\r\n        uint currentHighestBid = fundsByBidder[highestBidder];\r\n        if(currentHighestBid > newBid){\r\n            highestBindingBid = min(newBid + bidIncrement, currentHighestBid);\r\n        } else {\r\n            if (msg.sender != highestBidder) {\r\n                highestBidder = payable(msg.sender);\r\n                highestBindingBid = min(newBid, currentHighestBid + bidIncrement);\r\n            }\r\n\r\n            currentHighestBid = newBid;\r\n        }\r\n\r\n        emit LogBid(msg.sender, newBid, highestBidder, highestBindingBid);\r\n    }\r\n\r\n    function withdraw() public onlyEndedOrCanceled {\r\n        address payable withdrawalAccount;\r\n        uint withdrawalAmount;\r\n\r\n        if (canceled) {\r\n            // if the auction was canceled, everyone should simply be allowed to withdraw their funds\r\n            withdrawalAccount = payable(msg.sender);\r\n            withdrawalAmount = fundsByBidder[withdrawalAccount];\r\n        } else {\r\n            if(msg.sender == owner){\r\n                require(!ownerHasWithdrawn, \"Owner has already withdrawn\");\r\n                withdrawalAccount = highestBidder;\r\n                withdrawalAmount = highestBindingBid;\r\n\r\n                address transferTo = highestBidder;\r\n                if(highestBindingBid == 0) transferTo = owner;\r\n                erc721Contract.safeTransferFrom(address(this), transferTo, tokenId);\r\n                ownerHasWithdrawn = true;\r\n\r\n                emit LogTransferOut(transferTo, highestBindingBid);\r\n            } else {\r\n                if( msg.sender == highestBidder) require(ownerHasWithdrawn, \"Must wait for owner to wthdraw\");\r\n\r\n                withdrawalAccount = payable(msg.sender);\r\n                withdrawalAmount = fundsByBidder[msg.sender];\r\n            }\r\n        }\r\n\r\n        if(msg.sender != owner){\r\n            require(withdrawalAmount > 0, \"Withdrawal amount for this address is 0\");\r\n            withdrawalAccount.transfer(withdrawalAmount);\r\n            fundsByBidder[withdrawalAccount] -= withdrawalAmount;\r\n        }\r\n\r\n        emit LogWithdrawal(msg.sender, withdrawalAccount, withdrawalAmount);\r\n    }\r\n\r\n    function cancel() public onlyOwner onlyNotCanceled onlyBeforeEnd {\r\n        canceled = true;\r\n        if(ownerHasDeposited) erc721Contract.safeTransferFrom(address(this), owner, tokenId);\r\n\r\n        emit LogCanceled();\r\n    }\r\n\r\n    function tokenURI() public view returns (string memory){\r\n        return erc721Contract.tokenURI(tokenId);\r\n    }\r\n}",
  "sourcePath": "C:\\Users\\Charaka\\Desktop\\Coding\\Blockchain\\nft-auction\\contracts\\Auction.sol",
  "compiler": {
    "name": "solc",
    "version": "0.8.10+commit.fc410830.Emscripten.clang"
  },
  "schemaVersion": "3.4.4",
  "updatedAt": "2021-12-29T16:10:29.415Z",
  "devdoc": {
    "kind": "dev",
    "methods": {},
    "version": 1
  },
  "userdoc": {
    "kind": "user",
    "methods": {},
    "version": 1
  }
}