{
  "contractName": "Auction",
  "abi": [
    {
      "inputs": [
        {
          "internalType": "uint256",
          "name": "_startBlock",
          "type": "uint256"
        },
        {
          "internalType": "uint256",
          "name": "_endBlock",
          "type": "uint256"
        },
        {
          "internalType": "address",
          "name": "_owner",
          "type": "address"
        },
        {
          "internalType": "uint256",
          "name": "_bidIncrement",
          "type": "uint256"
        },
        {
          "internalType": "address",
          "name": "_erc721Contract",
          "type": "address"
        },
        {
          "internalType": "uint256",
          "name": "_tokenId",
          "type": "uint256"
        }
      ],
      "stateMutability": "nonpayable",
      "type": "constructor"
    },
    {
      "anonymous": false,
      "inputs": [
        {
          "indexed": true,
          "internalType": "address",
          "name": "bidder",
          "type": "address"
        },
        {
          "indexed": true,
          "internalType": "uint256",
          "name": "bid",
          "type": "uint256"
        },
        {
          "indexed": true,
          "internalType": "address",
          "name": "highestBidder",
          "type": "address"
        },
        {
          "indexed": false,
          "internalType": "uint256",
          "name": "highestBindingBid",
          "type": "uint256"
        }
      ],
      "name": "LogBid",
      "type": "event"
    },
    {
      "anonymous": false,
      "inputs": [],
      "name": "LogCanceled",
      "type": "event"
    },
    {
      "anonymous": false,
      "inputs": [],
      "name": "LogDeposit",
      "type": "event"
    },
    {
      "anonymous": false,
      "inputs": [
        {
          "indexed": true,
          "internalType": "address",
          "name": "transferTo",
          "type": "address"
        },
        {
          "indexed": true,
          "internalType": "uint256",
          "name": "amount",
          "type": "uint256"
        }
      ],
      "name": "LogTransferOut",
      "type": "event"
    },
    {
      "anonymous": false,
      "inputs": [
        {
          "indexed": true,
          "internalType": "address",
          "name": "withdrawer",
          "type": "address"
        },
        {
          "indexed": true,
          "internalType": "address",
          "name": "withdrawalAccount",
          "type": "address"
        },
        {
          "indexed": true,
          "internalType": "uint256",
          "name": "amount",
          "type": "uint256"
        }
      ],
      "name": "LogWithdrawal",
      "type": "event"
    },
    {
      "inputs": [],
      "name": "bidIncrement",
      "outputs": [
        {
          "internalType": "uint256",
          "name": "",
          "type": "uint256"
        }
      ],
      "stateMutability": "view",
      "type": "function"
    },
    {
      "inputs": [],
      "name": "canceled",
      "outputs": [
        {
          "internalType": "bool",
          "name": "",
          "type": "bool"
        }
      ],
      "stateMutability": "view",
      "type": "function"
    },
    {
      "inputs": [],
      "name": "endBlock",
      "outputs": [
        {
          "internalType": "uint256",
          "name": "",
          "type": "uint256"
        }
      ],
      "stateMutability": "view",
      "type": "function"
    },
    {
      "inputs": [],
      "name": "erc721Contract",
      "outputs": [
        {
          "internalType": "contract ERC721",
          "name": "",
          "type": "address"
        }
      ],
      "stateMutability": "view",
      "type": "function"
    },
    {
      "inputs": [],
      "name": "highestBidder",
      "outputs": [
        {
          "internalType": "address payable",
          "name": "",
          "type": "address"
        }
      ],
      "stateMutability": "view",
      "type": "function"
    },
    {
      "inputs": [],
      "name": "highestBindingBid",
      "outputs": [
        {
          "internalType": "uint256",
          "name": "",
          "type": "uint256"
        }
      ],
      "stateMutability": "view",
      "type": "function"
    },
    {
      "inputs": [
        {
          "internalType": "address",
          "name": "",
          "type": "address"
        },
        {
          "internalType": "address",
          "name": "",
          "type": "address"
        },
        {
          "internalType": "uint256",
          "name": "",
          "type": "uint256"
        },
        {
          "internalType": "bytes",
          "name": "",
          "type": "bytes"
        }
      ],
      "name": "onERC721Received",
      "outputs": [
        {
          "internalType": "bytes4",
          "name": "",
          "type": "bytes4"
        }
      ],
      "stateMutability": "nonpayable",
      "type": "function"
    },
    {
      "inputs": [],
      "name": "owner",
      "outputs": [
        {
          "internalType": "address",
          "name": "",
          "type": "address"
        }
      ],
      "stateMutability": "view",
      "type": "function"
    },
    {
      "inputs": [],
      "name": "ownerHasDeposited",
      "outputs": [
        {
          "internalType": "bool",
          "name": "",
          "type": "bool"
        }
      ],
      "stateMutability": "view",
      "type": "function"
    },
    {
      "inputs": [],
      "name": "startBlock",
      "outputs": [
        {
          "internalType": "uint256",
          "name": "",
          "type": "uint256"
        }
      ],
      "stateMutability": "view",
      "type": "function"
    },
    {
      "inputs": [
        {
          "internalType": "bytes4",
          "name": "interfaceId",
          "type": "bytes4"
        }
      ],
      "name": "supportsInterface",
      "outputs": [
        {
          "internalType": "bool",
          "name": "",
          "type": "bool"
        }
      ],
      "stateMutability": "view",
      "type": "function"
    },
    {
      "inputs": [],
      "name": "tokenId",
      "outputs": [
        {
          "internalType": "uint256",
          "name": "",
          "type": "uint256"
        }
      ],
      "stateMutability": "view",
      "type": "function"
    },
    {
      "inputs": [],
      "name": "deposit",
      "outputs": [],
      "stateMutability": "nonpayable",
      "type": "function"
    },
    {
      "inputs": [],
      "name": "placeBid",
      "outputs": [],
      "stateMutability": "payable",
      "type": "function"
    },
    {
      "inputs": [],
      "name": "withdraw",
      "outputs": [],
      "stateMutability": "nonpayable",
      "type": "function"
    },
    {
      "inputs": [],
      "name": "cancel",
      "outputs": [],
      "stateMutability": "nonpayable",
      "type": "function"
    },
    {
      "inputs": [],
      "name": "tokenURI",
      "outputs": [
        {
          "internalType": "string",
          "name": "",
          "type": "string"
        }
      ],
      "stateMutability": "view",
      "type": "function"
    }
  ],
  "bytecode": "0x60806040523480156200001157600080fd5b5060405162002b6538038062002b65833981810160405281019062000037919062000345565b8486106200007c576040517f08c379a0000000000000000000000000000000000000000000000000000000008152600401620000739062000468565b60405180910390fd5b438611620000c1576040517f08c379a0000000000000000000000000000000000000000000000000000000008152600401620000b89062000500565b60405180910390fd5b856000819055508460018190555083600260006101000a81548173ffffffffffffffffffffffffffffffffffffffff021916908373ffffffffffffffffffffffffffffffffffffffff1602179055508260038190555081600460006101000a81548173ffffffffffffffffffffffffffffffffffffffff021916908373ffffffffffffffffffffffffffffffffffffffff16021790555080600581905550600260009054906101000a900473ffffffffffffffffffffffffffffffffffffffff1673ffffffffffffffffffffffffffffffffffffffff16600460009054906101000a900473ffffffffffffffffffffffffffffffffffffffff1673ffffffffffffffffffffffffffffffffffffffff16636352211e6005546040518263ffffffff1660e01b8152600401620001f7919062000533565b602060405180830381865afa15801562000215573d6000803e3d6000fd5b505050506040513d601f19601f820116820180604052508101906200023b919062000550565b73ffffffffffffffffffffffffffffffffffffffff161462000294576040517f08c379a00000000000000000000000000000000000000000000000000000000081526004016200028b90620005f8565b60405180910390fd5b5050505050506200061a565b600080fd5b6000819050919050565b620002ba81620002a5565b8114620002c657600080fd5b50565b600081519050620002da81620002af565b92915050565b600073ffffffffffffffffffffffffffffffffffffffff82169050919050565b60006200030d82620002e0565b9050919050565b6200031f8162000300565b81146200032b57600080fd5b50565b6000815190506200033f8162000314565b92915050565b60008060008060008060c08789031215620003655762000364620002a0565b5b60006200037589828a01620002c9565b96505060206200038889828a01620002c9565b95505060406200039b89828a016200032e565b9450506060620003ae89828a01620002c9565b9350506080620003c189828a016200032e565b92505060a0620003d489828a01620002c9565b9150509295509295509295565b600082825260208201905092915050565b7f537461727420626c6f636b206d757374206265206c657373207468616e20746860008201527f6520656e6420626c6f636b000000000000000000000000000000000000000000602082015250565b600062000450602b83620003e1565b91506200045d82620003f2565b604082019050919050565b60006020820190508181036000830152620004838162000441565b9050919050565b7f537461727420626c6f636b20206d75737420626520677265617465722074686160008201527f6e207468652063757272656e7420626c6f636b00000000000000000000000000602082015250565b6000620004e8603383620003e1565b9150620004f5826200048a565b604082019050919050565b600060208201905081810360008301526200051b81620004d9565b9050919050565b6200052d81620002a5565b82525050565b60006020820190506200054a600083018462000522565b92915050565b600060208284031215620005695762000568620002a0565b5b600062000579848285016200032e565b91505092915050565b7f41756374696f6e206f776e6572206d757374206f776e20746865204e4654207460008201527f6f6b656e00000000000000000000000000000000000000000000000000000000602082015250565b6000620005e0602483620003e1565b9150620005ed8262000582565b604082019050919050565b600060208201905081810360008301526200061381620005d1565b9050919050565b61253b806200062a6000396000f3fe6080604052600436106100fe5760003560e01c8063736a6f2111610095578063d0e30db011610064578063d0e30db014610317578063d7c97fb41461032e578063ea8a1af014610359578063ecfc7ecc14610370578063f5b56c561461037a576100fe565b8063736a6f211461026b5780638da5cb5b1461029657806391f90157146102c1578063b3cc167a146102ec576100fe565b80633c130d90116100d15780633c130d90146101d35780633ccfd60b146101fe5780633f9942ff1461021557806348cd4cb114610240576100fe565b806301ffc9a714610103578063083c632314610140578063150b7a021461016b57806317d70f7c146101a8575b600080fd5b34801561010f57600080fd5b5061012a60048036038101906101259190611713565b6103a5565b604051610137919061175b565b60405180910390f35b34801561014c57600080fd5b5061015561040f565b604051610162919061178f565b60405180910390f35b34801561017757600080fd5b50610192600480360381019061018d919061197a565b610415565b60405161019f9190611a0c565b60405180910390f35b3480156101b457600080fd5b506101bd610429565b6040516101ca919061178f565b60405180910390f35b3480156101df57600080fd5b506101e861042f565b6040516101f59190611aaf565b60405180910390f35b34801561020a57600080fd5b50610213610528565b005b34801561022157600080fd5b5061022a610a8b565b604051610237919061175b565b60405180910390f35b34801561024c57600080fd5b50610255610a9e565b604051610262919061178f565b60405180910390f35b34801561027757600080fd5b50610280610aa4565b60405161028d919061175b565b60405180910390f35b3480156102a257600080fd5b506102ab610ab7565b6040516102b89190611ae0565b60405180910390f35b3480156102cd57600080fd5b506102d6610add565b6040516102e39190611b1c565b60405180910390f35b3480156102f857600080fd5b50610301610b03565b60405161030e919061178f565b60405180910390f35b34801561032357600080fd5b5061032c610b09565b005b34801561033a57600080fd5b50610343610f6f565b6040516103509190611b96565b60405180910390f35b34801561036557600080fd5b5061036e610f95565b005b6103786111cd565b005b34801561038657600080fd5b5061038f611688565b60405161039c919061178f565b60405180910390f35b60007f01ffc9a7000000000000000000000000000000000000000000000000000000007bffffffffffffffffffffffffffffffffffffffffffffffffffffffff1916827bffffffffffffffffffffffffffffffffffffffffffffffffffffffff1916149050919050565b60015481565b600063150b7a0260e01b9050949350505050565b60055481565b6060600660019054906101000a900460ff16610480576040517f08c379a000000000000000000000000000000000000000000000000000000000815260040161047790611bfd565b60405180910390fd5b600460009054906101000a900473ffffffffffffffffffffffffffffffffffffffff1673ffffffffffffffffffffffffffffffffffffffff1663c87b56dd6005546040518263ffffffff1660e01b81526004016104dd919061178f565b600060405180830381865afa1580156104fa573d6000803e3d6000fd5b505050506040513d6000823e3d601f19601f820116820180604052508101906105239190611cbe565b905090565b600154431180156105465750600660009054906101000a900460ff16155b610585576040517f08c379a000000000000000000000000000000000000000000000000000000000815260040161057c90611d79565b60405180910390fd5b600080600660009054906101000a900460ff16156105e757339150600760008373ffffffffffffffffffffffffffffffffffffffff1673ffffffffffffffffffffffffffffffffffffffff1681526020019081526020016000205490506108f6565b600260009054906101000a900473ffffffffffffffffffffffffffffffffffffffff1673ffffffffffffffffffffffffffffffffffffffff163373ffffffffffffffffffffffffffffffffffffffff16141561080957600960009054906101000a900460ff161561068d576040517f08c379a000000000000000000000000000000000000000000000000000000000815260040161068490611de5565b60405180910390fd5b600660029054906101000a900473ffffffffffffffffffffffffffffffffffffffff16915060085490506000600660029054906101000a900473ffffffffffffffffffffffffffffffffffffffff1690506000600854141561070f57600260009054906101000a900473ffffffffffffffffffffffffffffffffffffffff1690505b600460009054906101000a900473ffffffffffffffffffffffffffffffffffffffff1673ffffffffffffffffffffffffffffffffffffffff166342842e0e30836005546040518463ffffffff1660e01b815260040161077093929190611e05565b600060405180830381600087803b15801561078a57600080fd5b505af115801561079e573d6000803e3d6000fd5b505050506001600960006101000a81548160ff0219169083151502179055506008548173ffffffffffffffffffffffffffffffffffffffff167f44e2ab5a6cfe856e15b49f53aec49ff1d9d164735554befaac76ac4dec58af9360405160405180910390a3506108f5565b600660029054906101000a900473ffffffffffffffffffffffffffffffffffffffff1673ffffffffffffffffffffffffffffffffffffffff163373ffffffffffffffffffffffffffffffffffffffff1614156108af57600960009054906101000a900460ff166108ae576040517f08c379a00000000000000000000000000000000000000000000000000000000081526004016108a590611e88565b60405180910390fd5b5b339150600760003373ffffffffffffffffffffffffffffffffffffffff1673ffffffffffffffffffffffffffffffffffffffff1681526020019081526020016000205490505b5b600260009054906101000a900473ffffffffffffffffffffffffffffffffffffffff1673ffffffffffffffffffffffffffffffffffffffff163373ffffffffffffffffffffffffffffffffffffffff1614610a2c576000811161098e576040517f08c379a000000000000000000000000000000000000000000000000000000000815260040161098590611f1a565b60405180910390fd5b8173ffffffffffffffffffffffffffffffffffffffff166108fc829081150290604051600060405180830381858888f193505050501580156109d4573d6000803e3d6000fd5b5080600760008473ffffffffffffffffffffffffffffffffffffffff1673ffffffffffffffffffffffffffffffffffffffff1681526020019081526020016000206000828254610a249190611f69565b925050819055505b808273ffffffffffffffffffffffffffffffffffffffff163373ffffffffffffffffffffffffffffffffffffffff167f0ec497a8ae5b1ba29c60470ef651def995fac3deebbdcc56c47a4e5f51a4c2bd60405160405180910390a45050565b600660009054906101000a900460ff1681565b60005481565b600660019054906101000a900460ff1681565b600260009054906101000a900473ffffffffffffffffffffffffffffffffffffffff1681565b600660029054906101000a900473ffffffffffffffffffffffffffffffffffffffff1681565b60035481565b600260009054906101000a900473ffffffffffffffffffffffffffffffffffffffff1673ffffffffffffffffffffffffffffffffffffffff163373ffffffffffffffffffffffffffffffffffffffff1614610b99576040517f08c379a0000000000000000000000000000000000000000000000000000000008152600401610b909061200f565b60405180910390fd5b600660019054906101000a900460ff1615610be9576040517f08c379a0000000000000000000000000000000000000000000000000000000008152600401610be09061207b565b60405180910390fd5b6001544310610c2d576040517f08c379a0000000000000000000000000000000000000000000000000000000008152600401610c24906120e7565b60405180910390fd5b600660009054906101000a900460ff1615610c7d576040517f08c379a0000000000000000000000000000000000000000000000000000000008152600401610c7490612153565b60405180910390fd5b3373ffffffffffffffffffffffffffffffffffffffff16600460009054906101000a900473ffffffffffffffffffffffffffffffffffffffff1673ffffffffffffffffffffffffffffffffffffffff16636352211e6005546040518263ffffffff1660e01b8152600401610cf1919061178f565b602060405180830381865afa158015610d0e573d6000803e3d6000fd5b505050506040513d601f19601f82011682018060405250810190610d329190612188565b73ffffffffffffffffffffffffffffffffffffffff1614610d88576040517f08c379a0000000000000000000000000000000000000000000000000000000008152600401610d7f90612201565b60405180910390fd5b3073ffffffffffffffffffffffffffffffffffffffff16600460009054906101000a900473ffffffffffffffffffffffffffffffffffffffff1673ffffffffffffffffffffffffffffffffffffffff1663081812fc6005546040518263ffffffff1660e01b8152600401610dfc919061178f565b602060405180830381865afa158015610e19573d6000803e3d6000fd5b505050506040513d601f19601f82011682018060405250810190610e3d9190612188565b73ffffffffffffffffffffffffffffffffffffffff1614610e93576040517f08c379a0000000000000000000000000000000000000000000000000000000008152600401610e8a90612293565b60405180910390fd5b600460009054906101000a900473ffffffffffffffffffffffffffffffffffffffff1673ffffffffffffffffffffffffffffffffffffffff166342842e0e33306005546040518463ffffffff1660e01b8152600401610ef493929190611e05565b600060405180830381600087803b158015610f0e57600080fd5b505af1158015610f22573d6000803e3d6000fd5b505050506001600660016101000a81548160ff0219169083151502179055507f7d028f71c44fd2783fa661fccc192a95842aca39ca316d65d210bb5fac059a4960405160405180910390a1565b600460009054906101000a900473ffffffffffffffffffffffffffffffffffffffff1681565b600260009054906101000a900473ffffffffffffffffffffffffffffffffffffffff1673ffffffffffffffffffffffffffffffffffffffff163373ffffffffffffffffffffffffffffffffffffffff1614611025576040517f08c379a000000000000000000000000000000000000000000000000000000000815260040161101c9061200f565b60405180910390fd5b600660009054906101000a900460ff1615611075576040517f08c379a000000000000000000000000000000000000000000000000000000000815260040161106c90612153565b60405180910390fd5b60015443106110b9576040517f08c379a00000000000000000000000000000000000000000000000000000000081526004016110b0906120e7565b60405180910390fd5b6001600660006101000a81548160ff021916908315150217905550600660019054906101000a900460ff161561119f57600460009054906101000a900473ffffffffffffffffffffffffffffffffffffffff1673ffffffffffffffffffffffffffffffffffffffff166342842e0e30600260009054906101000a900473ffffffffffffffffffffffffffffffffffffffff166005546040518463ffffffff1660e01b815260040161116c93929190611e05565b600060405180830381600087803b15801561118657600080fd5b505af115801561119a573d6000803e3d6000fd5b505050505b7f462b6ca7f632601af1295aeb320851f50e8e630a309173f23535845ea4bfb3b960405160405180910390a1565b600260009054906101000a900473ffffffffffffffffffffffffffffffffffffffff1673ffffffffffffffffffffffffffffffffffffffff163373ffffffffffffffffffffffffffffffffffffffff16141561125e576040517f08c379a000000000000000000000000000000000000000000000000000000000815260040161125590612325565b60405180910390fd5b6000544310156112a3576040517f08c379a000000000000000000000000000000000000000000000000000000000815260040161129a90612391565b60405180910390fd5b60015443106112e7576040517f08c379a00000000000000000000000000000000000000000000000000000000081526004016112de906120e7565b60405180910390fd5b600660009054906101000a900460ff1615611337576040517f08c379a000000000000000000000000000000000000000000000000000000000815260040161132e90612153565b60405180910390fd5b600660019054906101000a900460ff16611386576040517f08c379a000000000000000000000000000000000000000000000000000000000815260040161137d90611bfd565b60405180910390fd5b600034116113c9576040517f08c379a00000000000000000000000000000000000000000000000000000000081526004016113c0906123fd565b60405180910390fd5b600034600760003373ffffffffffffffffffffffffffffffffffffffff1673ffffffffffffffffffffffffffffffffffffffff16815260200190815260200160002054611416919061241d565b9050600854811161145c576040517f08c379a0000000000000000000000000000000000000000000000000000000008152600401611453906124e5565b60405180910390fd5b34600760003373ffffffffffffffffffffffffffffffffffffffff1673ffffffffffffffffffffffffffffffffffffffff16815260200190815260200160002060008282546114ab919061241d565b92505081905550600060076000600660029054906101000a900473ffffffffffffffffffffffffffffffffffffffff1673ffffffffffffffffffffffffffffffffffffffff1673ffffffffffffffffffffffffffffffffffffffff168152602001908152602001600020549050818111156115425761153760035483611531919061241d565b8261168e565b6008819055506115fa565b600660029054906101000a900473ffffffffffffffffffffffffffffffffffffffff1673ffffffffffffffffffffffffffffffffffffffff163373ffffffffffffffffffffffffffffffffffffffff16146115f65733600660026101000a81548173ffffffffffffffffffffffffffffffffffffffff021916908373ffffffffffffffffffffffffffffffffffffffff1602179055506115ef82600354836115ea919061241d565b61168e565b6008819055505b8190505b600660029054906101000a900473ffffffffffffffffffffffffffffffffffffffff1673ffffffffffffffffffffffffffffffffffffffff16823373ffffffffffffffffffffffffffffffffffffffff167f49e60d8d833f1250f6ede154509b047fe77c1eae57655e8176675b5f91af7b0a60085460405161167c919061178f565b60405180910390a45050565b60085481565b600081831061169d578161169f565b825b905092915050565b6000604051905090565b600080fd5b600080fd5b60007fffffffff0000000000000000000000000000000000000000000000000000000082169050919050565b6116f0816116bb565b81146116fb57600080fd5b50565b60008135905061170d816116e7565b92915050565b600060208284031215611729576117286116b1565b5b6000611737848285016116fe565b91505092915050565b60008115159050919050565b61175581611740565b82525050565b6000602082019050611770600083018461174c565b92915050565b6000819050919050565b61178981611776565b82525050565b60006020820190506117a46000830184611780565b92915050565b600073ffffffffffffffffffffffffffffffffffffffff82169050919050565b60006117d5826117aa565b9050919050565b6117e5816117ca565b81146117f057600080fd5b50565b600081359050611802816117dc565b92915050565b61181181611776565b811461181c57600080fd5b50565b60008135905061182e81611808565b92915050565b600080fd5b600080fd5b6000601f19601f8301169050919050565b7f4e487b7100000000000000000000000000000000000000000000000000000000600052604160045260246000fd5b6118878261183e565b810181811067ffffffffffffffff821117156118a6576118a561184f565b5b80604052505050565b60006118b96116a7565b90506118c5828261187e565b919050565b600067ffffffffffffffff8211156118e5576118e461184f565b5b6118ee8261183e565b9050602081019050919050565b82818337600083830152505050565b600061191d611918846118ca565b6118af565b90508281526020810184848401111561193957611938611839565b5b6119448482856118fb565b509392505050565b600082601f83011261196157611960611834565b5b813561197184826020860161190a565b91505092915050565b60008060008060808587031215611994576119936116b1565b5b60006119a2878288016117f3565b94505060206119b3878288016117f3565b93505060406119c48782880161181f565b925050606085013567ffffffffffffffff8111156119e5576119e46116b6565b5b6119f18782880161194c565b91505092959194509250565b611a06816116bb565b82525050565b6000602082019050611a2160008301846119fd565b92915050565b600081519050919050565b600082825260208201905092915050565b60005b83811015611a61578082015181840152602081019050611a46565b83811115611a70576000848401525b50505050565b6000611a8182611a27565b611a8b8185611a32565b9350611a9b818560208601611a43565b611aa48161183e565b840191505092915050565b60006020820190508181036000830152611ac98184611a76565b905092915050565b611ada816117ca565b82525050565b6000602082019050611af56000830184611ad1565b92915050565b6000611b06826117aa565b9050919050565b611b1681611afb565b82525050565b6000602082019050611b316000830184611b0d565b92915050565b6000819050919050565b6000611b5c611b57611b52846117aa565b611b37565b6117aa565b9050919050565b6000611b6e82611b41565b9050919050565b6000611b8082611b63565b9050919050565b611b9081611b75565b82525050565b6000602082019050611bab6000830184611b87565b92915050565b7f4f776e657220686173206e6f74206465706f7369746564204e46540000000000600082015250565b6000611be7601b83611a32565b9150611bf282611bb1565b602082019050919050565b60006020820190508181036000830152611c1681611bda565b9050919050565b600067ffffffffffffffff821115611c3857611c3761184f565b5b611c418261183e565b9050602081019050919050565b6000611c61611c5c84611c1d565b6118af565b905082815260208101848484011115611c7d57611c7c611839565b5b611c88848285611a43565b509392505050565b600082601f830112611ca557611ca4611834565b5b8151611cb5848260208601611c4e565b91505092915050565b600060208284031215611cd457611cd36116b1565b5b600082015167ffffffffffffffff811115611cf257611cf16116b6565b5b611cfe84828501611c90565b91505092915050565b7f41756374696f6e20686173206e6f7420656e646564206f72206265656e20636160008201527f6e63656c65640000000000000000000000000000000000000000000000000000602082015250565b6000611d63602683611a32565b9150611d6e82611d07565b604082019050919050565b60006020820190508181036000830152611d9281611d56565b9050919050565b7f4f776e65722068617320616c72656164792077697468647261776e0000000000600082015250565b6000611dcf601b83611a32565b9150611dda82611d99565b602082019050919050565b60006020820190508181036000830152611dfe81611dc2565b9050919050565b6000606082019050611e1a6000830186611ad1565b611e276020830185611ad1565b611e346040830184611780565b949350505050565b7f4d757374207761697420666f72206f776e657220746f20777468647261770000600082015250565b6000611e72601e83611a32565b9150611e7d82611e3c565b602082019050919050565b60006020820190508181036000830152611ea181611e65565b9050919050565b7f5769746864726177616c20616d6f756e7420666f72207468697320616464726560008201527f7373206973203000000000000000000000000000000000000000000000000000602082015250565b6000611f04602783611a32565b9150611f0f82611ea8565b604082019050919050565b60006020820190508181036000830152611f3381611ef7565b9050919050565b7f4e487b7100000000000000000000000000000000000000000000000000000000600052601160045260246000fd5b6000611f7482611776565b9150611f7f83611776565b925082821015611f9257611f91611f3a565b5b828203905092915050565b7f4f6e6c792061756374696f6e20636f6e7472616374206f776e65722063616e2060008201527f706572666f726d207468697320616374696f6e00000000000000000000000000602082015250565b6000611ff9603383611a32565b915061200482611f9d565b604082019050919050565b6000602082019050818103600083015261202881611fec565b9050919050565b7f4f776e657220686173206465706f7369746564204e4654000000000000000000600082015250565b6000612065601783611a32565b91506120708261202f565b602082019050919050565b6000602082019050818103600083015261209481612058565b9050919050565b7f41756374696f6e2068617320656e646564000000000000000000000000000000600082015250565b60006120d1601183611a32565b91506120dc8261209b565b602082019050919050565b60006020820190508181036000830152612100816120c4565b9050919050565b7f41756374696f6e20686173206265656e2063616e63656c656400000000000000600082015250565b600061213d601983611a32565b915061214882612107565b602082019050919050565b6000602082019050818103600083015261216c81612130565b9050919050565b600081519050612182816117dc565b92915050565b60006020828403121561219e5761219d6116b1565b5b60006121ac84828501612173565b91505092915050565b7f43616c6c6572206d757374206f776e20746865204e465420746f6b656e000000600082015250565b60006121eb601d83611a32565b91506121f6826121b5565b602082019050919050565b6000602082019050818103600083015261221a816121de565b9050919050565b7f4d75737420617070726f766520636f6e7472616374206173206f70657261746f60008201527f7200000000000000000000000000000000000000000000000000000000000000602082015250565b600061227d602183611a32565b915061228882612221565b604082019050919050565b600060208201905081810360008301526122ac81612270565b9050919050565b7f41756374696f6e20636f6e7472616374206f776e65722063616e6e6f7420706560008201527f72666f726d207468697320616374696f6e000000000000000000000000000000602082015250565b600061230f603183611a32565b915061231a826122b3565b604082019050919050565b6000602082019050818103600083015261233e81612302565b9050919050565b7f41756374696f6e20686173206e6f742073746172746564000000000000000000600082015250565b600061237b601783611a32565b915061238682612345565b602082019050919050565b600060208201905081810360008301526123aa8161236e565b9050919050565b7f42696473206d7573742062652067726561746572207468616e20300000000000600082015250565b60006123e7601b83611a32565b91506123f2826123b1565b602082019050919050565b60006020820190508181036000830152612416816123da565b9050919050565b600061242882611776565b915061243383611776565b9250827fffffffffffffffffffffffffffffffffffffffffffffffffffffffffffffffff0382111561246857612467611f3a565b5b828201905092915050565b7f42696473206d7573742062652061626f7665207468652068696768657374206360008201527f757272656e742062696400000000000000000000000000000000000000000000602082015250565b60006124cf602a83611a32565b91506124da82612473565b604082019050919050565b600060208201905081810360008301526124fe816124c2565b905091905056fea2646970667358221220c76b95870bb83ef35d17231ed60d34c6856b7069f04ccba4df8d702e38699fe864736f6c634300080a0033",
  "immutableReferences": {},
  "source": "// SPDX-License-Identifier: GPL-3.0\r\n\r\nimport \"@openzeppelin/contracts/utils/introspection/ERC165.sol\";\r\nimport \"@openzeppelin/contracts/token/ERC721/ERC721.sol\";\r\nimport \"@openzeppelin/contracts/token/ERC721/utils/ERC721Holder.sol\";\r\nimport \"@openzeppelin/contracts/token/ERC721/IERC721Receiver.sol\";\r\nimport \"@openzeppelin/contracts/token/ERC721/IERC721.sol\";\r\n\r\npragma solidity ^0.8.1;\r\n\r\ncontract AuctionFactory {\r\n    event AuctionCreated(address indexed auctionContract, address indexed owner, uint numAuctions); \r\n\r\n    address[] public auctions;\r\n    address erc721Contract;\r\n\r\n    constructor(address _erc721Contract) {\r\n        erc721Contract = _erc721Contract;\r\n    }\r\n\r\n    function getAuctions() public view returns(address[] memory){\r\n        return auctions;\r\n    }\r\n\r\n     function createAuction(uint startBlock, uint endBlock, uint bidIncrement, uint tokenId) public {\r\n        Auction newAuction = new Auction(startBlock, endBlock, msg.sender, bidIncrement, erc721Contract, tokenId);\r\n        auctions.push(address(newAuction));\r\n\r\n        emit AuctionCreated(address(newAuction), msg.sender, auctions.length);\r\n    }\r\n\r\n    function getCurrentBlock() public view returns(uint){\r\n        return block.number;\r\n    }\r\n}\r\n\r\ncontract Auction is IERC721Receiver, ERC165, ERC721Holder {\r\n    uint public startBlock;\r\n    uint public endBlock;\r\n    address public owner;\r\n    uint public bidIncrement;\r\n    ERC721 public erc721Contract;\r\n    uint public tokenId;\r\n\r\n    // state\r\n    bool public canceled;\r\n    bool public ownerHasDeposited;\r\n    address payable public highestBidder;\r\n    mapping(address => uint256) fundsByBidder;\r\n    uint public highestBindingBid;\r\n    bool ownerHasWithdrawn;\r\n\r\n    event LogBid(address indexed bidder, uint indexed bid, address indexed highestBidder, uint highestBindingBid);\r\n    event LogWithdrawal(address indexed withdrawer, address indexed withdrawalAccount, uint indexed amount);\r\n    event LogCanceled();\r\n    event LogDeposit();\r\n    event LogTransferOut(address indexed transferTo, uint indexed amount);\r\n\r\n    constructor(uint _startBlock, uint _endBlock, address _owner, uint _bidIncrement, address _erc721Contract, uint _tokenId) {\r\n        require(_startBlock < _endBlock, \"Start block must be less than the end block\");\r\n        require(_startBlock > block.number, \"Start block  must be greater than the current block\");\r\n\r\n        startBlock = _startBlock;\r\n        endBlock = _endBlock;\r\n        owner = _owner;\r\n        bidIncrement = _bidIncrement;\r\n        erc721Contract = ERC721(_erc721Contract);\r\n        tokenId = _tokenId;\r\n\r\n        require(erc721Contract.ownerOf(tokenId) == owner, \"Auction owner must own the NFT token\");\r\n    }\r\n\r\n    modifier onlyNotOwner {\r\n        require(msg.sender != owner, \"Auction contract owner cannot perform this action\");\r\n        _;\r\n    }\r\n\r\n    modifier onlyOwner {\r\n        require(msg.sender == owner, \"Only auction contract owner can perform this action\");\r\n        _;\r\n    }\r\n\r\n    modifier onlyAfterStart {\r\n        require(block.number >= startBlock, \"Auction has not started\");\r\n        _;\r\n    }\r\n\r\n    modifier onlyBeforeEnd {\r\n        require(block.number < endBlock, \"Auction has ended\");\r\n        _;\r\n    }\r\n\r\n    modifier onlyNotCanceled  {\r\n        require(!canceled, \"Auction has been canceled\");\r\n        _;\r\n    }\r\n\r\n    modifier onlyEndedOrCanceled {\r\n        require(block.number > endBlock && !canceled, \"Auction has not ended or been canceled\");\r\n        _;\r\n    }\r\n\r\n    modifier onlyDeposited {\r\n        require(ownerHasDeposited, \"Owner has not deposited NFT\");\r\n        _;\r\n    }\r\n\r\n    modifier onlyNotDeposited {\r\n        require(!ownerHasDeposited, \"Owner has deposited NFT\");\r\n        _;\r\n    }\r\n\r\n    function min(uint256 a, uint256 b) internal pure returns (uint256) {\r\n        return a < b ? a : b;\r\n    }\r\n\r\n    function deposit() public onlyOwner onlyNotDeposited onlyBeforeEnd onlyNotCanceled {\r\n        // Transfer ownership of NFT to contract\r\n        require(erc721Contract.ownerOf(tokenId) == msg.sender, \"Caller must own the NFT token\");\r\n        require(erc721Contract.getApproved(tokenId)  == address(this), \"Must approve contract as operator\");\r\n\r\n        erc721Contract.safeTransferFrom(msg.sender, address(this), tokenId);\r\n        ownerHasDeposited = true;\r\n        emit LogDeposit();\r\n    }\r\n    \r\n\r\n    function placeBid() public payable onlyNotOwner onlyAfterStart onlyBeforeEnd onlyNotCanceled onlyDeposited{\r\n        require(msg.value > 0, \"Bids must be greater than 0\");\r\n\r\n        uint newBid = fundsByBidder[msg.sender] + msg.value;\r\n        require(newBid > highestBindingBid, \"Bids must be above the highest current bid\");\r\n\r\n        // Increment the senders bid \r\n        fundsByBidder[msg.sender] += msg.value;\r\n\r\n        uint currentHighestBid = fundsByBidder[highestBidder];\r\n        if(currentHighestBid > newBid){\r\n            highestBindingBid = min(newBid + bidIncrement, currentHighestBid);\r\n        } else {\r\n            if (msg.sender != highestBidder) {\r\n                highestBidder = payable(msg.sender);\r\n                highestBindingBid = min(newBid, currentHighestBid + bidIncrement);\r\n            }\r\n\r\n            currentHighestBid = newBid;\r\n        }\r\n\r\n        emit LogBid(msg.sender, newBid, highestBidder, highestBindingBid);\r\n    }\r\n\r\n    function withdraw() public onlyEndedOrCanceled {\r\n        address payable withdrawalAccount;\r\n        uint withdrawalAmount;\r\n\r\n        if (canceled) {\r\n            // if the auction was canceled, everyone should simply be allowed to withdraw their funds\r\n            withdrawalAccount = payable(msg.sender);\r\n            withdrawalAmount = fundsByBidder[withdrawalAccount];\r\n        } else {\r\n            if(msg.sender == owner){\r\n                require(!ownerHasWithdrawn, \"Owner has already withdrawn\");\r\n                withdrawalAccount = highestBidder;\r\n                withdrawalAmount = highestBindingBid;\r\n\r\n                address transferTo = highestBidder;\r\n                if(highestBindingBid == 0) transferTo = owner;\r\n                erc721Contract.safeTransferFrom(address(this), transferTo, tokenId);\r\n                ownerHasWithdrawn = true;\r\n\r\n                emit LogTransferOut(transferTo, highestBindingBid);\r\n            } else {\r\n                if( msg.sender == highestBidder) require(ownerHasWithdrawn, \"Must wait for owner to wthdraw\");\r\n\r\n                withdrawalAccount = payable(msg.sender);\r\n                withdrawalAmount = fundsByBidder[msg.sender];\r\n            }\r\n        }\r\n\r\n        if(msg.sender != owner){\r\n            require(withdrawalAmount > 0, \"Withdrawal amount for this address is 0\");\r\n            withdrawalAccount.transfer(withdrawalAmount);\r\n            fundsByBidder[withdrawalAccount] -= withdrawalAmount;\r\n        }\r\n\r\n        emit LogWithdrawal(msg.sender, withdrawalAccount, withdrawalAmount);\r\n    }\r\n\r\n    function cancel() public onlyOwner onlyNotCanceled onlyBeforeEnd {\r\n        canceled = true;\r\n        if(ownerHasDeposited) erc721Contract.safeTransferFrom(address(this), owner, tokenId);\r\n\r\n        emit LogCanceled();\r\n    }\r\n\r\n    function tokenURI() public onlyDeposited view returns (string memory) {\r\n        return erc721Contract.tokenURI(tokenId);\r\n    }\r\n}",
  "sourcePath": "C:\\Users\\Charaka\\Desktop\\Coding\\Blockchain\\nft-auction\\contracts\\Auction.sol",
  "compiler": {
    "name": "solc",
    "version": "0.8.10+commit.fc410830.Emscripten.clang"
  },
  "schemaVersion": "3.4.4",
  "updatedAt": "2021-12-31T04:08:33.896Z",
  "devdoc": {
    "kind": "dev",
    "methods": {
      "onERC721Received(address,address,uint256,bytes)": {
        "details": "See {IERC721Receiver-onERC721Received}. Always returns `IERC721Receiver.onERC721Received.selector`."
      },
      "supportsInterface(bytes4)": {
        "details": "See {IERC165-supportsInterface}."
      }
    },
    "version": 1
  },
  "userdoc": {
    "kind": "user",
    "methods": {},
    "version": 1
  }
}