{
  "contractName": "AuctionFactory",
  "abi": [
    {
      "inputs": [
        {
          "internalType": "address",
          "name": "_erc721ContractAddress",
          "type": "address"
        }
      ],
      "stateMutability": "nonpayable",
      "type": "constructor"
    },
    {
      "anonymous": false,
      "inputs": [
        {
          "indexed": true,
          "internalType": "address",
          "name": "auctionContract",
          "type": "address"
        },
        {
          "indexed": true,
          "internalType": "address",
          "name": "owner",
          "type": "address"
        },
        {
          "indexed": false,
          "internalType": "uint256",
          "name": "numAuctions",
          "type": "uint256"
        },
        {
          "indexed": false,
          "internalType": "uint256",
          "name": "token",
          "type": "uint256"
        }
      ],
      "name": "AuctionCreated",
      "type": "event"
    },
    {
      "inputs": [
        {
          "internalType": "uint256",
          "name": "",
          "type": "uint256"
        }
      ],
      "name": "auctions",
      "outputs": [
        {
          "internalType": "address",
          "name": "",
          "type": "address"
        }
      ],
      "stateMutability": "view",
      "type": "function",
      "constant": true
    },
    {
      "inputs": [],
      "name": "getAuctions",
      "outputs": [
        {
          "internalType": "address[]",
          "name": "",
          "type": "address[]"
        }
      ],
      "stateMutability": "view",
      "type": "function",
      "constant": true
    },
    {
      "inputs": [
        {
          "internalType": "uint256",
          "name": "startTimestamp",
          "type": "uint256"
        },
        {
          "internalType": "uint256",
          "name": "endTimestamp",
          "type": "uint256"
        },
        {
          "internalType": "uint256",
          "name": "bidIncrement",
          "type": "uint256"
        },
        {
          "internalType": "uint256",
          "name": "tokenId",
          "type": "uint256"
        }
      ],
      "name": "createAuction",
      "outputs": [],
      "stateMutability": "nonpayable",
      "type": "function"
    }
  ],
  "bytecode": "0x608060405234801561001057600080fd5b50604051612efd380380612efd833981810160405281019061003291906100dc565b80600160006101000a81548173ffffffffffffffffffffffffffffffffffffffff021916908373ffffffffffffffffffffffffffffffffffffffff16021790555050610109565b600080fd5b600073ffffffffffffffffffffffffffffffffffffffff82169050919050565b60006100a98261007e565b9050919050565b6100b98161009e565b81146100c457600080fd5b50565b6000815190506100d6816100b0565b92915050565b6000602082840312156100f2576100f1610079565b5b6000610100848285016100c7565b91505092915050565b612de5806101186000396000f3fe60806040523480156200001157600080fd5b5060043610620000465760003560e01c8063431f21da146200004b578063571a26a0146200006b578063d7c0691914620000a1575b600080fd5b6200006960048036038101906200006391906200059b565b620000c3565b005b6200008960048036038101906200008391906200060d565b6200047d565b60405162000098919062000684565b60405180910390f35b620000ab620004bd565b604051620000ba91906200076f565b60405180910390f35b600084843385600160009054906101000a900473ffffffffffffffffffffffffffffffffffffffff1686604051620000fb906200054d565b6200010c96959493929190620007a4565b604051809103906000f08015801562000129573d6000803e3d6000fd5b5090506000819080600181540180825580915050600190039060005260206000200160009091909190916101000a81548173ffffffffffffffffffffffffffffffffffffffff021916908373ffffffffffffffffffffffffffffffffffffffff1602179055506000600160009054906101000a900473ffffffffffffffffffffffffffffffffffffffff1690503373ffffffffffffffffffffffffffffffffffffffff168173ffffffffffffffffffffffffffffffffffffffff16636352211e856040518263ffffffff1660e01b815260040162000208919062000811565b602060405180830381865afa15801562000226573d6000803e3d6000fd5b505050506040513d601f19601f820116820180604052508101906200024c91906200085f565b73ffffffffffffffffffffffffffffffffffffffff1614620002a5576040517f08c379a00000000000000000000000000000000000000000000000000000000081526004016200029c90620008f2565b60405180910390fd5b3073ffffffffffffffffffffffffffffffffffffffff168173ffffffffffffffffffffffffffffffffffffffff1663081812fc856040518263ffffffff1660e01b8152600401620002f7919062000811565b602060405180830381865afa15801562000315573d6000803e3d6000fd5b505050506040513d601f19601f820116820180604052508101906200033b91906200085f565b73ffffffffffffffffffffffffffffffffffffffff161462000394576040517f08c379a00000000000000000000000000000000000000000000000000000000081526004016200038b906200098a565b60405180910390fd5b8073ffffffffffffffffffffffffffffffffffffffff166342842e0e3384866040518463ffffffff1660e01b8152600401620003d393929190620009ac565b600060405180830381600087803b158015620003ee57600080fd5b505af115801562000403573d6000803e3d6000fd5b505050503373ffffffffffffffffffffffffffffffffffffffff168273ffffffffffffffffffffffffffffffffffffffff167fae654d602733e5af7f01c9bdc66adeb293b7a3c878db8d567c544e89397d2fb5600080549050866040516200046d929190620009e9565b60405180910390a3505050505050565b600081815481106200048e57600080fd5b906000526020600020016000915054906101000a900473ffffffffffffffffffffffffffffffffffffffff1681565b606060008054806020026020016040519081016040528092919081815260200182805480156200054357602002820191906000526020600020905b8160009054906101000a900473ffffffffffffffffffffffffffffffffffffffff1673ffffffffffffffffffffffffffffffffffffffff1681526020019060010190808311620004f8575b5050505050905090565b6123998062000a1783390190565b600080fd5b6000819050919050565b620005758162000560565b81146200058157600080fd5b50565b60008135905062000595816200056a565b92915050565b60008060008060808587031215620005b857620005b76200055b565b5b6000620005c88782880162000584565b9450506020620005db8782880162000584565b9350506040620005ee8782880162000584565b9250506060620006018782880162000584565b91505092959194509250565b6000602082840312156200062657620006256200055b565b5b6000620006368482850162000584565b91505092915050565b600073ffffffffffffffffffffffffffffffffffffffff82169050919050565b60006200066c826200063f565b9050919050565b6200067e816200065f565b82525050565b60006020820190506200069b600083018462000673565b92915050565b600081519050919050565b600082825260208201905092915050565b6000819050602082019050919050565b620006d8816200065f565b82525050565b6000620006ec8383620006cd565b60208301905092915050565b6000602082019050919050565b60006200071282620006a1565b6200071e8185620006ac565b93506200072b83620006bd565b8060005b8381101562000762578151620007468882620006de565b97506200075383620006f8565b9250506001810190506200072f565b5085935050505092915050565b600060208201905081810360008301526200078b818462000705565b905092915050565b6200079e8162000560565b82525050565b600060c082019050620007bb600083018962000793565b620007ca602083018862000793565b620007d9604083018762000673565b620007e8606083018662000793565b620007f7608083018562000673565b6200080660a083018462000793565b979650505050505050565b600060208201905062000828600083018462000793565b92915050565b62000839816200065f565b81146200084557600080fd5b50565b60008151905062000859816200082e565b92915050565b6000602082840312156200087857620008776200055b565b5b6000620008888482850162000848565b91505092915050565b600082825260208201905092915050565b7f43616c6c6572206d757374206f776e20746865204e465420746f6b656e000000600082015250565b6000620008da601d8362000891565b9150620008e782620008a2565b602082019050919050565b600060208201905081810360008301526200090d81620008cb565b9050919050565b7f4d75737420617070726f766520636f6e7472616374206173206f70657261746f60008201527f7200000000000000000000000000000000000000000000000000000000000000602082015250565b60006200097260218362000891565b91506200097f8262000914565b604082019050919050565b60006020820190508181036000830152620009a58162000963565b9050919050565b6000606082019050620009c3600083018662000673565b620009d2602083018562000673565b620009e1604083018462000793565b949350505050565b600060408201905062000a00600083018562000793565b62000a0f602083018462000793565b939250505056fe60806040523480156200001157600080fd5b506040516200239938038062002399833981810160405281019062000037919062000345565b8486106200007c576040517f08c379a0000000000000000000000000000000000000000000000000000000008152600401620000739062000468565b60405180910390fd5b428611620000c1576040517f08c379a0000000000000000000000000000000000000000000000000000000008152600401620000b89062000500565b60405180910390fd5b856000819055508460018190555083600260006101000a81548173ffffffffffffffffffffffffffffffffffffffff021916908373ffffffffffffffffffffffffffffffffffffffff1602179055508260038190555081600460006101000a81548173ffffffffffffffffffffffffffffffffffffffff021916908373ffffffffffffffffffffffffffffffffffffffff16021790555080600581905550600260009054906101000a900473ffffffffffffffffffffffffffffffffffffffff1673ffffffffffffffffffffffffffffffffffffffff16600460009054906101000a900473ffffffffffffffffffffffffffffffffffffffff1673ffffffffffffffffffffffffffffffffffffffff16636352211e6005546040518263ffffffff1660e01b8152600401620001f7919062000533565b602060405180830381865afa15801562000215573d6000803e3d6000fd5b505050506040513d601f19601f820116820180604052508101906200023b919062000550565b73ffffffffffffffffffffffffffffffffffffffff161462000294576040517f08c379a00000000000000000000000000000000000000000000000000000000081526004016200028b90620005f8565b60405180910390fd5b5050505050506200061a565b600080fd5b6000819050919050565b620002ba81620002a5565b8114620002c657600080fd5b50565b600081519050620002da81620002af565b92915050565b600073ffffffffffffffffffffffffffffffffffffffff82169050919050565b60006200030d82620002e0565b9050919050565b6200031f8162000300565b81146200032b57600080fd5b50565b6000815190506200033f8162000314565b92915050565b60008060008060008060c08789031215620003655762000364620002a0565b5b60006200037589828a01620002c9565b96505060206200038889828a01620002c9565b95505060406200039b89828a016200032e565b9450506060620003ae89828a01620002c9565b9350506080620003c189828a016200032e565b92505060a0620003d489828a01620002c9565b9150509295509295509295565b600082825260208201905092915050565b7f537461727420626c6f636b206d757374206265206c657373207468616e20746860008201527f6520656e6420626c6f636b000000000000000000000000000000000000000000602082015250565b600062000450602b83620003e1565b91506200045d82620003f2565b604082019050919050565b60006020820190508181036000830152620004838162000441565b9050919050565b7f537461727420626c6f636b20206d75737420626520677265617465722074686160008201527f6e207468652063757272656e7420626c6f636b00000000000000000000000000602082015250565b6000620004e8603383620003e1565b9150620004f5826200048a565b604082019050919050565b600060208201905081810360008301526200051b81620004d9565b9050919050565b6200052d81620002a5565b82525050565b60006020820190506200054a600083018462000522565b92915050565b600060208284031215620005695762000568620002a0565b5b600062000579848285016200032e565b91505092915050565b7f41756374696f6e206f776e6572206d757374206f776e20746865204e4654207460008201527f6f6b656e00000000000000000000000000000000000000000000000000000000602082015250565b6000620005e0602483620003e1565b9150620005ed8262000582565b604082019050919050565b600060208201905081810360008301526200061381620005d1565b9050919050565b611d6f806200062a6000396000f3fe60806040526004361061009c5760003560e01c80634051ddac116100645780634051ddac146101885780638da5cb5b146101bd57806391f90157146101e8578063ea8a1af014610213578063ecfc7ecc1461022a578063f5b56c56146102345761009c565b806301ffc9a7146100a1578063150b7a02146100de5780633c130d901461011b5780633ccfd60b146101465780633f9942ff1461015d575b600080fd5b3480156100ad57600080fd5b506100c860048036038101906100c39190611127565b61025f565b6040516100d5919061116f565b60405180910390f35b3480156100ea57600080fd5b5061010560048036038101906101009190611364565b6102c9565b60405161011291906113f6565b60405180910390f35b34801561012757600080fd5b506101306102dd565b60405161013d9190611499565b60405180910390f35b34801561015257600080fd5b5061015b610387565b005b34801561016957600080fd5b506101726108ea565b60405161017f919061116f565b60405180910390f35b34801561019457600080fd5b5061019d6108fd565b6040516101b49b9a999897969594939291906114d9565b60405180910390f35b3480156101c957600080fd5b506101d26109c2565b6040516101df919061158b565b60405180910390f35b3480156101f457600080fd5b506101fd6109e8565b60405161020a91906115c7565b60405180910390f35b34801561021f57600080fd5b50610228610a0e565b005b610232610c30565b005b34801561024057600080fd5b5061024961109c565b60405161025691906115e2565b60405180910390f35b60007f01ffc9a7000000000000000000000000000000000000000000000000000000007bffffffffffffffffffffffffffffffffffffffffffffffffffffffff1916827bffffffffffffffffffffffffffffffffffffffffffffffffffffffff1916149050919050565b600063150b7a0260e01b9050949350505050565b6060600460009054906101000a900473ffffffffffffffffffffffffffffffffffffffff1673ffffffffffffffffffffffffffffffffffffffff1663c87b56dd6005546040518263ffffffff1660e01b815260040161033c91906115e2565b600060405180830381865afa158015610359573d6000803e3d6000fd5b505050506040513d6000823e3d601f19601f82011682018060405250810190610382919061169e565b905090565b600154421180156103a55750600660009054906101000a900460ff16155b6103e4576040517f08c379a00000000000000000000000000000000000000000000000000000000081526004016103db90611759565b60405180910390fd5b600080600660009054906101000a900460ff161561044657339150600760008373ffffffffffffffffffffffffffffffffffffffff1673ffffffffffffffffffffffffffffffffffffffff168152602001908152602001600020549050610755565b600260009054906101000a900473ffffffffffffffffffffffffffffffffffffffff1673ffffffffffffffffffffffffffffffffffffffff163373ffffffffffffffffffffffffffffffffffffffff16141561066857600960009054906101000a900460ff16156104ec576040517f08c379a00000000000000000000000000000000000000000000000000000000081526004016104e3906117c5565b60405180910390fd5b600660019054906101000a900473ffffffffffffffffffffffffffffffffffffffff16915060085490506000600660019054906101000a900473ffffffffffffffffffffffffffffffffffffffff1690506000600854141561056e57600260009054906101000a900473ffffffffffffffffffffffffffffffffffffffff1690505b600460009054906101000a900473ffffffffffffffffffffffffffffffffffffffff1673ffffffffffffffffffffffffffffffffffffffff166342842e0e30836005546040518463ffffffff1660e01b81526004016105cf939291906117e5565b600060405180830381600087803b1580156105e957600080fd5b505af11580156105fd573d6000803e3d6000fd5b505050506001600960006101000a81548160ff0219169083151502179055506008548173ffffffffffffffffffffffffffffffffffffffff167f44e2ab5a6cfe856e15b49f53aec49ff1d9d164735554befaac76ac4dec58af9360405160405180910390a350610754565b600660019054906101000a900473ffffffffffffffffffffffffffffffffffffffff1673ffffffffffffffffffffffffffffffffffffffff163373ffffffffffffffffffffffffffffffffffffffff16141561070e57600960009054906101000a900460ff1661070d576040517f08c379a000000000000000000000000000000000000000000000000000000000815260040161070490611868565b60405180910390fd5b5b339150600760003373ffffffffffffffffffffffffffffffffffffffff1673ffffffffffffffffffffffffffffffffffffffff1681526020019081526020016000205490505b5b600260009054906101000a900473ffffffffffffffffffffffffffffffffffffffff1673ffffffffffffffffffffffffffffffffffffffff163373ffffffffffffffffffffffffffffffffffffffff161461088b57600081116107ed576040517f08c379a00000000000000000000000000000000000000000000000000000000081526004016107e4906118fa565b60405180910390fd5b8173ffffffffffffffffffffffffffffffffffffffff166108fc829081150290604051600060405180830381858888f19350505050158015610833573d6000803e3d6000fd5b5080600760008473ffffffffffffffffffffffffffffffffffffffff1673ffffffffffffffffffffffffffffffffffffffff16815260200190815260200160002060008282546108839190611949565b925050819055505b808273ffffffffffffffffffffffffffffffffffffffff163373ffffffffffffffffffffffffffffffffffffffff167f0ec497a8ae5b1ba29c60470ef651def995fac3deebbdcc56c47a4e5f51a4c2bd60405160405180910390a45050565b600660009054906101000a900460ff1681565b6000806000806060600080600080600080426000546001546005546109206102dd565b600460009054906101000a900473ffffffffffffffffffffffffffffffffffffffff16600260009054906101000a900473ffffffffffffffffffffffffffffffffffffffff16600660019054906101000a900473ffffffffffffffffffffffffffffffffffffffff16600854600354600660009054906101000a900460ff169a509a509a509a509a509a509a509a509a509a509a50909192939495969798999a565b600260009054906101000a900473ffffffffffffffffffffffffffffffffffffffff1681565b600660019054906101000a900473ffffffffffffffffffffffffffffffffffffffff1681565b600260009054906101000a900473ffffffffffffffffffffffffffffffffffffffff1673ffffffffffffffffffffffffffffffffffffffff163373ffffffffffffffffffffffffffffffffffffffff1614610a9e576040517f08c379a0000000000000000000000000000000000000000000000000000000008152600401610a95906119ef565b60405180910390fd5b600660009054906101000a900460ff1615610aee576040517f08c379a0000000000000000000000000000000000000000000000000000000008152600401610ae590611a5b565b60405180910390fd5b6001544210610b32576040517f08c379a0000000000000000000000000000000000000000000000000000000008152600401610b2990611ac7565b60405180910390fd5b6001600660006101000a81548160ff021916908315150217905550600460009054906101000a900473ffffffffffffffffffffffffffffffffffffffff1673ffffffffffffffffffffffffffffffffffffffff166342842e0e30600260009054906101000a900473ffffffffffffffffffffffffffffffffffffffff166005546040518463ffffffff1660e01b8152600401610bd0939291906117e5565b600060405180830381600087803b158015610bea57600080fd5b505af1158015610bfe573d6000803e3d6000fd5b505050507f462b6ca7f632601af1295aeb320851f50e8e630a309173f23535845ea4bfb3b960405160405180910390a1565b600260009054906101000a900473ffffffffffffffffffffffffffffffffffffffff1673ffffffffffffffffffffffffffffffffffffffff163373ffffffffffffffffffffffffffffffffffffffff161415610cc1576040517f08c379a0000000000000000000000000000000000000000000000000000000008152600401610cb890611b59565b60405180910390fd5b600054421015610d06576040517f08c379a0000000000000000000000000000000000000000000000000000000008152600401610cfd90611bc5565b60405180910390fd5b6001544210610d4a576040517f08c379a0000000000000000000000000000000000000000000000000000000008152600401610d4190611ac7565b60405180910390fd5b600660009054906101000a900460ff1615610d9a576040517f08c379a0000000000000000000000000000000000000000000000000000000008152600401610d9190611a5b565b60405180910390fd5b60003411610ddd576040517f08c379a0000000000000000000000000000000000000000000000000000000008152600401610dd490611c31565b60405180910390fd5b600034600760003373ffffffffffffffffffffffffffffffffffffffff1673ffffffffffffffffffffffffffffffffffffffff16815260200190815260200160002054610e2a9190611c51565b90506008548111610e70576040517f08c379a0000000000000000000000000000000000000000000000000000000008152600401610e6790611d19565b60405180910390fd5b34600760003373ffffffffffffffffffffffffffffffffffffffff1673ffffffffffffffffffffffffffffffffffffffff1681526020019081526020016000206000828254610ebf9190611c51565b92505081905550600060076000600660019054906101000a900473ffffffffffffffffffffffffffffffffffffffff1673ffffffffffffffffffffffffffffffffffffffff1673ffffffffffffffffffffffffffffffffffffffff16815260200190815260200160002054905081811115610f5657610f4b60035483610f459190611c51565b826110a2565b60088190555061100e565b600660019054906101000a900473ffffffffffffffffffffffffffffffffffffffff1673ffffffffffffffffffffffffffffffffffffffff163373ffffffffffffffffffffffffffffffffffffffff161461100a5733600660016101000a81548173ffffffffffffffffffffffffffffffffffffffff021916908373ffffffffffffffffffffffffffffffffffffffff1602179055506110038260035483610ffe9190611c51565b6110a2565b6008819055505b8190505b600660019054906101000a900473ffffffffffffffffffffffffffffffffffffffff1673ffffffffffffffffffffffffffffffffffffffff16823373ffffffffffffffffffffffffffffffffffffffff167f49e60d8d833f1250f6ede154509b047fe77c1eae57655e8176675b5f91af7b0a60085460405161109091906115e2565b60405180910390a45050565b60085481565b60008183106110b157816110b3565b825b905092915050565b6000604051905090565b600080fd5b600080fd5b60007fffffffff0000000000000000000000000000000000000000000000000000000082169050919050565b611104816110cf565b811461110f57600080fd5b50565b600081359050611121816110fb565b92915050565b60006020828403121561113d5761113c6110c5565b5b600061114b84828501611112565b91505092915050565b60008115159050919050565b61116981611154565b82525050565b60006020820190506111846000830184611160565b92915050565b600073ffffffffffffffffffffffffffffffffffffffff82169050919050565b60006111b58261118a565b9050919050565b6111c5816111aa565b81146111d057600080fd5b50565b6000813590506111e2816111bc565b92915050565b6000819050919050565b6111fb816111e8565b811461120657600080fd5b50565b600081359050611218816111f2565b92915050565b600080fd5b600080fd5b6000601f19601f8301169050919050565b7f4e487b7100000000000000000000000000000000000000000000000000000000600052604160045260246000fd5b61127182611228565b810181811067ffffffffffffffff821117156112905761128f611239565b5b80604052505050565b60006112a36110bb565b90506112af8282611268565b919050565b600067ffffffffffffffff8211156112cf576112ce611239565b5b6112d882611228565b9050602081019050919050565b82818337600083830152505050565b6000611307611302846112b4565b611299565b90508281526020810184848401111561132357611322611223565b5b61132e8482856112e5565b509392505050565b600082601f83011261134b5761134a61121e565b5b813561135b8482602086016112f4565b91505092915050565b6000806000806080858703121561137e5761137d6110c5565b5b600061138c878288016111d3565b945050602061139d878288016111d3565b93505060406113ae87828801611209565b925050606085013567ffffffffffffffff8111156113cf576113ce6110ca565b5b6113db87828801611336565b91505092959194509250565b6113f0816110cf565b82525050565b600060208201905061140b60008301846113e7565b92915050565b600081519050919050565b600082825260208201905092915050565b60005b8381101561144b578082015181840152602081019050611430565b8381111561145a576000848401525b50505050565b600061146b82611411565b611475818561141c565b935061148581856020860161142d565b61148e81611228565b840191505092915050565b600060208201905081810360008301526114b38184611460565b905092915050565b6114c4816111e8565b82525050565b6114d3816111aa565b82525050565b6000610160820190506114ef600083018e6114bb565b6114fc602083018d6114bb565b611509604083018c6114bb565b611516606083018b6114bb565b8181036080830152611528818a611460565b905061153760a08301896114ca565b61154460c08301886114ca565b61155160e08301876114ca565b61155f6101008301866114bb565b61156d6101208301856114bb565b61157b610140830184611160565b9c9b505050505050505050505050565b60006020820190506115a060008301846114ca565b92915050565b60006115b18261118a565b9050919050565b6115c1816115a6565b82525050565b60006020820190506115dc60008301846115b8565b92915050565b60006020820190506115f760008301846114bb565b92915050565b600067ffffffffffffffff82111561161857611617611239565b5b61162182611228565b9050602081019050919050565b600061164161163c846115fd565b611299565b90508281526020810184848401111561165d5761165c611223565b5b61166884828561142d565b509392505050565b600082601f8301126116855761168461121e565b5b815161169584826020860161162e565b91505092915050565b6000602082840312156116b4576116b36110c5565b5b600082015167ffffffffffffffff8111156116d2576116d16110ca565b5b6116de84828501611670565b91505092915050565b7f41756374696f6e20686173206e6f7420656e646564206f72206265656e20636160008201527f6e63656c65640000000000000000000000000000000000000000000000000000602082015250565b600061174360268361141c565b915061174e826116e7565b604082019050919050565b6000602082019050818103600083015261177281611736565b9050919050565b7f4f776e65722068617320616c72656164792077697468647261776e0000000000600082015250565b60006117af601b8361141c565b91506117ba82611779565b602082019050919050565b600060208201905081810360008301526117de816117a2565b9050919050565b60006060820190506117fa60008301866114ca565b61180760208301856114ca565b61181460408301846114bb565b949350505050565b7f4d757374207761697420666f72206f776e657220746f20777468647261770000600082015250565b6000611852601e8361141c565b915061185d8261181c565b602082019050919050565b6000602082019050818103600083015261188181611845565b9050919050565b7f5769746864726177616c20616d6f756e7420666f72207468697320616464726560008201527f7373206973203000000000000000000000000000000000000000000000000000602082015250565b60006118e460278361141c565b91506118ef82611888565b604082019050919050565b60006020820190508181036000830152611913816118d7565b9050919050565b7f4e487b7100000000000000000000000000000000000000000000000000000000600052601160045260246000fd5b6000611954826111e8565b915061195f836111e8565b9250828210156119725761197161191a565b5b828203905092915050565b7f4f6e6c792061756374696f6e20636f6e7472616374206f776e65722063616e2060008201527f706572666f726d207468697320616374696f6e00000000000000000000000000602082015250565b60006119d960338361141c565b91506119e48261197d565b604082019050919050565b60006020820190508181036000830152611a08816119cc565b9050919050565b7f41756374696f6e20686173206265656e2063616e63656c656400000000000000600082015250565b6000611a4560198361141c565b9150611a5082611a0f565b602082019050919050565b60006020820190508181036000830152611a7481611a38565b9050919050565b7f41756374696f6e2068617320656e646564000000000000000000000000000000600082015250565b6000611ab160118361141c565b9150611abc82611a7b565b602082019050919050565b60006020820190508181036000830152611ae081611aa4565b9050919050565b7f41756374696f6e20636f6e7472616374206f776e65722063616e6e6f7420706560008201527f72666f726d207468697320616374696f6e000000000000000000000000000000602082015250565b6000611b4360318361141c565b9150611b4e82611ae7565b604082019050919050565b60006020820190508181036000830152611b7281611b36565b9050919050565b7f41756374696f6e20686173206e6f742073746172746564000000000000000000600082015250565b6000611baf60178361141c565b9150611bba82611b79565b602082019050919050565b60006020820190508181036000830152611bde81611ba2565b9050919050565b7f42696473206d7573742062652067726561746572207468616e20300000000000600082015250565b6000611c1b601b8361141c565b9150611c2682611be5565b602082019050919050565b60006020820190508181036000830152611c4a81611c0e565b9050919050565b6000611c5c826111e8565b9150611c67836111e8565b9250827fffffffffffffffffffffffffffffffffffffffffffffffffffffffffffffffff03821115611c9c57611c9b61191a565b5b828201905092915050565b7f42696473206d7573742062652061626f7665207468652068696768657374206360008201527f757272656e742062696400000000000000000000000000000000000000000000602082015250565b6000611d03602a8361141c565b9150611d0e82611ca7565b604082019050919050565b60006020820190508181036000830152611d3281611cf6565b905091905056fea264697066735822122041e36781313a5e6547abe34bc1b5bf3e52266d624706d24b0522faf7a376926964736f6c634300080a0033a264697066735822122017c816c5016522671196bf07b9038db68b4363f4da0f05abac34478551da337464736f6c634300080a0033",
  "immutableReferences": {},
  "source": "// SPDX-License-Identifier: GPL-3.0\r\n\r\nimport \"@openzeppelin/contracts/utils/introspection/ERC165.sol\";\r\nimport \"@openzeppelin/contracts/token/ERC721/ERC721.sol\";\r\nimport \"@openzeppelin/contracts/token/ERC721/utils/ERC721Holder.sol\";\r\nimport \"@openzeppelin/contracts/token/ERC721/IERC721Receiver.sol\";\r\nimport \"@openzeppelin/contracts/token/ERC721/IERC721.sol\";\r\n\r\npragma solidity ^0.8.1;\r\n\r\ncontract AuctionFactory {\r\n    event AuctionCreated(address indexed auctionContract, address indexed owner, uint numAuctions, uint token); \r\n\r\n    address[] public auctions;\r\n    address erc721ContractAddress;\r\n\r\n    constructor(address _erc721ContractAddress) {\r\n        erc721ContractAddress = _erc721ContractAddress;\r\n    }\r\n\r\n    function getAuctions() public view returns(address[] memory){\r\n        return auctions; \r\n    }\r\n\r\n     function createAuction(uint startTimestamp, uint endTimestamp, uint bidIncrement, uint tokenId) public {\r\n        Auction newAuction = new Auction(startTimestamp, endTimestamp, msg.sender, bidIncrement, erc721ContractAddress, tokenId);\r\n        auctions.push(address(newAuction));\r\n        ERC721 erc721 = ERC721(erc721ContractAddress);\r\n\r\n        // Deposit the NFT on auction create\r\n        require(erc721.ownerOf(tokenId) == msg.sender, \"Caller must own the NFT token\");\r\n        require(erc721.getApproved(tokenId)  == address(this), \"Must approve contract as operator\");\r\n\r\n        erc721.safeTransferFrom(msg.sender, address(newAuction), tokenId);\r\n        emit AuctionCreated(address(newAuction), msg.sender, auctions.length, tokenId);\r\n    }\r\n}\r\n\r\ncontract Auction is IERC721Receiver, ERC165, ERC721Holder {\r\n    uint startTimestamp;\r\n    uint endTimestamp;\r\n    address public owner;\r\n    uint bidIncrement;\r\n    ERC721 erc721Contract;\r\n    uint tokenId;\r\n\r\n    // state\r\n    bool public canceled;\r\n    address payable public highestBidder;\r\n    mapping(address => uint256) fundsByBidder;\r\n    uint public highestBindingBid;\r\n    bool ownerHasWithdrawn;\r\n\r\n    event LogBid(address indexed bidder, uint indexed bid, address indexed highestBidder, uint highestBindingBid);\r\n    event LogWithdrawal(address indexed withdrawer, address indexed withdrawalAccount, uint indexed amount);\r\n    event LogCanceled();\r\n    event LogTransferOut(address indexed transferTo, uint indexed amount);\r\n\r\n    constructor(uint _startTimestamp, uint _endTimestamp, address _owner, uint _bidIncrement, address _erc721Contract, uint _tokenId) {\r\n        require(_startTimestamp < _endTimestamp, \"Start block must be less than the end block\");\r\n        require(_startTimestamp > block.timestamp, \"Start block  must be greater than the current block\");\r\n\r\n        startTimestamp = _startTimestamp;\r\n        endTimestamp = _endTimestamp;\r\n        owner = _owner;\r\n        bidIncrement = _bidIncrement;\r\n        erc721Contract = ERC721(_erc721Contract);\r\n        tokenId = _tokenId;\r\n\r\n        require(erc721Contract.ownerOf(tokenId) == owner, \"Auction owner must own the NFT token\");\r\n    }\r\n\r\n    modifier onlyNotOwner {\r\n        require(msg.sender != owner, \"Auction contract owner cannot perform this action\");\r\n        _;\r\n    }\r\n\r\n    modifier onlyOwner {\r\n        require(msg.sender == owner, \"Only auction contract owner can perform this action\");\r\n        _;\r\n    }\r\n\r\n    modifier onlyAfterStart {\r\n        require(block.timestamp >= startTimestamp, \"Auction has not started\");\r\n        _;\r\n    }\r\n\r\n    modifier onlyBeforeEnd {\r\n        require(block.timestamp < endTimestamp, \"Auction has ended\");\r\n        _;\r\n    }\r\n\r\n    modifier onlyNotCanceled  {\r\n        require(!canceled, \"Auction has been canceled\");\r\n        _;\r\n    }\r\n\r\n    modifier onlyEndedOrCanceled {\r\n        require(block.timestamp > endTimestamp && !canceled, \"Auction has not ended or been canceled\");\r\n        _;\r\n    }\r\n\r\n    function min(uint256 a, uint256 b) internal pure returns (uint256) {\r\n        return a < b ? a : b;\r\n    }\r\n    \r\n\r\n    function placeBid() public payable onlyNotOwner onlyAfterStart onlyBeforeEnd onlyNotCanceled{\r\n        require(msg.value > 0, \"Bids must be greater than 0\");\r\n\r\n        uint newBid = fundsByBidder[msg.sender] + msg.value;\r\n        require(newBid > highestBindingBid, \"Bids must be above the highest current bid\");\r\n\r\n        // Increment the senders bid \r\n        fundsByBidder[msg.sender] += msg.value;\r\n\r\n        uint currentHighestBid = fundsByBidder[highestBidder];\r\n        if(currentHighestBid > newBid){\r\n            highestBindingBid = min(newBid + bidIncrement, currentHighestBid);\r\n        } else {\r\n            if (msg.sender != highestBidder) {\r\n                highestBidder = payable(msg.sender);\r\n                highestBindingBid = min(newBid, currentHighestBid + bidIncrement);\r\n            }\r\n\r\n            currentHighestBid = newBid;\r\n        }\r\n\r\n        emit LogBid(msg.sender, newBid, highestBidder, highestBindingBid);\r\n    }\r\n\r\n    function withdraw() public onlyEndedOrCanceled {\r\n        address payable withdrawalAccount;\r\n        uint withdrawalAmount;\r\n\r\n        if (canceled) {\r\n            // if the auction was canceled, everyone should simply be allowed to withdraw their funds\r\n            withdrawalAccount = payable(msg.sender);\r\n            withdrawalAmount = fundsByBidder[withdrawalAccount];\r\n        } else {\r\n            if(msg.sender == owner){\r\n                require(!ownerHasWithdrawn, \"Owner has already withdrawn\");\r\n                withdrawalAccount = highestBidder;\r\n                withdrawalAmount = highestBindingBid;\r\n\r\n                address transferTo = highestBidder;\r\n                if(highestBindingBid == 0) transferTo = owner;\r\n                erc721Contract.safeTransferFrom(address(this), transferTo, tokenId);\r\n                ownerHasWithdrawn = true;\r\n\r\n                emit LogTransferOut(transferTo, highestBindingBid);\r\n            } else {\r\n                if( msg.sender == highestBidder) require(ownerHasWithdrawn, \"Must wait for owner to wthdraw\");\r\n\r\n                withdrawalAccount = payable(msg.sender);\r\n                withdrawalAmount = fundsByBidder[msg.sender];\r\n            }\r\n        }\r\n\r\n        if(msg.sender != owner){\r\n            require(withdrawalAmount > 0, \"Withdrawal amount for this address is 0\");\r\n            withdrawalAccount.transfer(withdrawalAmount);\r\n            fundsByBidder[withdrawalAccount] -= withdrawalAmount;\r\n        }\r\n\r\n        emit LogWithdrawal(msg.sender, withdrawalAccount, withdrawalAmount);\r\n    }\r\n\r\n    function cancel() public onlyOwner onlyNotCanceled onlyBeforeEnd {\r\n        canceled = true;\r\n        erc721Contract.safeTransferFrom(address(this), owner, tokenId);\r\n\r\n        emit LogCanceled();\r\n    }\r\n\r\n    function tokenURI() public view returns (string memory) {\r\n        return erc721Contract.tokenURI(tokenId);\r\n    }\r\n\r\n    function getSummary() public view returns(uint, uint, uint, uint, string memory, address, address, address, uint, uint, bool){\r\n        return (\r\n            block.timestamp,\r\n            startTimestamp,\r\n            endTimestamp,\r\n            tokenId,\r\n            tokenURI(),\r\n            address(erc721Contract),\r\n            owner,\r\n            highestBidder,\r\n            highestBindingBid,\r\n            bidIncrement,\r\n            canceled\r\n        );\r\n    }\r\n}",
  "sourcePath": "C:\\Users\\Charaka\\Desktop\\Coding\\Blockchain\\nft-auction\\contracts\\Auction.sol",
  "compiler": {
    "name": "solc",
    "version": "0.8.10+commit.fc410830.Emscripten.clang"
  },
  "schemaVersion": "3.4.4",
  "updatedAt": "2022-01-05T10:14:57.267Z",
  "networkType": "ethereum",
  "devdoc": {
    "kind": "dev",
    "methods": {},
    "version": 1
  },
  "userdoc": {
    "kind": "user",
    "methods": {},
    "version": 1
  }
}