{
  "contractName": "AuctionFactory",
  "abi": [
    {
      "inputs": [
        {
          "internalType": "address",
          "name": "_erc721Contract",
          "type": "address"
        }
      ],
      "stateMutability": "nonpayable",
      "type": "constructor"
    },
    {
      "anonymous": false,
      "inputs": [
        {
          "indexed": true,
          "internalType": "address",
          "name": "auctionContract",
          "type": "address"
        },
        {
          "indexed": true,
          "internalType": "address",
          "name": "owner",
          "type": "address"
        },
        {
          "indexed": false,
          "internalType": "uint256",
          "name": "numAuctions",
          "type": "uint256"
        }
      ],
      "name": "AuctionCreated",
      "type": "event"
    },
    {
      "inputs": [
        {
          "internalType": "uint256",
          "name": "",
          "type": "uint256"
        }
      ],
      "name": "auctions",
      "outputs": [
        {
          "internalType": "address",
          "name": "",
          "type": "address"
        }
      ],
      "stateMutability": "view",
      "type": "function"
    },
    {
      "inputs": [],
      "name": "getAuctions",
      "outputs": [
        {
          "internalType": "address[]",
          "name": "",
          "type": "address[]"
        }
      ],
      "stateMutability": "view",
      "type": "function"
    },
    {
      "inputs": [
        {
          "internalType": "uint256",
          "name": "startTimestamp",
          "type": "uint256"
        },
        {
          "internalType": "uint256",
          "name": "endTimestamp",
          "type": "uint256"
        },
        {
          "internalType": "uint256",
          "name": "bidIncrement",
          "type": "uint256"
        },
        {
          "internalType": "uint256",
          "name": "tokenId",
          "type": "uint256"
        }
      ],
      "name": "createAuction",
      "outputs": [],
      "stateMutability": "nonpayable",
      "type": "function"
    }
  ],
  "bytecode": "0x608060405234801561001057600080fd5b506040516131c43803806131c4833981810160405281019061003291906100dc565b80600160006101000a81548173ffffffffffffffffffffffffffffffffffffffff021916908373ffffffffffffffffffffffffffffffffffffffff16021790555050610109565b600080fd5b600073ffffffffffffffffffffffffffffffffffffffff82169050919050565b60006100a98261007e565b9050919050565b6100b98161009e565b81146100c457600080fd5b50565b6000815190506100d6816100b0565b92915050565b6000602082840312156100f2576100f1610079565b5b6000610100848285016100c7565b91505092915050565b6130ac806101186000396000f3fe60806040523480156200001157600080fd5b5060043610620000465760003560e01c8063431f21da146200004b578063571a26a0146200006b578063d7c0691914620000a1575b600080fd5b62000069600480360381019062000063919062000320565b620000c3565b005b62000089600480360381019062000083919062000392565b62000202565b60405162000098919062000409565b60405180910390f35b620000ab62000242565b604051620000ba9190620004f4565b60405180910390f35b600084843385600160009054906101000a900473ffffffffffffffffffffffffffffffffffffffff1686604051620000fb90620002d2565b6200010c9695949392919062000529565b604051809103906000f08015801562000129573d6000803e3d6000fd5b5090506000819080600181540180825580915050600190039060005260206000200160009091909190916101000a81548173ffffffffffffffffffffffffffffffffffffffff021916908373ffffffffffffffffffffffffffffffffffffffff1602179055503373ffffffffffffffffffffffffffffffffffffffff168173ffffffffffffffffffffffffffffffffffffffff167f261f6e6830ed857876d5aa4eca876ccf116d09b91a6675e3e1a1920d53ef585e600080549050604051620001f3919062000596565b60405180910390a35050505050565b600081815481106200021357600080fd5b906000526020600020016000915054906101000a900473ffffffffffffffffffffffffffffffffffffffff1681565b60606000805480602002602001604051908101604052809291908181526020018280548015620002c857602002820191906000526020600020905b8160009054906101000a900473ffffffffffffffffffffffffffffffffffffffff1673ffffffffffffffffffffffffffffffffffffffff16815260200190600101908083116200027d575b5050505050905090565b612ac380620005b483390190565b600080fd5b6000819050919050565b620002fa81620002e5565b81146200030657600080fd5b50565b6000813590506200031a81620002ef565b92915050565b600080600080608085870312156200033d576200033c620002e0565b5b60006200034d8782880162000309565b9450506020620003608782880162000309565b9350506040620003738782880162000309565b9250506060620003868782880162000309565b91505092959194509250565b600060208284031215620003ab57620003aa620002e0565b5b6000620003bb8482850162000309565b91505092915050565b600073ffffffffffffffffffffffffffffffffffffffff82169050919050565b6000620003f182620003c4565b9050919050565b6200040381620003e4565b82525050565b6000602082019050620004206000830184620003f8565b92915050565b600081519050919050565b600082825260208201905092915050565b6000819050602082019050919050565b6200045d81620003e4565b82525050565b600062000471838362000452565b60208301905092915050565b6000602082019050919050565b6000620004978262000426565b620004a3818562000431565b9350620004b08362000442565b8060005b83811015620004e7578151620004cb888262000463565b9750620004d8836200047d565b925050600181019050620004b4565b5085935050505092915050565b600060208201905081810360008301526200051081846200048a565b905092915050565b6200052381620002e5565b82525050565b600060c08201905062000540600083018962000518565b6200054f602083018862000518565b6200055e6040830187620003f8565b6200056d606083018662000518565b6200057c6080830185620003f8565b6200058b60a083018462000518565b979650505050505050565b6000602082019050620005ad600083018462000518565b9291505056fe60806040523480156200001157600080fd5b5060405162002ac338038062002ac3833981810160405281019062000037919062000345565b8486106200007c576040517f08c379a0000000000000000000000000000000000000000000000000000000008152600401620000739062000468565b60405180910390fd5b428611620000c1576040517f08c379a0000000000000000000000000000000000000000000000000000000008152600401620000b89062000500565b60405180910390fd5b856000819055508460018190555083600260006101000a81548173ffffffffffffffffffffffffffffffffffffffff021916908373ffffffffffffffffffffffffffffffffffffffff1602179055508260038190555081600460006101000a81548173ffffffffffffffffffffffffffffffffffffffff021916908373ffffffffffffffffffffffffffffffffffffffff16021790555080600581905550600260009054906101000a900473ffffffffffffffffffffffffffffffffffffffff1673ffffffffffffffffffffffffffffffffffffffff16600460009054906101000a900473ffffffffffffffffffffffffffffffffffffffff1673ffffffffffffffffffffffffffffffffffffffff16636352211e6005546040518263ffffffff1660e01b8152600401620001f7919062000533565b602060405180830381865afa15801562000215573d6000803e3d6000fd5b505050506040513d601f19601f820116820180604052508101906200023b919062000550565b73ffffffffffffffffffffffffffffffffffffffff161462000294576040517f08c379a00000000000000000000000000000000000000000000000000000000081526004016200028b90620005f8565b60405180910390fd5b5050505050506200061a565b600080fd5b6000819050919050565b620002ba81620002a5565b8114620002c657600080fd5b50565b600081519050620002da81620002af565b92915050565b600073ffffffffffffffffffffffffffffffffffffffff82169050919050565b60006200030d82620002e0565b9050919050565b6200031f8162000300565b81146200032b57600080fd5b50565b6000815190506200033f8162000314565b92915050565b60008060008060008060c08789031215620003655762000364620002a0565b5b60006200037589828a01620002c9565b96505060206200038889828a01620002c9565b95505060406200039b89828a016200032e565b9450506060620003ae89828a01620002c9565b9350506080620003c189828a016200032e565b92505060a0620003d489828a01620002c9565b9150509295509295509295565b600082825260208201905092915050565b7f537461727420626c6f636b206d757374206265206c657373207468616e20746860008201527f6520656e6420626c6f636b000000000000000000000000000000000000000000602082015250565b600062000450602b83620003e1565b91506200045d82620003f2565b604082019050919050565b60006020820190508181036000830152620004838162000441565b9050919050565b7f537461727420626c6f636b20206d75737420626520677265617465722074686160008201527f6e207468652063757272656e7420626c6f636b00000000000000000000000000602082015250565b6000620004e8603383620003e1565b9150620004f5826200048a565b604082019050919050565b600060208201905081810360008301526200051b81620004d9565b9050919050565b6200052d81620002a5565b82525050565b60006020820190506200054a600083018462000522565b92915050565b600060208284031215620005695762000568620002a0565b5b600062000579848285016200032e565b91505092915050565b7f41756374696f6e206f776e6572206d757374206f776e20746865204e4654207460008201527f6f6b656e00000000000000000000000000000000000000000000000000000000602082015250565b6000620005e0602483620003e1565b9150620005ed8262000582565b604082019050919050565b600060208201905081810360008301526200061381620005d1565b9050919050565b612499806200062a6000396000f3fe6080604052600436106100a75760003560e01c80638da5cb5b116100645780638da5cb5b146101c957806391f90157146101f4578063d0e30db01461021f578063ea8a1af014610236578063ecfc7ecc1461024d578063f5b56c5614610257576100a7565b806301ffc9a7146100ac578063150b7a02146100e95780633c130d90146101265780633ccfd60b146101515780633f9942ff146101685780634051ddac14610193575b600080fd5b3480156100b857600080fd5b506100d360048036038101906100ce919061162a565b610282565b6040516100e09190611672565b60405180910390f35b3480156100f557600080fd5b50610110600480360381019061010b9190611867565b6102ec565b60405161011d91906118f9565b60405180910390f35b34801561013257600080fd5b5061013b610300565b604051610148919061199c565b60405180910390f35b34801561015d57600080fd5b506101666103aa565b005b34801561017457600080fd5b5061017d61090d565b60405161018a9190611672565b60405180910390f35b34801561019f57600080fd5b506101a8610920565b6040516101c09c9b9a999897969594939291906119dc565b60405180910390f35b3480156101d557600080fd5b506101de6109fa565b6040516101eb9190611a9d565b60405180910390f35b34801561020057600080fd5b50610209610a20565b6040516102169190611ad9565b60405180910390f35b34801561022b57600080fd5b50610234610a46565b005b34801561024257600080fd5b5061024b610eac565b005b6102556110e4565b005b34801561026357600080fd5b5061026c61159f565b6040516102799190611af4565b60405180910390f35b60007f01ffc9a7000000000000000000000000000000000000000000000000000000007bffffffffffffffffffffffffffffffffffffffffffffffffffffffff1916827bffffffffffffffffffffffffffffffffffffffffffffffffffffffff1916149050919050565b600063150b7a0260e01b9050949350505050565b6060600460009054906101000a900473ffffffffffffffffffffffffffffffffffffffff1673ffffffffffffffffffffffffffffffffffffffff1663c87b56dd6005546040518263ffffffff1660e01b815260040161035f9190611af4565b600060405180830381865afa15801561037c573d6000803e3d6000fd5b505050506040513d6000823e3d601f19601f820116820180604052508101906103a59190611bb0565b905090565b600154421180156103c85750600660009054906101000a900460ff16155b610407576040517f08c379a00000000000000000000000000000000000000000000000000000000081526004016103fe90611c6b565b60405180910390fd5b600080600660009054906101000a900460ff161561046957339150600760008373ffffffffffffffffffffffffffffffffffffffff1673ffffffffffffffffffffffffffffffffffffffff168152602001908152602001600020549050610778565b600260009054906101000a900473ffffffffffffffffffffffffffffffffffffffff1673ffffffffffffffffffffffffffffffffffffffff163373ffffffffffffffffffffffffffffffffffffffff16141561068b57600960009054906101000a900460ff161561050f576040517f08c379a000000000000000000000000000000000000000000000000000000000815260040161050690611cd7565b60405180910390fd5b600660019054906101000a900473ffffffffffffffffffffffffffffffffffffffff16915060085490506000600660019054906101000a900473ffffffffffffffffffffffffffffffffffffffff1690506000600854141561059157600260009054906101000a900473ffffffffffffffffffffffffffffffffffffffff1690505b600460009054906101000a900473ffffffffffffffffffffffffffffffffffffffff1673ffffffffffffffffffffffffffffffffffffffff166342842e0e30836005546040518463ffffffff1660e01b81526004016105f293929190611cf7565b600060405180830381600087803b15801561060c57600080fd5b505af1158015610620573d6000803e3d6000fd5b505050506001600960006101000a81548160ff0219169083151502179055506008548173ffffffffffffffffffffffffffffffffffffffff167f44e2ab5a6cfe856e15b49f53aec49ff1d9d164735554befaac76ac4dec58af9360405160405180910390a350610777565b600660019054906101000a900473ffffffffffffffffffffffffffffffffffffffff1673ffffffffffffffffffffffffffffffffffffffff163373ffffffffffffffffffffffffffffffffffffffff16141561073157600960009054906101000a900460ff16610730576040517f08c379a000000000000000000000000000000000000000000000000000000000815260040161072790611d7a565b60405180910390fd5b5b339150600760003373ffffffffffffffffffffffffffffffffffffffff1673ffffffffffffffffffffffffffffffffffffffff1681526020019081526020016000205490505b5b600260009054906101000a900473ffffffffffffffffffffffffffffffffffffffff1673ffffffffffffffffffffffffffffffffffffffff163373ffffffffffffffffffffffffffffffffffffffff16146108ae5760008111610810576040517f08c379a000000000000000000000000000000000000000000000000000000000815260040161080790611e0c565b60405180910390fd5b8173ffffffffffffffffffffffffffffffffffffffff166108fc829081150290604051600060405180830381858888f19350505050158015610856573d6000803e3d6000fd5b5080600760008473ffffffffffffffffffffffffffffffffffffffff1673ffffffffffffffffffffffffffffffffffffffff16815260200190815260200160002060008282546108a69190611e5b565b925050819055505b808273ffffffffffffffffffffffffffffffffffffffff163373ffffffffffffffffffffffffffffffffffffffff167f0ec497a8ae5b1ba29c60470ef651def995fac3deebbdcc56c47a4e5f51a4c2bd60405160405180910390a45050565b600660009054906101000a900460ff1681565b6000806000806060600080600080600080600042600054600154600554610945610300565b600460009054906101000a900473ffffffffffffffffffffffffffffffffffffffff16600960019054906101000a900460ff16600260009054906101000a900473ffffffffffffffffffffffffffffffffffffffff16600660019054906101000a900473ffffffffffffffffffffffffffffffffffffffff16600854600354600660009054906101000a900460ff169b509b509b509b509b509b509b509b509b509b509b509b50909192939495969798999a9b565b600260009054906101000a900473ffffffffffffffffffffffffffffffffffffffff1681565b600660019054906101000a900473ffffffffffffffffffffffffffffffffffffffff1681565b600260009054906101000a900473ffffffffffffffffffffffffffffffffffffffff1673ffffffffffffffffffffffffffffffffffffffff163373ffffffffffffffffffffffffffffffffffffffff1614610ad6576040517f08c379a0000000000000000000000000000000000000000000000000000000008152600401610acd90611f01565b60405180910390fd5b600960019054906101000a900460ff1615610b26576040517f08c379a0000000000000000000000000000000000000000000000000000000008152600401610b1d90611f6d565b60405180910390fd5b6001544210610b6a576040517f08c379a0000000000000000000000000000000000000000000000000000000008152600401610b6190611fd9565b60405180910390fd5b600660009054906101000a900460ff1615610bba576040517f08c379a0000000000000000000000000000000000000000000000000000000008152600401610bb190612045565b60405180910390fd5b3373ffffffffffffffffffffffffffffffffffffffff16600460009054906101000a900473ffffffffffffffffffffffffffffffffffffffff1673ffffffffffffffffffffffffffffffffffffffff16636352211e6005546040518263ffffffff1660e01b8152600401610c2e9190611af4565b602060405180830381865afa158015610c4b573d6000803e3d6000fd5b505050506040513d601f19601f82011682018060405250810190610c6f919061207a565b73ffffffffffffffffffffffffffffffffffffffff1614610cc5576040517f08c379a0000000000000000000000000000000000000000000000000000000008152600401610cbc906120f3565b60405180910390fd5b3073ffffffffffffffffffffffffffffffffffffffff16600460009054906101000a900473ffffffffffffffffffffffffffffffffffffffff1673ffffffffffffffffffffffffffffffffffffffff1663081812fc6005546040518263ffffffff1660e01b8152600401610d399190611af4565b602060405180830381865afa158015610d56573d6000803e3d6000fd5b505050506040513d601f19601f82011682018060405250810190610d7a919061207a565b73ffffffffffffffffffffffffffffffffffffffff1614610dd0576040517f08c379a0000000000000000000000000000000000000000000000000000000008152600401610dc790612185565b60405180910390fd5b600460009054906101000a900473ffffffffffffffffffffffffffffffffffffffff1673ffffffffffffffffffffffffffffffffffffffff166342842e0e33306005546040518463ffffffff1660e01b8152600401610e3193929190611cf7565b600060405180830381600087803b158015610e4b57600080fd5b505af1158015610e5f573d6000803e3d6000fd5b505050506001600960016101000a81548160ff0219169083151502179055507f7d028f71c44fd2783fa661fccc192a95842aca39ca316d65d210bb5fac059a4960405160405180910390a1565b600260009054906101000a900473ffffffffffffffffffffffffffffffffffffffff1673ffffffffffffffffffffffffffffffffffffffff163373ffffffffffffffffffffffffffffffffffffffff1614610f3c576040517f08c379a0000000000000000000000000000000000000000000000000000000008152600401610f3390611f01565b60405180910390fd5b600660009054906101000a900460ff1615610f8c576040517f08c379a0000000000000000000000000000000000000000000000000000000008152600401610f8390612045565b60405180910390fd5b6001544210610fd0576040517f08c379a0000000000000000000000000000000000000000000000000000000008152600401610fc790611fd9565b60405180910390fd5b6001600660006101000a81548160ff021916908315150217905550600960019054906101000a900460ff16156110b657600460009054906101000a900473ffffffffffffffffffffffffffffffffffffffff1673ffffffffffffffffffffffffffffffffffffffff166342842e0e30600260009054906101000a900473ffffffffffffffffffffffffffffffffffffffff166005546040518463ffffffff1660e01b815260040161108393929190611cf7565b600060405180830381600087803b15801561109d57600080fd5b505af11580156110b1573d6000803e3d6000fd5b505050505b7f462b6ca7f632601af1295aeb320851f50e8e630a309173f23535845ea4bfb3b960405160405180910390a1565b600260009054906101000a900473ffffffffffffffffffffffffffffffffffffffff1673ffffffffffffffffffffffffffffffffffffffff163373ffffffffffffffffffffffffffffffffffffffff161415611175576040517f08c379a000000000000000000000000000000000000000000000000000000000815260040161116c90612217565b60405180910390fd5b6000544210156111ba576040517f08c379a00000000000000000000000000000000000000000000000000000000081526004016111b190612283565b60405180910390fd5b60015442106111fe576040517f08c379a00000000000000000000000000000000000000000000000000000000081526004016111f590611fd9565b60405180910390fd5b600660009054906101000a900460ff161561124e576040517f08c379a000000000000000000000000000000000000000000000000000000000815260040161124590612045565b60405180910390fd5b600960019054906101000a900460ff1661129d576040517f08c379a0000000000000000000000000000000000000000000000000000000008152600401611294906122ef565b60405180910390fd5b600034116112e0576040517f08c379a00000000000000000000000000000000000000000000000000000000081526004016112d79061235b565b60405180910390fd5b600034600760003373ffffffffffffffffffffffffffffffffffffffff1673ffffffffffffffffffffffffffffffffffffffff1681526020019081526020016000205461132d919061237b565b90506008548111611373576040517f08c379a000000000000000000000000000000000000000000000000000000000815260040161136a90612443565b60405180910390fd5b34600760003373ffffffffffffffffffffffffffffffffffffffff1673ffffffffffffffffffffffffffffffffffffffff16815260200190815260200160002060008282546113c2919061237b565b92505081905550600060076000600660019054906101000a900473ffffffffffffffffffffffffffffffffffffffff1673ffffffffffffffffffffffffffffffffffffffff1673ffffffffffffffffffffffffffffffffffffffff168152602001908152602001600020549050818111156114595761144e60035483611448919061237b565b826115a5565b600881905550611511565b600660019054906101000a900473ffffffffffffffffffffffffffffffffffffffff1673ffffffffffffffffffffffffffffffffffffffff163373ffffffffffffffffffffffffffffffffffffffff161461150d5733600660016101000a81548173ffffffffffffffffffffffffffffffffffffffff021916908373ffffffffffffffffffffffffffffffffffffffff1602179055506115068260035483611501919061237b565b6115a5565b6008819055505b8190505b600660019054906101000a900473ffffffffffffffffffffffffffffffffffffffff1673ffffffffffffffffffffffffffffffffffffffff16823373ffffffffffffffffffffffffffffffffffffffff167f49e60d8d833f1250f6ede154509b047fe77c1eae57655e8176675b5f91af7b0a6008546040516115939190611af4565b60405180910390a45050565b60085481565b60008183106115b457816115b6565b825b905092915050565b6000604051905090565b600080fd5b600080fd5b60007fffffffff0000000000000000000000000000000000000000000000000000000082169050919050565b611607816115d2565b811461161257600080fd5b50565b600081359050611624816115fe565b92915050565b6000602082840312156116405761163f6115c8565b5b600061164e84828501611615565b91505092915050565b60008115159050919050565b61166c81611657565b82525050565b60006020820190506116876000830184611663565b92915050565b600073ffffffffffffffffffffffffffffffffffffffff82169050919050565b60006116b88261168d565b9050919050565b6116c8816116ad565b81146116d357600080fd5b50565b6000813590506116e5816116bf565b92915050565b6000819050919050565b6116fe816116eb565b811461170957600080fd5b50565b60008135905061171b816116f5565b92915050565b600080fd5b600080fd5b6000601f19601f8301169050919050565b7f4e487b7100000000000000000000000000000000000000000000000000000000600052604160045260246000fd5b6117748261172b565b810181811067ffffffffffffffff821117156117935761179261173c565b5b80604052505050565b60006117a66115be565b90506117b2828261176b565b919050565b600067ffffffffffffffff8211156117d2576117d161173c565b5b6117db8261172b565b9050602081019050919050565b82818337600083830152505050565b600061180a611805846117b7565b61179c565b90508281526020810184848401111561182657611825611726565b5b6118318482856117e8565b509392505050565b600082601f83011261184e5761184d611721565b5b813561185e8482602086016117f7565b91505092915050565b60008060008060808587031215611881576118806115c8565b5b600061188f878288016116d6565b94505060206118a0878288016116d6565b93505060406118b18782880161170c565b925050606085013567ffffffffffffffff8111156118d2576118d16115cd565b5b6118de87828801611839565b91505092959194509250565b6118f3816115d2565b82525050565b600060208201905061190e60008301846118ea565b92915050565b600081519050919050565b600082825260208201905092915050565b60005b8381101561194e578082015181840152602081019050611933565b8381111561195d576000848401525b50505050565b600061196e82611914565b611978818561191f565b9350611988818560208601611930565b6119918161172b565b840191505092915050565b600060208201905081810360008301526119b68184611963565b905092915050565b6119c7816116eb565b82525050565b6119d6816116ad565b82525050565b6000610180820190506119f2600083018f6119be565b6119ff602083018e6119be565b611a0c604083018d6119be565b611a19606083018c6119be565b8181036080830152611a2b818b611963565b9050611a3a60a083018a6119cd565b611a4760c0830189611663565b611a5460e08301886119cd565b611a626101008301876119cd565b611a706101208301866119be565b611a7e6101408301856119be565b611a8c610160830184611663565b9d9c50505050505050505050505050565b6000602082019050611ab260008301846119cd565b92915050565b6000611ac38261168d565b9050919050565b611ad381611ab8565b82525050565b6000602082019050611aee6000830184611aca565b92915050565b6000602082019050611b0960008301846119be565b92915050565b600067ffffffffffffffff821115611b2a57611b2961173c565b5b611b338261172b565b9050602081019050919050565b6000611b53611b4e84611b0f565b61179c565b905082815260208101848484011115611b6f57611b6e611726565b5b611b7a848285611930565b509392505050565b600082601f830112611b9757611b96611721565b5b8151611ba7848260208601611b40565b91505092915050565b600060208284031215611bc657611bc56115c8565b5b600082015167ffffffffffffffff811115611be457611be36115cd565b5b611bf084828501611b82565b91505092915050565b7f41756374696f6e20686173206e6f7420656e646564206f72206265656e20636160008201527f6e63656c65640000000000000000000000000000000000000000000000000000602082015250565b6000611c5560268361191f565b9150611c6082611bf9565b604082019050919050565b60006020820190508181036000830152611c8481611c48565b9050919050565b7f4f776e65722068617320616c72656164792077697468647261776e0000000000600082015250565b6000611cc1601b8361191f565b9150611ccc82611c8b565b602082019050919050565b60006020820190508181036000830152611cf081611cb4565b9050919050565b6000606082019050611d0c60008301866119cd565b611d1960208301856119cd565b611d2660408301846119be565b949350505050565b7f4d757374207761697420666f72206f776e657220746f20777468647261770000600082015250565b6000611d64601e8361191f565b9150611d6f82611d2e565b602082019050919050565b60006020820190508181036000830152611d9381611d57565b9050919050565b7f5769746864726177616c20616d6f756e7420666f72207468697320616464726560008201527f7373206973203000000000000000000000000000000000000000000000000000602082015250565b6000611df660278361191f565b9150611e0182611d9a565b604082019050919050565b60006020820190508181036000830152611e2581611de9565b9050919050565b7f4e487b7100000000000000000000000000000000000000000000000000000000600052601160045260246000fd5b6000611e66826116eb565b9150611e71836116eb565b925082821015611e8457611e83611e2c565b5b828203905092915050565b7f4f6e6c792061756374696f6e20636f6e7472616374206f776e65722063616e2060008201527f706572666f726d207468697320616374696f6e00000000000000000000000000602082015250565b6000611eeb60338361191f565b9150611ef682611e8f565b604082019050919050565b60006020820190508181036000830152611f1a81611ede565b9050919050565b7f4f776e657220686173206465706f7369746564204e4654000000000000000000600082015250565b6000611f5760178361191f565b9150611f6282611f21565b602082019050919050565b60006020820190508181036000830152611f8681611f4a565b9050919050565b7f41756374696f6e2068617320656e646564000000000000000000000000000000600082015250565b6000611fc360118361191f565b9150611fce82611f8d565b602082019050919050565b60006020820190508181036000830152611ff281611fb6565b9050919050565b7f41756374696f6e20686173206265656e2063616e63656c656400000000000000600082015250565b600061202f60198361191f565b915061203a82611ff9565b602082019050919050565b6000602082019050818103600083015261205e81612022565b9050919050565b600081519050612074816116bf565b92915050565b6000602082840312156120905761208f6115c8565b5b600061209e84828501612065565b91505092915050565b7f43616c6c6572206d757374206f776e20746865204e465420746f6b656e000000600082015250565b60006120dd601d8361191f565b91506120e8826120a7565b602082019050919050565b6000602082019050818103600083015261210c816120d0565b9050919050565b7f4d75737420617070726f766520636f6e7472616374206173206f70657261746f60008201527f7200000000000000000000000000000000000000000000000000000000000000602082015250565b600061216f60218361191f565b915061217a82612113565b604082019050919050565b6000602082019050818103600083015261219e81612162565b9050919050565b7f41756374696f6e20636f6e7472616374206f776e65722063616e6e6f7420706560008201527f72666f726d207468697320616374696f6e000000000000000000000000000000602082015250565b600061220160318361191f565b915061220c826121a5565b604082019050919050565b60006020820190508181036000830152612230816121f4565b9050919050565b7f41756374696f6e20686173206e6f742073746172746564000000000000000000600082015250565b600061226d60178361191f565b915061227882612237565b602082019050919050565b6000602082019050818103600083015261229c81612260565b9050919050565b7f4f776e657220686173206e6f74206465706f7369746564204e46540000000000600082015250565b60006122d9601b8361191f565b91506122e4826122a3565b602082019050919050565b60006020820190508181036000830152612308816122cc565b9050919050565b7f42696473206d7573742062652067726561746572207468616e20300000000000600082015250565b6000612345601b8361191f565b91506123508261230f565b602082019050919050565b6000602082019050818103600083015261237481612338565b9050919050565b6000612386826116eb565b9150612391836116eb565b9250827fffffffffffffffffffffffffffffffffffffffffffffffffffffffffffffffff038211156123c6576123c5611e2c565b5b828201905092915050565b7f42696473206d7573742062652061626f7665207468652068696768657374206360008201527f757272656e742062696400000000000000000000000000000000000000000000602082015250565b600061242d602a8361191f565b9150612438826123d1565b604082019050919050565b6000602082019050818103600083015261245c81612420565b905091905056fea26469706673582212204b011402bcf331409de277620e57d994185fd24131dbc60ead976b3c8130ec3264736f6c634300080a0033a2646970667358221220bd51b68321b004c1fbb98200b716cfdf3d32a3f91ee85520b165f27567aa974264736f6c634300080a0033",
  "immutableReferences": {},
  "source": "// SPDX-License-Identifier: GPL-3.0\r\n\r\nimport \"@openzeppelin/contracts/utils/introspection/ERC165.sol\";\r\nimport \"@openzeppelin/contracts/token/ERC721/ERC721.sol\";\r\nimport \"@openzeppelin/contracts/token/ERC721/utils/ERC721Holder.sol\";\r\nimport \"@openzeppelin/contracts/token/ERC721/IERC721Receiver.sol\";\r\nimport \"@openzeppelin/contracts/token/ERC721/IERC721.sol\";\r\n\r\npragma solidity ^0.8.1;\r\n\r\ncontract AuctionFactory {\r\n    event AuctionCreated(address indexed auctionContract, address indexed owner, uint numAuctions); \r\n\r\n    address[] public auctions;\r\n    address erc721Contract;\r\n\r\n    constructor(address _erc721Contract) {\r\n        erc721Contract = _erc721Contract;\r\n    }\r\n\r\n    function getAuctions() public view returns(address[] memory){\r\n        return auctions;\r\n    }\r\n\r\n     function createAuction(uint startTimestamp, uint endTimestamp, uint bidIncrement, uint tokenId) public {\r\n        Auction newAuction = new Auction(startTimestamp, endTimestamp, msg.sender, bidIncrement, erc721Contract, tokenId);\r\n        auctions.push(address(newAuction));\r\n\r\n        emit AuctionCreated(address(newAuction), msg.sender, auctions.length);\r\n    }\r\n}\r\n\r\ncontract Auction is IERC721Receiver, ERC165, ERC721Holder {\r\n    uint startTimestamp;\r\n    uint endTimestamp;\r\n    address public owner;\r\n    uint bidIncrement;\r\n    ERC721 erc721Contract;\r\n    uint tokenId;\r\n\r\n    // state\r\n    bool public canceled;\r\n    address payable public highestBidder;\r\n    mapping(address => uint256) fundsByBidder;\r\n    uint public highestBindingBid;\r\n    bool ownerHasWithdrawn;\r\n    bool ownerHasDeposited;\r\n\r\n    event LogBid(address indexed bidder, uint indexed bid, address indexed highestBidder, uint highestBindingBid);\r\n    event LogWithdrawal(address indexed withdrawer, address indexed withdrawalAccount, uint indexed amount);\r\n    event LogCanceled();\r\n    event LogDeposit();\r\n    event LogTransferOut(address indexed transferTo, uint indexed amount);\r\n\r\n    constructor(uint _startTimestamp, uint _endTimestamp, address _owner, uint _bidIncrement, address _erc721Contract, uint _tokenId) {\r\n        require(_startTimestamp < _endTimestamp, \"Start block must be less than the end block\");\r\n        require(_startTimestamp > block.timestamp, \"Start block  must be greater than the current block\");\r\n\r\n        startTimestamp = _startTimestamp;\r\n        endTimestamp = _endTimestamp;\r\n        owner = _owner;\r\n        bidIncrement = _bidIncrement;\r\n        erc721Contract = ERC721(_erc721Contract);\r\n        tokenId = _tokenId;\r\n\r\n        require(erc721Contract.ownerOf(tokenId) == owner, \"Auction owner must own the NFT token\");\r\n    }\r\n\r\n    modifier onlyNotOwner {\r\n        require(msg.sender != owner, \"Auction contract owner cannot perform this action\");\r\n        _;\r\n    }\r\n\r\n    modifier onlyOwner {\r\n        require(msg.sender == owner, \"Only auction contract owner can perform this action\");\r\n        _;\r\n    }\r\n\r\n    modifier onlyAfterStart {\r\n        require(block.timestamp >= startTimestamp, \"Auction has not started\");\r\n        _;\r\n    }\r\n\r\n    modifier onlyBeforeEnd {\r\n        require(block.timestamp < endTimestamp, \"Auction has ended\");\r\n        _;\r\n    }\r\n\r\n    modifier onlyNotCanceled  {\r\n        require(!canceled, \"Auction has been canceled\");\r\n        _;\r\n    }\r\n\r\n    modifier onlyEndedOrCanceled {\r\n        require(block.timestamp > endTimestamp && !canceled, \"Auction has not ended or been canceled\");\r\n        _;\r\n    }\r\n\r\n    modifier onlyDeposited {\r\n        require(ownerHasDeposited, \"Owner has not deposited NFT\");\r\n        _;\r\n    }\r\n\r\n    modifier onlyNotDeposited {\r\n        require(!ownerHasDeposited, \"Owner has deposited NFT\");\r\n        _;\r\n    }\r\n\r\n    function min(uint256 a, uint256 b) internal pure returns (uint256) {\r\n        return a < b ? a : b;\r\n    }\r\n\r\n    function deposit() public onlyOwner onlyNotDeposited onlyBeforeEnd onlyNotCanceled {\r\n        // Transfer ownership of NFT to contract\r\n        require(erc721Contract.ownerOf(tokenId) == msg.sender, \"Caller must own the NFT token\");\r\n        require(erc721Contract.getApproved(tokenId)  == address(this), \"Must approve contract as operator\");\r\n\r\n        erc721Contract.safeTransferFrom(msg.sender, address(this), tokenId);\r\n        ownerHasDeposited = true;\r\n        emit LogDeposit();\r\n    }\r\n    \r\n\r\n    function placeBid() public payable onlyNotOwner onlyAfterStart onlyBeforeEnd onlyNotCanceled onlyDeposited{\r\n        require(msg.value > 0, \"Bids must be greater than 0\");\r\n\r\n        uint newBid = fundsByBidder[msg.sender] + msg.value;\r\n        require(newBid > highestBindingBid, \"Bids must be above the highest current bid\");\r\n\r\n        // Increment the senders bid \r\n        fundsByBidder[msg.sender] += msg.value;\r\n\r\n        uint currentHighestBid = fundsByBidder[highestBidder];\r\n        if(currentHighestBid > newBid){\r\n            highestBindingBid = min(newBid + bidIncrement, currentHighestBid);\r\n        } else {\r\n            if (msg.sender != highestBidder) {\r\n                highestBidder = payable(msg.sender);\r\n                highestBindingBid = min(newBid, currentHighestBid + bidIncrement);\r\n            }\r\n\r\n            currentHighestBid = newBid;\r\n        }\r\n\r\n        emit LogBid(msg.sender, newBid, highestBidder, highestBindingBid);\r\n    }\r\n\r\n    function withdraw() public onlyEndedOrCanceled {\r\n        address payable withdrawalAccount;\r\n        uint withdrawalAmount;\r\n\r\n        if (canceled) {\r\n            // if the auction was canceled, everyone should simply be allowed to withdraw their funds\r\n            withdrawalAccount = payable(msg.sender);\r\n            withdrawalAmount = fundsByBidder[withdrawalAccount];\r\n        } else {\r\n            if(msg.sender == owner){\r\n                require(!ownerHasWithdrawn, \"Owner has already withdrawn\");\r\n                withdrawalAccount = highestBidder;\r\n                withdrawalAmount = highestBindingBid;\r\n\r\n                address transferTo = highestBidder;\r\n                if(highestBindingBid == 0) transferTo = owner;\r\n                erc721Contract.safeTransferFrom(address(this), transferTo, tokenId);\r\n                ownerHasWithdrawn = true;\r\n\r\n                emit LogTransferOut(transferTo, highestBindingBid);\r\n            } else {\r\n                if( msg.sender == highestBidder) require(ownerHasWithdrawn, \"Must wait for owner to wthdraw\");\r\n\r\n                withdrawalAccount = payable(msg.sender);\r\n                withdrawalAmount = fundsByBidder[msg.sender];\r\n            }\r\n        }\r\n\r\n        if(msg.sender != owner){\r\n            require(withdrawalAmount > 0, \"Withdrawal amount for this address is 0\");\r\n            withdrawalAccount.transfer(withdrawalAmount);\r\n            fundsByBidder[withdrawalAccount] -= withdrawalAmount;\r\n        }\r\n\r\n        emit LogWithdrawal(msg.sender, withdrawalAccount, withdrawalAmount);\r\n    }\r\n\r\n    function cancel() public onlyOwner onlyNotCanceled onlyBeforeEnd {\r\n        canceled = true;\r\n        if(ownerHasDeposited) erc721Contract.safeTransferFrom(address(this), owner, tokenId);\r\n\r\n        emit LogCanceled();\r\n    }\r\n\r\n    function tokenURI() public view returns (string memory) {\r\n        return erc721Contract.tokenURI(tokenId);\r\n    }\r\n\r\n    function getSummary() public view returns(uint, uint, uint, uint, string memory, address, bool, address, address, uint, uint, bool){\r\n        return (\r\n            block.timestamp,\r\n            startTimestamp,\r\n            endTimestamp,\r\n            tokenId,\r\n            tokenURI(),\r\n            address(erc721Contract),\r\n            ownerHasDeposited,\r\n            owner,\r\n            highestBidder,\r\n            highestBindingBid,\r\n            bidIncrement,\r\n            canceled\r\n        );\r\n    }\r\n}",
  "sourcePath": "C:\\Users\\Charaka\\Desktop\\Coding\\Blockchain\\nft-auction\\contracts\\Auction.sol",
  "compiler": {
    "name": "solc",
    "version": "0.8.10+commit.fc410830.Emscripten.clang"
  },
  "schemaVersion": "3.4.4",
  "updatedAt": "2022-01-04T18:15:37.537Z",
  "devdoc": {
    "kind": "dev",
    "methods": {},
    "version": 1
  },
  "userdoc": {
    "kind": "user",
    "methods": {},
    "version": 1
  }
}