{
  "contractName": "AuctionFactory",
  "abi": [
    {
      "inputs": [
        {
          "internalType": "address",
          "name": "_erc721Contract",
          "type": "address"
        }
      ],
      "stateMutability": "nonpayable",
      "type": "constructor"
    },
    {
      "anonymous": false,
      "inputs": [
        {
          "indexed": true,
          "internalType": "address",
          "name": "auctionContract",
          "type": "address"
        },
        {
          "indexed": true,
          "internalType": "address",
          "name": "owner",
          "type": "address"
        },
        {
          "indexed": false,
          "internalType": "uint256",
          "name": "numAuctions",
          "type": "uint256"
        }
      ],
      "name": "AuctionCreated",
      "type": "event"
    },
    {
      "inputs": [
        {
          "internalType": "uint256",
          "name": "",
          "type": "uint256"
        }
      ],
      "name": "auctions",
      "outputs": [
        {
          "internalType": "address",
          "name": "",
          "type": "address"
        }
      ],
      "stateMutability": "view",
      "type": "function"
    },
    {
      "inputs": [],
      "name": "getAuctions",
      "outputs": [
        {
          "internalType": "address[]",
          "name": "",
          "type": "address[]"
        }
      ],
      "stateMutability": "view",
      "type": "function"
    },
    {
      "inputs": [
        {
          "internalType": "uint256",
          "name": "startBlock",
          "type": "uint256"
        },
        {
          "internalType": "uint256",
          "name": "endBlock",
          "type": "uint256"
        },
        {
          "internalType": "uint256",
          "name": "bidIncrement",
          "type": "uint256"
        },
        {
          "internalType": "uint256",
          "name": "tokenId",
          "type": "uint256"
        }
      ],
      "name": "createAuction",
      "outputs": [],
      "stateMutability": "nonpayable",
      "type": "function"
    },
    {
      "inputs": [],
      "name": "getCurrentBlock",
      "outputs": [
        {
          "internalType": "uint256",
          "name": "",
          "type": "uint256"
        }
      ],
      "stateMutability": "view",
      "type": "function"
    }
  ],
  "bytecode": "0x608060405234801561001057600080fd5b5060405161330b38038061330b833981810160405281019061003291906100dc565b80600160006101000a81548173ffffffffffffffffffffffffffffffffffffffff021916908373ffffffffffffffffffffffffffffffffffffffff16021790555050610109565b600080fd5b600073ffffffffffffffffffffffffffffffffffffffff82169050919050565b60006100a98261007e565b9050919050565b6100b98161009e565b81146100c457600080fd5b50565b6000815190506100d6816100b0565b92915050565b6000602082840312156100f2576100f1610079565b5b6000610100848285016100c7565b91505092915050565b6131f3806101186000396000f3fe60806040523480156200001157600080fd5b5060043610620000525760003560e01c8063431f21da1462000057578063571a26a01462000077578063672d5d3b14620000ad578063d7c0691914620000cf575b600080fd5b6200007560048036038101906200006f919062000356565b620000f1565b005b6200009560048036038101906200008f9190620003c8565b62000230565b604051620000a491906200043f565b60405180910390f35b620000b762000270565b604051620000c691906200046d565b60405180910390f35b620000d962000278565b604051620000e8919062000558565b60405180910390f35b600084843385600160009054906101000a900473ffffffffffffffffffffffffffffffffffffffff1686604051620001299062000308565b6200013a969594939291906200057c565b604051809103906000f08015801562000157573d6000803e3d6000fd5b5090506000819080600181540180825580915050600190039060005260206000200160009091909190916101000a81548173ffffffffffffffffffffffffffffffffffffffff021916908373ffffffffffffffffffffffffffffffffffffffff1602179055503373ffffffffffffffffffffffffffffffffffffffff168173ffffffffffffffffffffffffffffffffffffffff167f261f6e6830ed857876d5aa4eca876ccf116d09b91a6675e3e1a1920d53ef585e6000805490506040516200022191906200046d565b60405180910390a35050505050565b600081815481106200024157600080fd5b906000526020600020016000915054906101000a900473ffffffffffffffffffffffffffffffffffffffff1681565b600043905090565b60606000805480602002602001604051908101604052809291908181526020018280548015620002fe57602002820191906000526020600020905b8160009054906101000a900473ffffffffffffffffffffffffffffffffffffffff1673ffffffffffffffffffffffffffffffffffffffff1681526020019060010190808311620002b3575b5050505050905090565b612bd480620005ea83390190565b600080fd5b6000819050919050565b62000330816200031b565b81146200033c57600080fd5b50565b600081359050620003508162000325565b92915050565b6000806000806080858703121562000373576200037262000316565b5b600062000383878288016200033f565b945050602062000396878288016200033f565b9350506040620003a9878288016200033f565b9250506060620003bc878288016200033f565b91505092959194509250565b600060208284031215620003e157620003e062000316565b5b6000620003f1848285016200033f565b91505092915050565b600073ffffffffffffffffffffffffffffffffffffffff82169050919050565b60006200042782620003fa565b9050919050565b62000439816200041a565b82525050565b60006020820190506200045660008301846200042e565b92915050565b62000467816200031b565b82525050565b60006020820190506200048460008301846200045c565b92915050565b600081519050919050565b600082825260208201905092915050565b6000819050602082019050919050565b620004c1816200041a565b82525050565b6000620004d58383620004b6565b60208301905092915050565b6000602082019050919050565b6000620004fb826200048a565b62000507818562000495565b93506200051483620004a6565b8060005b838110156200054b5781516200052f8882620004c7565b97506200053c83620004e1565b92505060018101905062000518565b5085935050505092915050565b60006020820190508181036000830152620005748184620004ee565b905092915050565b600060c0820190506200059360008301896200045c565b620005a260208301886200045c565b620005b160408301876200042e565b620005c060608301866200045c565b620005cf60808301856200042e565b620005de60a08301846200045c565b97965050505050505056fe60806040523480156200001157600080fd5b5060405162002bd438038062002bd4833981810160405281019062000037919062000345565b8486106200007c576040517f08c379a0000000000000000000000000000000000000000000000000000000008152600401620000739062000468565b60405180910390fd5b438611620000c1576040517f08c379a0000000000000000000000000000000000000000000000000000000008152600401620000b89062000500565b60405180910390fd5b856000819055508460018190555083600260006101000a81548173ffffffffffffffffffffffffffffffffffffffff021916908373ffffffffffffffffffffffffffffffffffffffff1602179055508260038190555081600460006101000a81548173ffffffffffffffffffffffffffffffffffffffff021916908373ffffffffffffffffffffffffffffffffffffffff16021790555080600581905550600260009054906101000a900473ffffffffffffffffffffffffffffffffffffffff1673ffffffffffffffffffffffffffffffffffffffff16600460009054906101000a900473ffffffffffffffffffffffffffffffffffffffff1673ffffffffffffffffffffffffffffffffffffffff16636352211e6005546040518263ffffffff1660e01b8152600401620001f7919062000533565b602060405180830381865afa15801562000215573d6000803e3d6000fd5b505050506040513d601f19601f820116820180604052508101906200023b919062000550565b73ffffffffffffffffffffffffffffffffffffffff161462000294576040517f08c379a00000000000000000000000000000000000000000000000000000000081526004016200028b90620005f8565b60405180910390fd5b5050505050506200061a565b600080fd5b6000819050919050565b620002ba81620002a5565b8114620002c657600080fd5b50565b600081519050620002da81620002af565b92915050565b600073ffffffffffffffffffffffffffffffffffffffff82169050919050565b60006200030d82620002e0565b9050919050565b6200031f8162000300565b81146200032b57600080fd5b50565b6000815190506200033f8162000314565b92915050565b60008060008060008060c08789031215620003655762000364620002a0565b5b60006200037589828a01620002c9565b96505060206200038889828a01620002c9565b95505060406200039b89828a016200032e565b9450506060620003ae89828a01620002c9565b9350506080620003c189828a016200032e565b92505060a0620003d489828a01620002c9565b9150509295509295509295565b600082825260208201905092915050565b7f537461727420626c6f636b206d757374206265206c657373207468616e20746860008201527f6520656e6420626c6f636b000000000000000000000000000000000000000000602082015250565b600062000450602b83620003e1565b91506200045d82620003f2565b604082019050919050565b60006020820190508181036000830152620004838162000441565b9050919050565b7f537461727420626c6f636b20206d75737420626520677265617465722074686160008201527f6e207468652063757272656e7420626c6f636b00000000000000000000000000602082015250565b6000620004e8603383620003e1565b9150620004f5826200048a565b604082019050919050565b600060208201905081810360008301526200051b81620004d9565b9050919050565b6200052d81620002a5565b82525050565b60006020820190506200054a600083018462000522565b92915050565b600060208284031215620005695762000568620002a0565b5b600062000579848285016200032e565b91505092915050565b7f41756374696f6e206f776e6572206d757374206f776e20746865204e4654207460008201527f6f6b656e00000000000000000000000000000000000000000000000000000000602082015250565b6000620005e0602483620003e1565b9150620005ed8262000582565b604082019050919050565b600060208201905081810360008301526200061381620005d1565b9050919050565b6125aa806200062a6000396000f3fe6080604052600436106100fe5760003560e01c80638da5cb5b11610095578063d0e30db011610064578063d0e30db014610329578063d7c97fb414610340578063ea8a1af01461036b578063ecfc7ecc14610382578063f5b56c561461038c576100fe565b80638da5cb5b1461026b57806391f9015714610296578063b3cc167a146102c1578063ce10cf80146102ec576100fe565b80633c130d90116100d15780633c130d90146101d35780633ccfd60b146101fe5780633f9942ff1461021557806348cd4cb114610240576100fe565b806301ffc9a714610103578063083c632314610140578063150b7a021461016b57806317d70f7c146101a8575b600080fd5b34801561010f57600080fd5b5061012a60048036038101906101259190611703565b6103b7565b604051610137919061174b565b60405180910390f35b34801561014c57600080fd5b50610155610421565b604051610162919061177f565b60405180910390f35b34801561017757600080fd5b50610192600480360381019061018d919061196a565b610427565b60405161019f91906119fc565b60405180910390f35b3480156101b457600080fd5b506101bd61043b565b6040516101ca919061177f565b60405180910390f35b3480156101df57600080fd5b506101e8610441565b6040516101f59190611a9f565b60405180910390f35b34801561020a57600080fd5b506102136104eb565b005b34801561022157600080fd5b5061022a610a43565b604051610237919061174b565b60405180910390f35b34801561024c57600080fd5b50610255610a56565b604051610262919061177f565b60405180910390f35b34801561027757600080fd5b50610280610a5c565b60405161028d9190611ad0565b60405180910390f35b3480156102a257600080fd5b506102ab610a82565b6040516102b89190611b0c565b60405180910390f35b3480156102cd57600080fd5b506102d6610aa8565b6040516102e3919061177f565b60405180910390f35b3480156102f857600080fd5b50610313600480360381019061030e9190611b27565b610aae565b604051610320919061177f565b60405180910390f35b34801561033557600080fd5b5061033e610ac6565b005b34801561034c57600080fd5b50610355610f5d565b6040516103629190611bb3565b60405180910390f35b34801561037757600080fd5b50610380610f83565b005b61038a6111bb565b005b34801561039857600080fd5b506103a1611678565b6040516103ae919061177f565b60405180910390f35b60007f01ffc9a7000000000000000000000000000000000000000000000000000000007bffffffffffffffffffffffffffffffffffffffffffffffffffffffff1916827bffffffffffffffffffffffffffffffffffffffffffffffffffffffff1916149050919050565b60015481565b600063150b7a0260e01b9050949350505050565b60055481565b6060600460009054906101000a900473ffffffffffffffffffffffffffffffffffffffff1673ffffffffffffffffffffffffffffffffffffffff1663c87b56dd6005546040518263ffffffff1660e01b81526004016104a0919061177f565b600060405180830381865afa1580156104bd573d6000803e3d6000fd5b505050506040513d6000823e3d601f19601f820116820180604052508101906104e69190611c6f565b905090565b600154431180156105095750600660009054906101000a900460ff16155b610548576040517f08c379a000000000000000000000000000000000000000000000000000000000815260040161053f90611d2a565b60405180910390fd5b600080600660009054906101000a900460ff16156105aa57339150600760008373ffffffffffffffffffffffffffffffffffffffff1673ffffffffffffffffffffffffffffffffffffffff1681526020019081526020016000205490506108ae565b600260009054906101000a900473ffffffffffffffffffffffffffffffffffffffff1673ffffffffffffffffffffffffffffffffffffffff163373ffffffffffffffffffffffffffffffffffffffff1614156107c157600960009054906101000a900460ff1615610650576040517f08c379a000000000000000000000000000000000000000000000000000000000815260040161064790611d96565b60405180910390fd5b600660019054906101000a900473ffffffffffffffffffffffffffffffffffffffff16915060085490506000600660019054906101000a900473ffffffffffffffffffffffffffffffffffffffff169050600060085414156106d257600260009054906101000a900473ffffffffffffffffffffffffffffffffffffffff1690505b600460009054906101000a900473ffffffffffffffffffffffffffffffffffffffff1673ffffffffffffffffffffffffffffffffffffffff166342842e0e30836005546040518463ffffffff1660e01b815260040161073393929190611db6565b600060405180830381600087803b15801561074d57600080fd5b505af1158015610761573d6000803e3d6000fd5b505050506001600960006101000a81548160ff0219169083151502179055507f44e2ab5a6cfe856e15b49f53aec49ff1d9d164735554befaac76ac4dec58af93816008546040516107b3929190611ded565b60405180910390a1506108ad565b600660019054906101000a900473ffffffffffffffffffffffffffffffffffffffff1673ffffffffffffffffffffffffffffffffffffffff163373ffffffffffffffffffffffffffffffffffffffff16141561086757600960009054906101000a900460ff16610866576040517f08c379a000000000000000000000000000000000000000000000000000000000815260040161085d90611e62565b60405180910390fd5b5b339150600760003373ffffffffffffffffffffffffffffffffffffffff1673ffffffffffffffffffffffffffffffffffffffff1681526020019081526020016000205490505b5b600260009054906101000a900473ffffffffffffffffffffffffffffffffffffffff1673ffffffffffffffffffffffffffffffffffffffff163373ffffffffffffffffffffffffffffffffffffffff16146109e45760008111610946576040517f08c379a000000000000000000000000000000000000000000000000000000000815260040161093d90611ef4565b60405180910390fd5b8173ffffffffffffffffffffffffffffffffffffffff166108fc829081150290604051600060405180830381858888f1935050505015801561098c573d6000803e3d6000fd5b5080600760008473ffffffffffffffffffffffffffffffffffffffff1673ffffffffffffffffffffffffffffffffffffffff16815260200190815260200160002060008282546109dc9190611f43565b925050819055505b808273ffffffffffffffffffffffffffffffffffffffff163373ffffffffffffffffffffffffffffffffffffffff167f0ec497a8ae5b1ba29c60470ef651def995fac3deebbdcc56c47a4e5f51a4c2bd60405160405180910390a45050565b600660009054906101000a900460ff1681565b60005481565b600260009054906101000a900473ffffffffffffffffffffffffffffffffffffffff1681565b600660019054906101000a900473ffffffffffffffffffffffffffffffffffffffff1681565b60035481565b60076020528060005260406000206000915090505481565b600260009054906101000a900473ffffffffffffffffffffffffffffffffffffffff1673ffffffffffffffffffffffffffffffffffffffff163373ffffffffffffffffffffffffffffffffffffffff1614610b56576040517f08c379a0000000000000000000000000000000000000000000000000000000008152600401610b4d90611fe9565b60405180910390fd5b600960019054906101000a900460ff1615610ba6576040517f08c379a0000000000000000000000000000000000000000000000000000000008152600401610b9d90612055565b60405180910390fd5b6001544310610bea576040517f08c379a0000000000000000000000000000000000000000000000000000000008152600401610be1906120c1565b60405180910390fd5b600660009054906101000a900460ff1615610c3a576040517f08c379a0000000000000000000000000000000000000000000000000000000008152600401610c319061212d565b60405180910390fd5b3373ffffffffffffffffffffffffffffffffffffffff16600460009054906101000a900473ffffffffffffffffffffffffffffffffffffffff1673ffffffffffffffffffffffffffffffffffffffff16636352211e6005546040518263ffffffff1660e01b8152600401610cae919061177f565b602060405180830381865afa158015610ccb573d6000803e3d6000fd5b505050506040513d601f19601f82011682018060405250810190610cef9190612162565b73ffffffffffffffffffffffffffffffffffffffff1614610d45576040517f08c379a0000000000000000000000000000000000000000000000000000000008152600401610d3c906121db565b60405180910390fd5b3073ffffffffffffffffffffffffffffffffffffffff16600460009054906101000a900473ffffffffffffffffffffffffffffffffffffffff1673ffffffffffffffffffffffffffffffffffffffff1663081812fc6005546040518263ffffffff1660e01b8152600401610db9919061177f565b602060405180830381865afa158015610dd6573d6000803e3d6000fd5b505050506040513d601f19601f82011682018060405250810190610dfa9190612162565b73ffffffffffffffffffffffffffffffffffffffff1614610e50576040517f08c379a0000000000000000000000000000000000000000000000000000000008152600401610e479061226d565b60405180910390fd5b600460009054906101000a900473ffffffffffffffffffffffffffffffffffffffff1673ffffffffffffffffffffffffffffffffffffffff166342842e0e33306005546040518463ffffffff1660e01b8152600401610eb193929190611db6565b600060405180830381600087803b158015610ecb57600080fd5b505af1158015610edf573d6000803e3d6000fd5b505050506001600960016101000a81548160ff0219169083151502179055507f1b851e1031ef35a238e6c67d0c7991162390df915f70eaf9098dbf0b175a6198600260009054906101000a900473ffffffffffffffffffffffffffffffffffffffff16600554604051610f53929190611ded565b60405180910390a1565b600460009054906101000a900473ffffffffffffffffffffffffffffffffffffffff1681565b600260009054906101000a900473ffffffffffffffffffffffffffffffffffffffff1673ffffffffffffffffffffffffffffffffffffffff163373ffffffffffffffffffffffffffffffffffffffff1614611013576040517f08c379a000000000000000000000000000000000000000000000000000000000815260040161100a90611fe9565b60405180910390fd5b600660009054906101000a900460ff1615611063576040517f08c379a000000000000000000000000000000000000000000000000000000000815260040161105a9061212d565b60405180910390fd5b60015443106110a7576040517f08c379a000000000000000000000000000000000000000000000000000000000815260040161109e906120c1565b60405180910390fd5b6001600660006101000a81548160ff021916908315150217905550600960019054906101000a900460ff161561118d57600460009054906101000a900473ffffffffffffffffffffffffffffffffffffffff1673ffffffffffffffffffffffffffffffffffffffff166342842e0e30600260009054906101000a900473ffffffffffffffffffffffffffffffffffffffff166005546040518463ffffffff1660e01b815260040161115a93929190611db6565b600060405180830381600087803b15801561117457600080fd5b505af1158015611188573d6000803e3d6000fd5b505050505b7f462b6ca7f632601af1295aeb320851f50e8e630a309173f23535845ea4bfb3b960405160405180910390a1565b600260009054906101000a900473ffffffffffffffffffffffffffffffffffffffff1673ffffffffffffffffffffffffffffffffffffffff163373ffffffffffffffffffffffffffffffffffffffff16141561124c576040517f08c379a0000000000000000000000000000000000000000000000000000000008152600401611243906122ff565b60405180910390fd5b600054431015611291576040517f08c379a00000000000000000000000000000000000000000000000000000000081526004016112889061236b565b60405180910390fd5b60015443106112d5576040517f08c379a00000000000000000000000000000000000000000000000000000000081526004016112cc906120c1565b60405180910390fd5b600660009054906101000a900460ff1615611325576040517f08c379a000000000000000000000000000000000000000000000000000000000815260040161131c9061212d565b60405180910390fd5b600960019054906101000a900460ff16611374576040517f08c379a000000000000000000000000000000000000000000000000000000000815260040161136b906123d7565b60405180910390fd5b600034116113b7576040517f08c379a00000000000000000000000000000000000000000000000000000000081526004016113ae90612443565b60405180910390fd5b600034600760003373ffffffffffffffffffffffffffffffffffffffff1673ffffffffffffffffffffffffffffffffffffffff168152602001908152602001600020546114049190612463565b9050600854811161144a576040517f08c379a00000000000000000000000000000000000000000000000000000000081526004016114419061252b565b60405180910390fd5b34600760003373ffffffffffffffffffffffffffffffffffffffff1673ffffffffffffffffffffffffffffffffffffffff16815260200190815260200160002060008282546114999190612463565b92505081905550600060076000600660019054906101000a900473ffffffffffffffffffffffffffffffffffffffff1673ffffffffffffffffffffffffffffffffffffffff1673ffffffffffffffffffffffffffffffffffffffff16815260200190815260200160002054905081811115611530576115256003548361151f9190612463565b8261167e565b6008819055506115e8565b600660019054906101000a900473ffffffffffffffffffffffffffffffffffffffff1673ffffffffffffffffffffffffffffffffffffffff163373ffffffffffffffffffffffffffffffffffffffff16146115e45733600660016101000a81548173ffffffffffffffffffffffffffffffffffffffff021916908373ffffffffffffffffffffffffffffffffffffffff1602179055506115dd82600354836115d89190612463565b61167e565b6008819055505b8190505b600660019054906101000a900473ffffffffffffffffffffffffffffffffffffffff1673ffffffffffffffffffffffffffffffffffffffff16823373ffffffffffffffffffffffffffffffffffffffff167ff152f4ff5e488c55370a2d53925a55055228ebd8ec95bd0251bbb299e48786b08460085460405161166c92919061254b565b60405180910390a45050565b60085481565b600081831061168d578161168f565b825b905092915050565b6000604051905090565b600080fd5b600080fd5b60007fffffffff0000000000000000000000000000000000000000000000000000000082169050919050565b6116e0816116ab565b81146116eb57600080fd5b50565b6000813590506116fd816116d7565b92915050565b600060208284031215611719576117186116a1565b5b6000611727848285016116ee565b91505092915050565b60008115159050919050565b61174581611730565b82525050565b6000602082019050611760600083018461173c565b92915050565b6000819050919050565b61177981611766565b82525050565b60006020820190506117946000830184611770565b92915050565b600073ffffffffffffffffffffffffffffffffffffffff82169050919050565b60006117c58261179a565b9050919050565b6117d5816117ba565b81146117e057600080fd5b50565b6000813590506117f2816117cc565b92915050565b61180181611766565b811461180c57600080fd5b50565b60008135905061181e816117f8565b92915050565b600080fd5b600080fd5b6000601f19601f8301169050919050565b7f4e487b7100000000000000000000000000000000000000000000000000000000600052604160045260246000fd5b6118778261182e565b810181811067ffffffffffffffff821117156118965761189561183f565b5b80604052505050565b60006118a9611697565b90506118b5828261186e565b919050565b600067ffffffffffffffff8211156118d5576118d461183f565b5b6118de8261182e565b9050602081019050919050565b82818337600083830152505050565b600061190d611908846118ba565b61189f565b90508281526020810184848401111561192957611928611829565b5b6119348482856118eb565b509392505050565b600082601f83011261195157611950611824565b5b81356119618482602086016118fa565b91505092915050565b60008060008060808587031215611984576119836116a1565b5b6000611992878288016117e3565b94505060206119a3878288016117e3565b93505060406119b48782880161180f565b925050606085013567ffffffffffffffff8111156119d5576119d46116a6565b5b6119e18782880161193c565b91505092959194509250565b6119f6816116ab565b82525050565b6000602082019050611a1160008301846119ed565b92915050565b600081519050919050565b600082825260208201905092915050565b60005b83811015611a51578082015181840152602081019050611a36565b83811115611a60576000848401525b50505050565b6000611a7182611a17565b611a7b8185611a22565b9350611a8b818560208601611a33565b611a948161182e565b840191505092915050565b60006020820190508181036000830152611ab98184611a66565b905092915050565b611aca816117ba565b82525050565b6000602082019050611ae56000830184611ac1565b92915050565b6000611af68261179a565b9050919050565b611b0681611aeb565b82525050565b6000602082019050611b216000830184611afd565b92915050565b600060208284031215611b3d57611b3c6116a1565b5b6000611b4b848285016117e3565b91505092915050565b6000819050919050565b6000611b79611b74611b6f8461179a565b611b54565b61179a565b9050919050565b6000611b8b82611b5e565b9050919050565b6000611b9d82611b80565b9050919050565b611bad81611b92565b82525050565b6000602082019050611bc86000830184611ba4565b92915050565b600067ffffffffffffffff821115611be957611be861183f565b5b611bf28261182e565b9050602081019050919050565b6000611c12611c0d84611bce565b61189f565b905082815260208101848484011115611c2e57611c2d611829565b5b611c39848285611a33565b509392505050565b600082601f830112611c5657611c55611824565b5b8151611c66848260208601611bff565b91505092915050565b600060208284031215611c8557611c846116a1565b5b600082015167ffffffffffffffff811115611ca357611ca26116a6565b5b611caf84828501611c41565b91505092915050565b7f41756374696f6e20686173206e6f7420656e646564206f72206265656e20636160008201527f6e63656c65640000000000000000000000000000000000000000000000000000602082015250565b6000611d14602683611a22565b9150611d1f82611cb8565b604082019050919050565b60006020820190508181036000830152611d4381611d07565b9050919050565b7f4f776e65722068617320616c72656164792077697468647261776e0000000000600082015250565b6000611d80601b83611a22565b9150611d8b82611d4a565b602082019050919050565b60006020820190508181036000830152611daf81611d73565b9050919050565b6000606082019050611dcb6000830186611ac1565b611dd86020830185611ac1565b611de56040830184611770565b949350505050565b6000604082019050611e026000830185611ac1565b611e0f6020830184611770565b9392505050565b7f4d757374207761697420666f72206f776e657220746f20777468647261770000600082015250565b6000611e4c601e83611a22565b9150611e5782611e16565b602082019050919050565b60006020820190508181036000830152611e7b81611e3f565b9050919050565b7f5769746864726177616c20616d6f756e7420666f72207468697320616464726560008201527f7373206973203000000000000000000000000000000000000000000000000000602082015250565b6000611ede602783611a22565b9150611ee982611e82565b604082019050919050565b60006020820190508181036000830152611f0d81611ed1565b9050919050565b7f4e487b7100000000000000000000000000000000000000000000000000000000600052601160045260246000fd5b6000611f4e82611766565b9150611f5983611766565b925082821015611f6c57611f6b611f14565b5b828203905092915050565b7f4f6e6c792061756374696f6e20636f6e7472616374206f776e65722063616e2060008201527f706572666f726d207468697320616374696f6e00000000000000000000000000602082015250565b6000611fd3603383611a22565b9150611fde82611f77565b604082019050919050565b6000602082019050818103600083015261200281611fc6565b9050919050565b7f4f776e657220686173206465706f7369746564204e4654000000000000000000600082015250565b600061203f601783611a22565b915061204a82612009565b602082019050919050565b6000602082019050818103600083015261206e81612032565b9050919050565b7f41756374696f6e2068617320656e646564000000000000000000000000000000600082015250565b60006120ab601183611a22565b91506120b682612075565b602082019050919050565b600060208201905081810360008301526120da8161209e565b9050919050565b7f41756374696f6e20686173206265656e2063616e63656c656400000000000000600082015250565b6000612117601983611a22565b9150612122826120e1565b602082019050919050565b600060208201905081810360008301526121468161210a565b9050919050565b60008151905061215c816117cc565b92915050565b600060208284031215612178576121776116a1565b5b60006121868482850161214d565b91505092915050565b7f43616c6c6572206d757374206f776e20746865204e465420746f6b656e000000600082015250565b60006121c5601d83611a22565b91506121d08261218f565b602082019050919050565b600060208201905081810360008301526121f4816121b8565b9050919050565b7f4d75737420617070726f766520636f6e7472616374206173206f70657261746f60008201527f7200000000000000000000000000000000000000000000000000000000000000602082015250565b6000612257602183611a22565b9150612262826121fb565b604082019050919050565b600060208201905081810360008301526122868161224a565b9050919050565b7f41756374696f6e20636f6e7472616374206f776e65722063616e6e6f7420706560008201527f72666f726d207468697320616374696f6e000000000000000000000000000000602082015250565b60006122e9603183611a22565b91506122f48261228d565b604082019050919050565b60006020820190508181036000830152612318816122dc565b9050919050565b7f41756374696f6e20686173206e6f742073746172746564000000000000000000600082015250565b6000612355601783611a22565b91506123608261231f565b602082019050919050565b6000602082019050818103600083015261238481612348565b9050919050565b7f4f776e657220686173206e6f74206465706f7369746564204e46540000000000600082015250565b60006123c1601b83611a22565b91506123cc8261238b565b602082019050919050565b600060208201905081810360008301526123f0816123b4565b9050919050565b7f42696473206d7573742062652067726561746572207468616e20300000000000600082015250565b600061242d601b83611a22565b9150612438826123f7565b602082019050919050565b6000602082019050818103600083015261245c81612420565b9050919050565b600061246e82611766565b915061247983611766565b9250827fffffffffffffffffffffffffffffffffffffffffffffffffffffffffffffffff038211156124ae576124ad611f14565b5b828201905092915050565b7f42696473206d7573742062652061626f7665207468652068696768657374206360008201527f757272656e742062696400000000000000000000000000000000000000000000602082015250565b6000612515602a83611a22565b9150612520826124b9565b604082019050919050565b6000602082019050818103600083015261254481612508565b9050919050565b60006040820190506125606000830185611770565b61256d6020830184611770565b939250505056fea264697066735822122007cb04ba52e63d647ce08620103895bb73e4999298c9b46598f748a1b624698364736f6c634300080a0033a26469706673582212201a431897f9b12a1d16bffee21abea8bec5a907402d168cde065f6f5b3157fb0064736f6c634300080a0033",
  "immutableReferences": {},
  "source": "// SPDX-License-Identifier: GPL-3.0\r\n\r\nimport \"@openzeppelin/contracts/utils/introspection/ERC165.sol\";\r\nimport \"@openzeppelin/contracts/token/ERC721/ERC721.sol\";\r\nimport \"@openzeppelin/contracts/token/ERC721/utils/ERC721Holder.sol\";\r\nimport \"@openzeppelin/contracts/token/ERC721/IERC721Receiver.sol\";\r\nimport \"@openzeppelin/contracts/token/ERC721/IERC721.sol\";\r\n\r\npragma solidity ^0.8.1;\r\n\r\ncontract AuctionFactory {\r\n    event AuctionCreated(address indexed auctionContract, address indexed owner, uint numAuctions); \r\n\r\n    address[] public auctions;\r\n    address erc721Contract;\r\n\r\n    constructor(address _erc721Contract) {\r\n        erc721Contract = _erc721Contract;\r\n    }\r\n\r\n    function getAuctions() public view returns(address[] memory){\r\n        return auctions;\r\n    }\r\n\r\n     function createAuction(uint startBlock, uint endBlock, uint bidIncrement, uint tokenId) public {\r\n        Auction newAuction = new Auction(startBlock, endBlock, msg.sender, bidIncrement, erc721Contract, tokenId);\r\n        auctions.push(address(newAuction));\r\n\r\n        emit AuctionCreated(address(newAuction), msg.sender, auctions.length);\r\n    }\r\n\r\n    function getCurrentBlock() public view returns(uint){\r\n        return block.number;\r\n    }\r\n}\r\n\r\ncontract Auction is IERC721Receiver, ERC165, ERC721Holder {\r\n    uint public startBlock;\r\n    uint public endBlock;\r\n    address public owner;\r\n    uint public bidIncrement;\r\n    ERC721 public erc721Contract;\r\n    uint public tokenId;\r\n\r\n    // state\r\n    bool public canceled;\r\n    address payable public highestBidder;\r\n    mapping(address => uint256) public fundsByBidder;\r\n    uint public highestBindingBid;\r\n    bool ownerHasWithdrawn;\r\n    bool ownerHasDeposited;\r\n\r\n    event LogBid(address indexed bidder, uint indexed bid, address indexed highestBidder, uint highestBid, uint highestBindingBid);\r\n    event LogWithdrawal(address indexed withdrawer, address indexed withdrawalAccount, uint indexed amount);\r\n    event LogCanceled();\r\n    event LogDeposit(address owner, uint tokenId);\r\n    event LogTransferOut(address transferTo, uint amount);\r\n\r\n    constructor(uint _startBlock, uint _endBlock, address _owner, uint _bidIncrement, address _erc721Contract, uint _tokenId) {\r\n        require(_startBlock < _endBlock, \"Start block must be less than the end block\");\r\n        require(_startBlock > block.number, \"Start block  must be greater than the current block\");\r\n\r\n        startBlock = _startBlock;\r\n        endBlock = _endBlock;\r\n        owner = _owner;\r\n        bidIncrement = _bidIncrement;\r\n        erc721Contract = ERC721(_erc721Contract);\r\n        tokenId = _tokenId;\r\n\r\n        require(erc721Contract.ownerOf(tokenId) == owner, \"Auction owner must own the NFT token\");\r\n    }\r\n\r\n    modifier onlyNotOwner {\r\n        require(msg.sender != owner, \"Auction contract owner cannot perform this action\");\r\n        _;\r\n    }\r\n\r\n    modifier onlyOwner {\r\n        require(msg.sender == owner, \"Only auction contract owner can perform this action\");\r\n        _;\r\n    }\r\n\r\n    modifier onlyAfterStart {\r\n        require(block.number >= startBlock, \"Auction has not started\");\r\n        _;\r\n    }\r\n\r\n    modifier onlyBeforeEnd {\r\n        require(block.number < endBlock, \"Auction has ended\");\r\n        _;\r\n    }\r\n\r\n    modifier onlyNotCanceled  {\r\n        require(!canceled, \"Auction has been canceled\");\r\n        _;\r\n    }\r\n\r\n    modifier onlyEndedOrCanceled {\r\n        require(block.number > endBlock && !canceled, \"Auction has not ended or been canceled\");\r\n        _;\r\n    }\r\n\r\n    modifier onlyDeposited {\r\n        require(ownerHasDeposited, \"Owner has not deposited NFT\");\r\n        _;\r\n    }\r\n\r\n    modifier onlyNotDeposited {\r\n        require(!ownerHasDeposited, \"Owner has deposited NFT\");\r\n        _;\r\n    }\r\n\r\n    function min(uint256 a, uint256 b) internal pure returns (uint256) {\r\n        return a < b ? a : b;\r\n    }\r\n\r\n    function deposit() public onlyOwner onlyNotDeposited onlyBeforeEnd onlyNotCanceled {\r\n        // Transfer ownership of NFT to contract\r\n        require(erc721Contract.ownerOf(tokenId) == msg.sender, \"Caller must own the NFT token\");\r\n        require(erc721Contract.getApproved(tokenId)  == address(this), \"Must approve contract as operator\");\r\n\r\n        erc721Contract.safeTransferFrom(msg.sender, address(this), tokenId);\r\n        ownerHasDeposited = true;\r\n        emit LogDeposit(owner, tokenId);\r\n    }\r\n    \r\n\r\n    function placeBid() public payable onlyNotOwner onlyAfterStart onlyBeforeEnd onlyNotCanceled onlyDeposited{\r\n        require(msg.value > 0, \"Bids must be greater than 0\");\r\n\r\n        uint newBid = fundsByBidder[msg.sender] + msg.value;\r\n        require(newBid > highestBindingBid, \"Bids must be above the highest current bid\");\r\n\r\n        // Increment the senders bid \r\n        fundsByBidder[msg.sender] += msg.value;\r\n\r\n        uint currentHighestBid = fundsByBidder[highestBidder];\r\n        if(currentHighestBid > newBid){\r\n            highestBindingBid = min(newBid + bidIncrement, currentHighestBid);\r\n        } else {\r\n            if (msg.sender != highestBidder) {\r\n                highestBidder = payable(msg.sender);\r\n                highestBindingBid = min(newBid, currentHighestBid + bidIncrement);\r\n            }\r\n\r\n            currentHighestBid = newBid;\r\n        }\r\n\r\n        emit LogBid(msg.sender, newBid, highestBidder, currentHighestBid, highestBindingBid);\r\n    }\r\n\r\n    function withdraw() public onlyEndedOrCanceled {\r\n        address payable withdrawalAccount;\r\n        uint withdrawalAmount;\r\n\r\n        if (canceled) {\r\n            // if the auction was canceled, everyone should simply be allowed to withdraw their funds\r\n            withdrawalAccount = payable(msg.sender);\r\n            withdrawalAmount = fundsByBidder[withdrawalAccount];\r\n        } else {\r\n            if(msg.sender == owner){\r\n                require(!ownerHasWithdrawn, \"Owner has already withdrawn\");\r\n                withdrawalAccount = highestBidder;\r\n                withdrawalAmount = highestBindingBid;\r\n\r\n                address transferTo = highestBidder;\r\n                if(highestBindingBid == 0) transferTo = owner;\r\n                erc721Contract.safeTransferFrom(address(this), transferTo, tokenId);\r\n                ownerHasWithdrawn = true;\r\n\r\n                emit LogTransferOut(transferTo, highestBindingBid);\r\n            } else {\r\n                if( msg.sender == highestBidder) require(ownerHasWithdrawn, \"Must wait for owner to wthdraw\");\r\n\r\n                withdrawalAccount = payable(msg.sender);\r\n                withdrawalAmount = fundsByBidder[msg.sender];\r\n            }\r\n        }\r\n\r\n        if(msg.sender != owner){\r\n            require(withdrawalAmount > 0, \"Withdrawal amount for this address is 0\");\r\n            withdrawalAccount.transfer(withdrawalAmount);\r\n            fundsByBidder[withdrawalAccount] -= withdrawalAmount;\r\n        }\r\n\r\n        emit LogWithdrawal(msg.sender, withdrawalAccount, withdrawalAmount);\r\n    }\r\n\r\n    function cancel() public onlyOwner onlyNotCanceled onlyBeforeEnd {\r\n        canceled = true;\r\n        if(ownerHasDeposited) erc721Contract.safeTransferFrom(address(this), owner, tokenId);\r\n\r\n        emit LogCanceled();\r\n    }\r\n\r\n    function tokenURI() public view returns (string memory){\r\n        return erc721Contract.tokenURI(tokenId);\r\n    }\r\n}",
  "sourcePath": "C:\\Users\\Charaka\\Desktop\\Coding\\Blockchain\\nft-auction\\contracts\\Auction.sol",
  "compiler": {
    "name": "solc",
    "version": "0.8.10+commit.fc410830.Emscripten.clang"
  },
  "schemaVersion": "3.4.4",
  "updatedAt": "2021-12-29T12:05:47.501Z",
  "devdoc": {
    "kind": "dev",
    "methods": {},
    "version": 1
  },
  "userdoc": {
    "kind": "user",
    "methods": {},
    "version": 1
  }
}