{
  "contractName": "NFT",
  "abi": [
    {
      "inputs": [],
      "stateMutability": "nonpayable",
      "type": "constructor"
    },
    {
      "anonymous": false,
      "inputs": [
        {
          "indexed": true,
          "internalType": "address",
          "name": "owner",
          "type": "address"
        },
        {
          "indexed": true,
          "internalType": "address",
          "name": "approved",
          "type": "address"
        },
        {
          "indexed": true,
          "internalType": "uint256",
          "name": "tokenId",
          "type": "uint256"
        }
      ],
      "name": "Approval",
      "type": "event"
    },
    {
      "anonymous": false,
      "inputs": [
        {
          "indexed": true,
          "internalType": "address",
          "name": "owner",
          "type": "address"
        },
        {
          "indexed": true,
          "internalType": "address",
          "name": "operator",
          "type": "address"
        },
        {
          "indexed": false,
          "internalType": "bool",
          "name": "approved",
          "type": "bool"
        }
      ],
      "name": "ApprovalForAll",
      "type": "event"
    },
    {
      "anonymous": false,
      "inputs": [
        {
          "indexed": true,
          "internalType": "address",
          "name": "previousOwner",
          "type": "address"
        },
        {
          "indexed": true,
          "internalType": "address",
          "name": "newOwner",
          "type": "address"
        }
      ],
      "name": "OwnershipTransferred",
      "type": "event"
    },
    {
      "anonymous": false,
      "inputs": [
        {
          "indexed": true,
          "internalType": "address",
          "name": "from",
          "type": "address"
        },
        {
          "indexed": true,
          "internalType": "address",
          "name": "to",
          "type": "address"
        },
        {
          "indexed": true,
          "internalType": "uint256",
          "name": "tokenId",
          "type": "uint256"
        }
      ],
      "name": "Transfer",
      "type": "event"
    },
    {
      "inputs": [
        {
          "internalType": "address",
          "name": "to",
          "type": "address"
        },
        {
          "internalType": "uint256",
          "name": "tokenId",
          "type": "uint256"
        }
      ],
      "name": "approve",
      "outputs": [],
      "stateMutability": "nonpayable",
      "type": "function"
    },
    {
      "inputs": [
        {
          "internalType": "address",
          "name": "owner",
          "type": "address"
        }
      ],
      "name": "balanceOf",
      "outputs": [
        {
          "internalType": "uint256",
          "name": "",
          "type": "uint256"
        }
      ],
      "stateMutability": "view",
      "type": "function",
      "constant": true
    },
    {
      "inputs": [
        {
          "internalType": "uint256",
          "name": "tokenId",
          "type": "uint256"
        }
      ],
      "name": "getApproved",
      "outputs": [
        {
          "internalType": "address",
          "name": "",
          "type": "address"
        }
      ],
      "stateMutability": "view",
      "type": "function",
      "constant": true
    },
    {
      "inputs": [
        {
          "internalType": "address",
          "name": "owner",
          "type": "address"
        },
        {
          "internalType": "address",
          "name": "operator",
          "type": "address"
        }
      ],
      "name": "isApprovedForAll",
      "outputs": [
        {
          "internalType": "bool",
          "name": "",
          "type": "bool"
        }
      ],
      "stateMutability": "view",
      "type": "function",
      "constant": true
    },
    {
      "inputs": [],
      "name": "name",
      "outputs": [
        {
          "internalType": "string",
          "name": "",
          "type": "string"
        }
      ],
      "stateMutability": "view",
      "type": "function",
      "constant": true
    },
    {
      "inputs": [],
      "name": "owner",
      "outputs": [
        {
          "internalType": "address",
          "name": "",
          "type": "address"
        }
      ],
      "stateMutability": "view",
      "type": "function",
      "constant": true
    },
    {
      "inputs": [
        {
          "internalType": "uint256",
          "name": "tokenId",
          "type": "uint256"
        }
      ],
      "name": "ownerOf",
      "outputs": [
        {
          "internalType": "address",
          "name": "",
          "type": "address"
        }
      ],
      "stateMutability": "view",
      "type": "function",
      "constant": true
    },
    {
      "inputs": [],
      "name": "renounceOwnership",
      "outputs": [],
      "stateMutability": "nonpayable",
      "type": "function"
    },
    {
      "inputs": [
        {
          "internalType": "address",
          "name": "from",
          "type": "address"
        },
        {
          "internalType": "address",
          "name": "to",
          "type": "address"
        },
        {
          "internalType": "uint256",
          "name": "tokenId",
          "type": "uint256"
        }
      ],
      "name": "safeTransferFrom",
      "outputs": [],
      "stateMutability": "nonpayable",
      "type": "function"
    },
    {
      "inputs": [
        {
          "internalType": "address",
          "name": "from",
          "type": "address"
        },
        {
          "internalType": "address",
          "name": "to",
          "type": "address"
        },
        {
          "internalType": "uint256",
          "name": "tokenId",
          "type": "uint256"
        },
        {
          "internalType": "bytes",
          "name": "_data",
          "type": "bytes"
        }
      ],
      "name": "safeTransferFrom",
      "outputs": [],
      "stateMutability": "nonpayable",
      "type": "function"
    },
    {
      "inputs": [
        {
          "internalType": "address",
          "name": "operator",
          "type": "address"
        },
        {
          "internalType": "bool",
          "name": "approved",
          "type": "bool"
        }
      ],
      "name": "setApprovalForAll",
      "outputs": [],
      "stateMutability": "nonpayable",
      "type": "function"
    },
    {
      "inputs": [
        {
          "internalType": "bytes4",
          "name": "interfaceId",
          "type": "bytes4"
        }
      ],
      "name": "supportsInterface",
      "outputs": [
        {
          "internalType": "bool",
          "name": "",
          "type": "bool"
        }
      ],
      "stateMutability": "view",
      "type": "function",
      "constant": true
    },
    {
      "inputs": [],
      "name": "symbol",
      "outputs": [
        {
          "internalType": "string",
          "name": "",
          "type": "string"
        }
      ],
      "stateMutability": "view",
      "type": "function",
      "constant": true
    },
    {
      "inputs": [
        {
          "internalType": "uint256",
          "name": "tokenId",
          "type": "uint256"
        }
      ],
      "name": "tokenURI",
      "outputs": [
        {
          "internalType": "string",
          "name": "",
          "type": "string"
        }
      ],
      "stateMutability": "view",
      "type": "function",
      "constant": true
    },
    {
      "inputs": [
        {
          "internalType": "address",
          "name": "from",
          "type": "address"
        },
        {
          "internalType": "address",
          "name": "to",
          "type": "address"
        },
        {
          "internalType": "uint256",
          "name": "tokenId",
          "type": "uint256"
        }
      ],
      "name": "transferFrom",
      "outputs": [],
      "stateMutability": "nonpayable",
      "type": "function"
    },
    {
      "inputs": [
        {
          "internalType": "address",
          "name": "newOwner",
          "type": "address"
        }
      ],
      "name": "transferOwnership",
      "outputs": [],
      "stateMutability": "nonpayable",
      "type": "function"
    },
    {
      "inputs": [
        {
          "internalType": "address",
          "name": "to",
          "type": "address"
        }
      ],
      "name": "safeMint",
      "outputs": [],
      "stateMutability": "nonpayable",
      "type": "function"
    },
    {
      "inputs": [],
      "name": "getCurrentToken",
      "outputs": [
        {
          "internalType": "uint256",
          "name": "",
          "type": "uint256"
        }
      ],
      "stateMutability": "view",
      "type": "function",
      "constant": true
    }
  ],
  "bytecode": "0x60806040523480156200001157600080fd5b506040518060400160405280600381526020017f4e465400000000000000000000000000000000000000000000000000000000008152506040518060400160405280600381526020017f43484b0000000000000000000000000000000000000000000000000000000000815250816000908051906020019062000096929190620001a6565b508060019080519060200190620000af929190620001a6565b505050620000d2620000c6620000d860201b60201c565b620000e060201b60201c565b620002bb565b600033905090565b6000600660009054906101000a900473ffffffffffffffffffffffffffffffffffffffff16905081600660006101000a81548173ffffffffffffffffffffffffffffffffffffffff021916908373ffffffffffffffffffffffffffffffffffffffff1602179055508173ffffffffffffffffffffffffffffffffffffffff168173ffffffffffffffffffffffffffffffffffffffff167f8be0079c531659141344cd1fd0a4f28419497f9722a3daafe3b4186f6b6457e060405160405180910390a35050565b828054620001b49062000285565b90600052602060002090601f016020900481019282620001d8576000855562000224565b82601f10620001f357805160ff191683800117855562000224565b8280016001018555821562000224579182015b828111156200022357825182559160200191906001019062000206565b5b50905062000233919062000237565b5090565b5b808211156200025257600081600090555060010162000238565b5090565b7f4e487b7100000000000000000000000000000000000000000000000000000000600052602260045260246000fd5b600060028204905060018216806200029e57607f821691505b60208210811415620002b557620002b462000256565b5b50919050565b612c0e80620002cb6000396000f3fe608060405234801561001057600080fd5b50600436106101165760003560e01c8063715018a6116100a2578063b88d4fde11610071578063b88d4fde146102cb578063c87b56dd146102e7578063e985e9c514610317578063ef2d174614610347578063f2fde38b1461036557610116565b8063715018a6146102695780638da5cb5b1461027357806395d89b4114610291578063a22cb465146102af57610116565b806323b872dd116100e957806323b872dd146101b557806340d097c3146101d157806342842e0e146101ed5780636352211e1461020957806370a082311461023957610116565b806301ffc9a71461011b57806306fdde031461014b578063081812fc14610169578063095ea7b314610199575b600080fd5b61013560048036038101906101309190611a93565b610381565b6040516101429190611adb565b60405180910390f35b610153610463565b6040516101609190611b8f565b60405180910390f35b610183600480360381019061017e9190611be7565b6104f5565b6040516101909190611c55565b60405180910390f35b6101b360048036038101906101ae9190611c9c565b61057a565b005b6101cf60048036038101906101ca9190611cdc565b610692565b005b6101eb60048036038101906101e69190611d2f565b6106f2565b005b61020760048036038101906102029190611cdc565b610794565b005b610223600480360381019061021e9190611be7565b6107b4565b6040516102309190611c55565b60405180910390f35b610253600480360381019061024e9190611d2f565b610866565b6040516102609190611d6b565b60405180910390f35b61027161091e565b005b61027b6109a6565b6040516102889190611c55565b60405180910390f35b6102996109d0565b6040516102a69190611b8f565b60405180910390f35b6102c960048036038101906102c49190611db2565b610a62565b005b6102e560048036038101906102e09190611f27565b610a78565b005b61030160048036038101906102fc9190611be7565b610ada565b60405161030e9190611b8f565b60405180910390f35b610331600480360381019061032c9190611faa565b610b81565b60405161033e9190611adb565b60405180910390f35b61034f610c15565b60405161035c9190611d6b565b60405180910390f35b61037f600480360381019061037a9190611d2f565b610c26565b005b60007f80ac58cd000000000000000000000000000000000000000000000000000000007bffffffffffffffffffffffffffffffffffffffffffffffffffffffff1916827bffffffffffffffffffffffffffffffffffffffffffffffffffffffff1916148061044c57507f5b5e139f000000000000000000000000000000000000000000000000000000007bffffffffffffffffffffffffffffffffffffffffffffffffffffffff1916827bffffffffffffffffffffffffffffffffffffffffffffffffffffffff1916145b8061045c575061045b82610d1e565b5b9050919050565b60606000805461047290612019565b80601f016020809104026020016040519081016040528092919081815260200182805461049e90612019565b80156104eb5780601f106104c0576101008083540402835291602001916104eb565b820191906000526020600020905b8154815290600101906020018083116104ce57829003601f168201915b5050505050905090565b600061050082610d88565b61053f576040517f08c379a0000000000000000000000000000000000000000000000000000000008152600401610536906120bd565b60405180910390fd5b6004600083815260200190815260200160002060009054906101000a900473ffffffffffffffffffffffffffffffffffffffff169050919050565b6000610585826107b4565b90508073ffffffffffffffffffffffffffffffffffffffff168373ffffffffffffffffffffffffffffffffffffffff1614156105f6576040517f08c379a00000000000000000000000000000000000000000000000000000000081526004016105ed9061214f565b60405180910390fd5b8073ffffffffffffffffffffffffffffffffffffffff16610615610df4565b73ffffffffffffffffffffffffffffffffffffffff16148061064457506106438161063e610df4565b610b81565b5b610683576040517f08c379a000000000000000000000000000000000000000000000000000000000815260040161067a906121e1565b60405180910390fd5b61068d8383610dfc565b505050565b6106a361069d610df4565b82610eb5565b6106e2576040517f08c379a00000000000000000000000000000000000000000000000000000000081526004016106d990612273565b60405180910390fd5b6106ed838383610f93565b505050565b6106fa610df4565b73ffffffffffffffffffffffffffffffffffffffff166107186109a6565b73ffffffffffffffffffffffffffffffffffffffff161461076e576040517f08c379a0000000000000000000000000000000000000000000000000000000008152600401610765906122df565b60405180910390fd5b600061077a60076111ef565b905061078660076111fd565b6107908282611213565b5050565b6107af83838360405180602001604052806000815250610a78565b505050565b6000806002600084815260200190815260200160002060009054906101000a900473ffffffffffffffffffffffffffffffffffffffff169050600073ffffffffffffffffffffffffffffffffffffffff168173ffffffffffffffffffffffffffffffffffffffff16141561085d576040517f08c379a000000000000000000000000000000000000000000000000000000000815260040161085490612371565b60405180910390fd5b80915050919050565b60008073ffffffffffffffffffffffffffffffffffffffff168273ffffffffffffffffffffffffffffffffffffffff1614156108d7576040517f08c379a00000000000000000000000000000000000000000000000000000000081526004016108ce90612403565b60405180910390fd5b600360008373ffffffffffffffffffffffffffffffffffffffff1673ffffffffffffffffffffffffffffffffffffffff168152602001908152602001600020549050919050565b610926610df4565b73ffffffffffffffffffffffffffffffffffffffff166109446109a6565b73ffffffffffffffffffffffffffffffffffffffff161461099a576040517f08c379a0000000000000000000000000000000000000000000000000000000008152600401610991906122df565b60405180910390fd5b6109a46000611231565b565b6000600660009054906101000a900473ffffffffffffffffffffffffffffffffffffffff16905090565b6060600180546109df90612019565b80601f0160208091040260200160405190810160405280929190818152602001828054610a0b90612019565b8015610a585780601f10610a2d57610100808354040283529160200191610a58565b820191906000526020600020905b815481529060010190602001808311610a3b57829003601f168201915b5050505050905090565b610a74610a6d610df4565b83836112f7565b5050565b610a89610a83610df4565b83610eb5565b610ac8576040517f08c379a0000000000000000000000000000000000000000000000000000000008152600401610abf90612273565b60405180910390fd5b610ad484848484611464565b50505050565b6060610ae582610d88565b610b24576040517f08c379a0000000000000000000000000000000000000000000000000000000008152600401610b1b90612495565b60405180910390fd5b6000610b2e6114c0565b90506000815111610b4e5760405180602001604052806000815250610b79565b80610b58846114fd565b604051602001610b699291906124f1565b6040516020818303038152906040525b915050919050565b6000600560008473ffffffffffffffffffffffffffffffffffffffff1673ffffffffffffffffffffffffffffffffffffffff16815260200190815260200160002060008373ffffffffffffffffffffffffffffffffffffffff1673ffffffffffffffffffffffffffffffffffffffff16815260200190815260200160002060009054906101000a900460ff16905092915050565b6000610c2160076111ef565b905090565b610c2e610df4565b73ffffffffffffffffffffffffffffffffffffffff16610c4c6109a6565b73ffffffffffffffffffffffffffffffffffffffff1614610ca2576040517f08c379a0000000000000000000000000000000000000000000000000000000008152600401610c99906122df565b60405180910390fd5b600073ffffffffffffffffffffffffffffffffffffffff168173ffffffffffffffffffffffffffffffffffffffff161415610d12576040517f08c379a0000000000000000000000000000000000000000000000000000000008152600401610d0990612587565b60405180910390fd5b610d1b81611231565b50565b60007f01ffc9a7000000000000000000000000000000000000000000000000000000007bffffffffffffffffffffffffffffffffffffffffffffffffffffffff1916827bffffffffffffffffffffffffffffffffffffffffffffffffffffffff1916149050919050565b60008073ffffffffffffffffffffffffffffffffffffffff166002600084815260200190815260200160002060009054906101000a900473ffffffffffffffffffffffffffffffffffffffff1673ffffffffffffffffffffffffffffffffffffffff1614159050919050565b600033905090565b816004600083815260200190815260200160002060006101000a81548173ffffffffffffffffffffffffffffffffffffffff021916908373ffffffffffffffffffffffffffffffffffffffff160217905550808273ffffffffffffffffffffffffffffffffffffffff16610e6f836107b4565b73ffffffffffffffffffffffffffffffffffffffff167f8c5be1e5ebec7d5bd14f71427d1e84f3dd0314c0f7b2291e5b200ac8c7c3b92560405160405180910390a45050565b6000610ec082610d88565b610eff576040517f08c379a0000000000000000000000000000000000000000000000000000000008152600401610ef690612619565b60405180910390fd5b6000610f0a836107b4565b90508073ffffffffffffffffffffffffffffffffffffffff168473ffffffffffffffffffffffffffffffffffffffff161480610f7957508373ffffffffffffffffffffffffffffffffffffffff16610f61846104f5565b73ffffffffffffffffffffffffffffffffffffffff16145b80610f8a5750610f898185610b81565b5b91505092915050565b8273ffffffffffffffffffffffffffffffffffffffff16610fb3826107b4565b73ffffffffffffffffffffffffffffffffffffffff1614611009576040517f08c379a0000000000000000000000000000000000000000000000000000000008152600401611000906126ab565b60405180910390fd5b600073ffffffffffffffffffffffffffffffffffffffff168273ffffffffffffffffffffffffffffffffffffffff161415611079576040517f08c379a00000000000000000000000000000000000000000000000000000000081526004016110709061273d565b60405180910390fd5b61108483838361165e565b61108f600082610dfc565b6001600360008573ffffffffffffffffffffffffffffffffffffffff1673ffffffffffffffffffffffffffffffffffffffff16815260200190815260200160002060008282546110df919061278c565b925050819055506001600360008473ffffffffffffffffffffffffffffffffffffffff1673ffffffffffffffffffffffffffffffffffffffff168152602001908152602001600020600082825461113691906127c0565b92505081905550816002600083815260200190815260200160002060006101000a81548173ffffffffffffffffffffffffffffffffffffffff021916908373ffffffffffffffffffffffffffffffffffffffff160217905550808273ffffffffffffffffffffffffffffffffffffffff168473ffffffffffffffffffffffffffffffffffffffff167fddf252ad1be2c89b69c2b068fc378daa952ba7f163c4a11628f55a4df523b3ef60405160405180910390a4505050565b600081600001549050919050565b6001816000016000828254019250508190555050565b61122d828260405180602001604052806000815250611663565b5050565b6000600660009054906101000a900473ffffffffffffffffffffffffffffffffffffffff16905081600660006101000a81548173ffffffffffffffffffffffffffffffffffffffff021916908373ffffffffffffffffffffffffffffffffffffffff1602179055508173ffffffffffffffffffffffffffffffffffffffff168173ffffffffffffffffffffffffffffffffffffffff167f8be0079c531659141344cd1fd0a4f28419497f9722a3daafe3b4186f6b6457e060405160405180910390a35050565b8173ffffffffffffffffffffffffffffffffffffffff168373ffffffffffffffffffffffffffffffffffffffff161415611366576040517f08c379a000000000000000000000000000000000000000000000000000000000815260040161135d90612862565b60405180910390fd5b80600560008573ffffffffffffffffffffffffffffffffffffffff1673ffffffffffffffffffffffffffffffffffffffff16815260200190815260200160002060008473ffffffffffffffffffffffffffffffffffffffff1673ffffffffffffffffffffffffffffffffffffffff16815260200190815260200160002060006101000a81548160ff0219169083151502179055508173ffffffffffffffffffffffffffffffffffffffff168373ffffffffffffffffffffffffffffffffffffffff167f17307eab39ab6107e8899845ad3d59bd9653f200f220920489ca2b5937696c31836040516114579190611adb565b60405180910390a3505050565b61146f848484610f93565b61147b848484846116be565b6114ba576040517f08c379a00000000000000000000000000000000000000000000000000000000081526004016114b1906128f4565b60405180910390fd5b50505050565b60606040518060400160405280602081526020017f687474703a2f2f6c6f63616c686f73743a333030302f6170692f746f6b656e2f815250905090565b60606000821415611545576040518060400160405280600181526020017f30000000000000000000000000000000000000000000000000000000000000008152509050611659565b600082905060005b6000821461157757808061156090612914565b915050600a82611570919061298c565b915061154d565b60008167ffffffffffffffff81111561159357611592611dfc565b5b6040519080825280601f01601f1916602001820160405280156115c55781602001600182028036833780820191505090505b5090505b60008514611652576001826115de919061278c565b9150600a856115ed91906129bd565b60306115f991906127c0565b60f81b81838151811061160f5761160e6129ee565b5b60200101907effffffffffffffffffffffffffffffffffffffffffffffffffffffffffffff1916908160001a905350600a8561164b919061298c565b94506115c9565b8093505050505b919050565b505050565b61166d8383611846565b61167a60008484846116be565b6116b9576040517f08c379a00000000000000000000000000000000000000000000000000000000081526004016116b0906128f4565b60405180910390fd5b505050565b60006116df8473ffffffffffffffffffffffffffffffffffffffff16611a14565b15611839578373ffffffffffffffffffffffffffffffffffffffff1663150b7a02611708610df4565b8786866040518563ffffffff1660e01b815260040161172a9493929190612a72565b6020604051808303816000875af192505050801561176657506040513d601f19601f820116820180604052508101906117639190612ad3565b60015b6117e9573d8060008114611796576040519150601f19603f3d011682016040523d82523d6000602084013e61179b565b606091505b506000815114156117e1576040517f08c379a00000000000000000000000000000000000000000000000000000000081526004016117d8906128f4565b60405180910390fd5b805181602001fd5b63150b7a0260e01b7bffffffffffffffffffffffffffffffffffffffffffffffffffffffff1916817bffffffffffffffffffffffffffffffffffffffffffffffffffffffff19161491505061183e565b600190505b949350505050565b600073ffffffffffffffffffffffffffffffffffffffff168273ffffffffffffffffffffffffffffffffffffffff1614156118b6576040517f08c379a00000000000000000000000000000000000000000000000000000000081526004016118ad90612b4c565b60405180910390fd5b6118bf81610d88565b156118ff576040517f08c379a00000000000000000000000000000000000000000000000000000000081526004016118f690612bb8565b60405180910390fd5b61190b6000838361165e565b6001600360008473ffffffffffffffffffffffffffffffffffffffff1673ffffffffffffffffffffffffffffffffffffffff168152602001908152602001600020600082825461195b91906127c0565b92505081905550816002600083815260200190815260200160002060006101000a81548173ffffffffffffffffffffffffffffffffffffffff021916908373ffffffffffffffffffffffffffffffffffffffff160217905550808273ffffffffffffffffffffffffffffffffffffffff16600073ffffffffffffffffffffffffffffffffffffffff167fddf252ad1be2c89b69c2b068fc378daa952ba7f163c4a11628f55a4df523b3ef60405160405180910390a45050565b600080823b905060008111915050919050565b6000604051905090565b600080fd5b600080fd5b60007fffffffff0000000000000000000000000000000000000000000000000000000082169050919050565b611a7081611a3b565b8114611a7b57600080fd5b50565b600081359050611a8d81611a67565b92915050565b600060208284031215611aa957611aa8611a31565b5b6000611ab784828501611a7e565b91505092915050565b60008115159050919050565b611ad581611ac0565b82525050565b6000602082019050611af06000830184611acc565b92915050565b600081519050919050565b600082825260208201905092915050565b60005b83811015611b30578082015181840152602081019050611b15565b83811115611b3f576000848401525b50505050565b6000601f19601f8301169050919050565b6000611b6182611af6565b611b6b8185611b01565b9350611b7b818560208601611b12565b611b8481611b45565b840191505092915050565b60006020820190508181036000830152611ba98184611b56565b905092915050565b6000819050919050565b611bc481611bb1565b8114611bcf57600080fd5b50565b600081359050611be181611bbb565b92915050565b600060208284031215611bfd57611bfc611a31565b5b6000611c0b84828501611bd2565b91505092915050565b600073ffffffffffffffffffffffffffffffffffffffff82169050919050565b6000611c3f82611c14565b9050919050565b611c4f81611c34565b82525050565b6000602082019050611c6a6000830184611c46565b92915050565b611c7981611c34565b8114611c8457600080fd5b50565b600081359050611c9681611c70565b92915050565b60008060408385031215611cb357611cb2611a31565b5b6000611cc185828601611c87565b9250506020611cd285828601611bd2565b9150509250929050565b600080600060608486031215611cf557611cf4611a31565b5b6000611d0386828701611c87565b9350506020611d1486828701611c87565b9250506040611d2586828701611bd2565b9150509250925092565b600060208284031215611d4557611d44611a31565b5b6000611d5384828501611c87565b91505092915050565b611d6581611bb1565b82525050565b6000602082019050611d806000830184611d5c565b92915050565b611d8f81611ac0565b8114611d9a57600080fd5b50565b600081359050611dac81611d86565b92915050565b60008060408385031215611dc957611dc8611a31565b5b6000611dd785828601611c87565b9250506020611de885828601611d9d565b9150509250929050565b600080fd5b600080fd5b7f4e487b7100000000000000000000000000000000000000000000000000000000600052604160045260246000fd5b611e3482611b45565b810181811067ffffffffffffffff82111715611e5357611e52611dfc565b5b80604052505050565b6000611e66611a27565b9050611e728282611e2b565b919050565b600067ffffffffffffffff821115611e9257611e91611dfc565b5b611e9b82611b45565b9050602081019050919050565b82818337600083830152505050565b6000611eca611ec584611e77565b611e5c565b905082815260208101848484011115611ee657611ee5611df7565b5b611ef1848285611ea8565b509392505050565b600082601f830112611f0e57611f0d611df2565b5b8135611f1e848260208601611eb7565b91505092915050565b60008060008060808587031215611f4157611f40611a31565b5b6000611f4f87828801611c87565b9450506020611f6087828801611c87565b9350506040611f7187828801611bd2565b925050606085013567ffffffffffffffff811115611f9257611f91611a36565b5b611f9e87828801611ef9565b91505092959194509250565b60008060408385031215611fc157611fc0611a31565b5b6000611fcf85828601611c87565b9250506020611fe085828601611c87565b9150509250929050565b7f4e487b7100000000000000000000000000000000000000000000000000000000600052602260045260246000fd5b6000600282049050600182168061203157607f821691505b6020821081141561204557612044611fea565b5b50919050565b7f4552433732313a20617070726f76656420717565727920666f72206e6f6e657860008201527f697374656e7420746f6b656e0000000000000000000000000000000000000000602082015250565b60006120a7602c83611b01565b91506120b28261204b565b604082019050919050565b600060208201905081810360008301526120d68161209a565b9050919050565b7f4552433732313a20617070726f76616c20746f2063757272656e74206f776e6560008201527f7200000000000000000000000000000000000000000000000000000000000000602082015250565b6000612139602183611b01565b9150612144826120dd565b604082019050919050565b600060208201905081810360008301526121688161212c565b9050919050565b7f4552433732313a20617070726f76652063616c6c6572206973206e6f74206f7760008201527f6e6572206e6f7220617070726f76656420666f7220616c6c0000000000000000602082015250565b60006121cb603883611b01565b91506121d68261216f565b604082019050919050565b600060208201905081810360008301526121fa816121be565b9050919050565b7f4552433732313a207472616e736665722063616c6c6572206973206e6f74206f60008201527f776e6572206e6f7220617070726f766564000000000000000000000000000000602082015250565b600061225d603183611b01565b915061226882612201565b604082019050919050565b6000602082019050818103600083015261228c81612250565b9050919050565b7f4f776e61626c653a2063616c6c6572206973206e6f7420746865206f776e6572600082015250565b60006122c9602083611b01565b91506122d482612293565b602082019050919050565b600060208201905081810360008301526122f8816122bc565b9050919050565b7f4552433732313a206f776e657220717565727920666f72206e6f6e657869737460008201527f656e7420746f6b656e0000000000000000000000000000000000000000000000602082015250565b600061235b602983611b01565b9150612366826122ff565b604082019050919050565b6000602082019050818103600083015261238a8161234e565b9050919050565b7f4552433732313a2062616c616e636520717565727920666f7220746865207a6560008201527f726f206164647265737300000000000000000000000000000000000000000000602082015250565b60006123ed602a83611b01565b91506123f882612391565b604082019050919050565b6000602082019050818103600083015261241c816123e0565b9050919050565b7f4552433732314d657461646174613a2055524920717565727920666f72206e6f60008201527f6e6578697374656e7420746f6b656e0000000000000000000000000000000000602082015250565b600061247f602f83611b01565b915061248a82612423565b604082019050919050565b600060208201905081810360008301526124ae81612472565b9050919050565b600081905092915050565b60006124cb82611af6565b6124d581856124b5565b93506124e5818560208601611b12565b80840191505092915050565b60006124fd82856124c0565b915061250982846124c0565b91508190509392505050565b7f4f776e61626c653a206e6577206f776e657220697320746865207a65726f206160008201527f6464726573730000000000000000000000000000000000000000000000000000602082015250565b6000612571602683611b01565b915061257c82612515565b604082019050919050565b600060208201905081810360008301526125a081612564565b9050919050565b7f4552433732313a206f70657261746f7220717565727920666f72206e6f6e657860008201527f697374656e7420746f6b656e0000000000000000000000000000000000000000602082015250565b6000612603602c83611b01565b915061260e826125a7565b604082019050919050565b60006020820190508181036000830152612632816125f6565b9050919050565b7f4552433732313a207472616e73666572206f6620746f6b656e2074686174206960008201527f73206e6f74206f776e0000000000000000000000000000000000000000000000602082015250565b6000612695602983611b01565b91506126a082612639565b604082019050919050565b600060208201905081810360008301526126c481612688565b9050919050565b7f4552433732313a207472616e7366657220746f20746865207a65726f2061646460008201527f7265737300000000000000000000000000000000000000000000000000000000602082015250565b6000612727602483611b01565b9150612732826126cb565b604082019050919050565b600060208201905081810360008301526127568161271a565b9050919050565b7f4e487b7100000000000000000000000000000000000000000000000000000000600052601160045260246000fd5b600061279782611bb1565b91506127a283611bb1565b9250828210156127b5576127b461275d565b5b828203905092915050565b60006127cb82611bb1565b91506127d683611bb1565b9250827fffffffffffffffffffffffffffffffffffffffffffffffffffffffffffffffff0382111561280b5761280a61275d565b5b828201905092915050565b7f4552433732313a20617070726f766520746f2063616c6c657200000000000000600082015250565b600061284c601983611b01565b915061285782612816565b602082019050919050565b6000602082019050818103600083015261287b8161283f565b9050919050565b7f4552433732313a207472616e7366657220746f206e6f6e20455243373231526560008201527f63656976657220696d706c656d656e7465720000000000000000000000000000602082015250565b60006128de603283611b01565b91506128e982612882565b604082019050919050565b6000602082019050818103600083015261290d816128d1565b9050919050565b600061291f82611bb1565b91507fffffffffffffffffffffffffffffffffffffffffffffffffffffffffffffffff8214156129525761295161275d565b5b600182019050919050565b7f4e487b7100000000000000000000000000000000000000000000000000000000600052601260045260246000fd5b600061299782611bb1565b91506129a283611bb1565b9250826129b2576129b161295d565b5b828204905092915050565b60006129c882611bb1565b91506129d383611bb1565b9250826129e3576129e261295d565b5b828206905092915050565b7f4e487b7100000000000000000000000000000000000000000000000000000000600052603260045260246000fd5b600081519050919050565b600082825260208201905092915050565b6000612a4482612a1d565b612a4e8185612a28565b9350612a5e818560208601611b12565b612a6781611b45565b840191505092915050565b6000608082019050612a876000830187611c46565b612a946020830186611c46565b612aa16040830185611d5c565b8181036060830152612ab38184612a39565b905095945050505050565b600081519050612acd81611a67565b92915050565b600060208284031215612ae957612ae8611a31565b5b6000612af784828501612abe565b91505092915050565b7f4552433732313a206d696e7420746f20746865207a65726f2061646472657373600082015250565b6000612b36602083611b01565b9150612b4182612b00565b602082019050919050565b60006020820190508181036000830152612b6581612b29565b9050919050565b7f4552433732313a20746f6b656e20616c7265616479206d696e74656400000000600082015250565b6000612ba2601c83611b01565b9150612bad82612b6c565b602082019050919050565b60006020820190508181036000830152612bd181612b95565b905091905056fea2646970667358221220ae83dc508d3249a6623e064dda5fbd3d4ac0aa1c9addc62b4aa9de20bb4aa76c64736f6c634300080a0033",
  "immutableReferences": {},
  "source": "// SPDX-License-Identifier: MIT\r\npragma solidity ^0.8.1;\r\n\r\nimport \"@openzeppelin/contracts/token/ERC721/ERC721.sol\";\r\nimport \"@openzeppelin/contracts/access/Ownable.sol\";\r\nimport \"@openzeppelin/contracts/utils/Counters.sol\";\r\n\r\ncontract NFT is ERC721, Ownable {\r\n    using Counters for Counters.Counter;\r\n    Counters.Counter private _tokenIdCounter;\r\n\r\n    constructor() ERC721(\"NFT\", \"CHK\") {}\r\n\r\n    function _baseURI() internal pure override returns (string memory) {\r\n        return \"http://localhost:3000/api/token/\";\r\n    }\r\n\r\n    function safeMint(address to) public onlyOwner {\r\n        uint256 tokenId = _tokenIdCounter.current();\r\n        _tokenIdCounter.increment();\r\n        _safeMint(to, tokenId);\r\n    }\r\n\r\n    function getCurrentToken() public view returns (uint256) {\r\n        return _tokenIdCounter.current();\r\n    }\r\n}\r\n",
  "sourcePath": "C:\\Users\\Charaka\\Desktop\\Coding\\Blockchain\\nft-auction\\contracts\\NFT.sol",
  "compiler": {
    "name": "solc",
    "version": "0.8.10+commit.fc410830.Emscripten.clang"
  },
  "schemaVersion": "3.4.4",
  "updatedAt": "2021-12-31T04:11:29.312Z",
  "networkType": "ethereum",
  "devdoc": {
    "kind": "dev",
    "methods": {
      "approve(address,uint256)": {
        "details": "See {IERC721-approve}."
      },
      "balanceOf(address)": {
        "details": "See {IERC721-balanceOf}."
      },
      "getApproved(uint256)": {
        "details": "See {IERC721-getApproved}."
      },
      "isApprovedForAll(address,address)": {
        "details": "See {IERC721-isApprovedForAll}."
      },
      "name()": {
        "details": "See {IERC721Metadata-name}."
      },
      "owner()": {
        "details": "Returns the address of the current owner."
      },
      "ownerOf(uint256)": {
        "details": "See {IERC721-ownerOf}."
      },
      "renounceOwnership()": {
        "details": "Leaves the contract without owner. It will not be possible to call `onlyOwner` functions anymore. Can only be called by the current owner. NOTE: Renouncing ownership will leave the contract without an owner, thereby removing any functionality that is only available to the owner."
      },
      "safeTransferFrom(address,address,uint256)": {
        "details": "See {IERC721-safeTransferFrom}."
      },
      "safeTransferFrom(address,address,uint256,bytes)": {
        "details": "See {IERC721-safeTransferFrom}."
      },
      "setApprovalForAll(address,bool)": {
        "details": "See {IERC721-setApprovalForAll}."
      },
      "supportsInterface(bytes4)": {
        "details": "See {IERC165-supportsInterface}."
      },
      "symbol()": {
        "details": "See {IERC721Metadata-symbol}."
      },
      "tokenURI(uint256)": {
        "details": "See {IERC721Metadata-tokenURI}."
      },
      "transferFrom(address,address,uint256)": {
        "details": "See {IERC721-transferFrom}."
      },
      "transferOwnership(address)": {
        "details": "Transfers ownership of the contract to a new account (`newOwner`). Can only be called by the current owner."
      }
    },
    "version": 1
  },
  "userdoc": {
    "kind": "user",
    "methods": {},
    "version": 1
  }
}